{
	"contracts/DisasterTraining.sol": {
		"DisasterTraining": {
			"abi": [
				{
					"anonymous": false,
					"inputs": [
						{
							"indexed": false,
							"internalType": "address",
							"name": "admin",
							"type": "address"
						}
					],
					"name": "AdminRegistered",
					"type": "event"
				},
				{
					"anonymous": false,
					"inputs": [
						{
							"indexed": false,
							"internalType": "address",
							"name": "participant",
							"type": "address"
						},
						{
							"indexed": false,
							"internalType": "string",
							"name": "field",
							"type": "string"
						}
					],
					"name": "DataUpdated",
					"type": "event"
				},
				{
					"anonymous": false,
					"inputs": [
						{
							"indexed": false,
							"internalType": "address",
							"name": "participant",
							"type": "address"
						},
						{
							"indexed": false,
							"internalType": "uint256",
							"name": "id",
							"type": "uint256"
						}
					],
					"name": "ParticipantRegistered",
					"type": "event"
				},
				{
					"anonymous": false,
					"inputs": [
						{
							"indexed": false,
							"internalType": "address",
							"name": "trainer",
							"type": "address"
						}
					],
					"name": "TrainerRegistered",
					"type": "event"
				},
				{
					"anonymous": false,
					"inputs": [
						{
							"indexed": false,
							"internalType": "address",
							"name": "participant",
							"type": "address"
						},
						{
							"indexed": false,
							"internalType": "address",
							"name": "trainer",
							"type": "address"
						},
						{
							"indexed": false,
							"internalType": "uint8",
							"name": "slot",
							"type": "uint8"
						}
					],
					"name": "TrainingBooked",
					"type": "event"
				},
				{
					"inputs": [],
					"name": "BOOKING_FEE",
					"outputs": [
						{
							"internalType": "uint256",
							"name": "",
							"type": "uint256"
						}
					],
					"stateMutability": "view",
					"type": "function"
				},
				{
					"inputs": [
						{
							"internalType": "uint256",
							"name": "",
							"type": "uint256"
						}
					],
					"name": "admins",
					"outputs": [
						{
							"internalType": "address",
							"name": "",
							"type": "address"
						}
					],
					"stateMutability": "view",
					"type": "function"
				},
				{
					"inputs": [
						{
							"internalType": "address",
							"name": "trainer",
							"type": "address"
						},
						{
							"internalType": "uint8",
							"name": "slotIndex",
							"type": "uint8"
						}
					],
					"name": "bookTrainingSlot",
					"outputs": [],
					"stateMutability": "payable",
					"type": "function"
				},
				{
					"inputs": [
						{
							"internalType": "address",
							"name": "",
							"type": "address"
						}
					],
					"name": "participants",
					"outputs": [
						{
							"internalType": "uint256",
							"name": "id",
							"type": "uint256"
						},
						{
							"internalType": "string",
							"name": "name",
							"type": "string"
						},
						{
							"internalType": "uint256",
							"name": "age",
							"type": "uint256"
						},
						{
							"internalType": "string",
							"name": "gender",
							"type": "string"
						},
						{
							"internalType": "string",
							"name": "district",
							"type": "string"
						},
						{
							"internalType": "enum DisasterTraining.TrainingInterest",
							"name": "training_interest",
							"type": "uint8"
						},
						{
							"internalType": "bool",
							"name": "has_completed_training",
							"type": "bool"
						},
						{
							"internalType": "address",
							"name": "wallet",
							"type": "address"
						}
					],
					"stateMutability": "view",
					"type": "function"
				},
				{
					"inputs": [],
					"name": "registerAsAdmin",
					"outputs": [],
					"stateMutability": "nonpayable",
					"type": "function"
				},
				{
					"inputs": [
						{
							"internalType": "uint256",
							"name": "_id",
							"type": "uint256"
						},
						{
							"internalType": "string",
							"name": "_name",
							"type": "string"
						},
						{
							"internalType": "uint256",
							"name": "_age",
							"type": "uint256"
						},
						{
							"internalType": "string",
							"name": "_gender",
							"type": "string"
						},
						{
							"internalType": "string",
							"name": "_district",
							"type": "string"
						},
						{
							"internalType": "uint8",
							"name": "_interest",
							"type": "uint8"
						}
					],
					"name": "registerAsParticipant",
					"outputs": [],
					"stateMutability": "nonpayable",
					"type": "function"
				},
				{
					"inputs": [],
					"name": "registerAsTrainer",
					"outputs": [],
					"stateMutability": "nonpayable",
					"type": "function"
				},
				{
					"inputs": [
						{
							"internalType": "address",
							"name": "participantAddr",
							"type": "address"
						},
						{
							"internalType": "uint8",
							"name": "newInterest",
							"type": "uint8"
						},
						{
							"internalType": "bool",
							"name": "setCompleted",
							"type": "bool"
						}
					],
					"name": "updateParticipant",
					"outputs": [],
					"stateMutability": "nonpayable",
					"type": "function"
				},
				{
					"inputs": [
						{
							"internalType": "address",
							"name": "",
							"type": "address"
						}
					],
					"name": "userRoles",
					"outputs": [
						{
							"internalType": "enum DisasterTraining.UserRole",
							"name": "",
							"type": "uint8"
						}
					],
					"stateMutability": "view",
					"type": "function"
				},
				{
					"inputs": [
						{
							"internalType": "address",
							"name": "trainer",
							"type": "address"
						}
					],
					"name": "viewTrainerSchedule",
					"outputs": [
						{
							"internalType": "address[6]",
							"name": "",
							"type": "address[6]"
						}
					],
					"stateMutability": "view",
					"type": "function"
				}
			],
			"devdoc": {
				"kind": "dev",
				"methods": {},
				"version": 1
			},
			"evm": {
				"assembly": "    /* \"contracts/DisasterTraining.sol\":74:4941  contract DisasterTraining {... */\n  mstore(0x40, 0x80)\n  callvalue\n  dup1\n  iszero\n  tag_1\n  jumpi\n  revert(0x00, 0x00)\ntag_1:\n  pop\n  dataSize(sub_0)\n  dup1\n  dataOffset(sub_0)\n  0x00\n  codecopy\n  0x00\n  return\nstop\n\nsub_0: assembly {\n        /* \"contracts/DisasterTraining.sol\":74:4941  contract DisasterTraining {... */\n      mstore(0x40, 0x80)\n      jumpi(tag_1, lt(calldatasize, 0x04))\n      shr(0xe0, calldataload(0x00))\n      dup1\n      0x8bbbae60\n      gt\n      tag_12\n      jumpi\n      dup1\n      0x8bbbae60\n      eq\n      tag_7\n      jumpi\n      dup1\n      0x8ccd9032\n      eq\n      tag_8\n      jumpi\n      dup1\n      0xd3b9ad6b\n      eq\n      tag_9\n      jumpi\n      dup1\n      0xdc0dc24e\n      eq\n      tag_10\n      jumpi\n      dup1\n      0xe00ef936\n      eq\n      tag_11\n      jumpi\n      jump(tag_1)\n    tag_12:\n      dup1\n      0x09e69ede\n      eq\n      tag_2\n      jumpi\n      dup1\n      0x14bfd6d0\n      eq\n      tag_3\n      jumpi\n      dup1\n      0x498d55b8\n      eq\n      tag_4\n      jumpi\n      dup1\n      0x5a14a814\n      eq\n      tag_5\n      jumpi\n      dup1\n      0x74d5e100\n      eq\n      tag_6\n      jumpi\n    tag_1:\n      revert(0x00, 0x00)\n        /* \"contracts/DisasterTraining.sol\":764:815  mapping(address => Participant) public participants */\n    tag_2:\n      callvalue\n      dup1\n      iszero\n      tag_13\n      jumpi\n      revert(0x00, 0x00)\n    tag_13:\n      pop\n      tag_14\n      0x04\n      dup1\n      calldatasize\n      sub\n      dup2\n      add\n      swap1\n      tag_15\n      swap2\n      swap1\n      tag_16\n      jump\t// in\n    tag_15:\n      tag_17\n      jump\t// in\n    tag_14:\n      mload(0x40)\n      tag_18\n      swap9\n      swap8\n      swap7\n      swap6\n      swap5\n      swap4\n      swap3\n      swap2\n      swap1\n      tag_19\n      jump\t// in\n    tag_18:\n      mload(0x40)\n      dup1\n      swap2\n      sub\n      swap1\n      return\n        /* \"contracts/DisasterTraining.sol\":734:757  address[] public admins */\n    tag_3:\n      callvalue\n      dup1\n      iszero\n      tag_20\n      jumpi\n      revert(0x00, 0x00)\n    tag_20:\n      pop\n      tag_21\n      0x04\n      dup1\n      calldatasize\n      sub\n      dup2\n      add\n      swap1\n      tag_22\n      swap2\n      swap1\n      tag_23\n      jump\t// in\n    tag_22:\n      tag_24\n      jump\t// in\n    tag_21:\n      mload(0x40)\n      tag_25\n      swap2\n      swap1\n      tag_26\n      jump\t// in\n    tag_25:\n      mload(0x40)\n      dup1\n      swap2\n      sub\n      swap1\n      return\n        /* \"contracts/DisasterTraining.sol\":1492:1742  function registerAsAdmin() external {... */\n    tag_4:\n      callvalue\n      dup1\n      iszero\n      tag_27\n      jumpi\n      revert(0x00, 0x00)\n    tag_27:\n      pop\n      tag_28\n      tag_29\n      jump\t// in\n    tag_28:\n      stop\n        /* \"contracts/DisasterTraining.sol\":2917:3709  function updateParticipant(... */\n    tag_5:\n      callvalue\n      dup1\n      iszero\n      tag_30\n      jumpi\n      revert(0x00, 0x00)\n    tag_30:\n      pop\n      tag_31\n      0x04\n      dup1\n      calldatasize\n      sub\n      dup2\n      add\n      swap1\n      tag_32\n      swap2\n      swap1\n      tag_33\n      jump\t// in\n    tag_32:\n      tag_34\n      jump\t// in\n    tag_31:\n      stop\n        /* \"contracts/DisasterTraining.sol\":682:727  mapping(address => UserRole) public userRoles */\n    tag_6:\n      callvalue\n      dup1\n      iszero\n      tag_35\n      jumpi\n      revert(0x00, 0x00)\n    tag_35:\n      pop\n      tag_36\n      0x04\n      dup1\n      calldatasize\n      sub\n      dup2\n      add\n      swap1\n      tag_37\n      swap2\n      swap1\n      tag_16\n      jump\t// in\n    tag_37:\n      tag_38\n      jump\t// in\n    tag_36:\n      mload(0x40)\n      tag_39\n      swap2\n      swap1\n      tag_40\n      jump\t// in\n    tag_39:\n      mload(0x40)\n      dup1\n      swap2\n      sub\n      swap1\n      return\n        /* \"contracts/DisasterTraining.sol\":2031:2869  function registerAsParticipant(... */\n    tag_7:\n      callvalue\n      dup1\n      iszero\n      tag_41\n      jumpi\n      revert(0x00, 0x00)\n    tag_41:\n      pop\n      tag_42\n      0x04\n      dup1\n      calldatasize\n      sub\n      dup2\n      add\n      swap1\n      tag_43\n      swap2\n      swap1\n      tag_44\n      jump\t// in\n    tag_43:\n      tag_45\n      jump\t// in\n    tag_42:\n      stop\n        /* \"contracts/DisasterTraining.sol\":4585:4938  function viewTrainerSchedule(address trainer) public view returns (address[6] memory) {... */\n    tag_8:\n      callvalue\n      dup1\n      iszero\n      tag_46\n      jumpi\n      revert(0x00, 0x00)\n    tag_46:\n      pop\n      tag_47\n      0x04\n      dup1\n      calldatasize\n      sub\n      dup2\n      add\n      swap1\n      tag_48\n      swap2\n      swap1\n      tag_16\n      jump\t// in\n    tag_48:\n      tag_49\n      jump\t// in\n    tag_47:\n      mload(0x40)\n      tag_50\n      swap2\n      swap1\n      tag_51\n      jump\t// in\n    tag_50:\n      mload(0x40)\n      dup1\n      swap2\n      sub\n      swap1\n      return\n        /* \"contracts/DisasterTraining.sol\":1750:2023  function registerAsTrainer() external {... */\n    tag_9:\n      callvalue\n      dup1\n      iszero\n      tag_52\n      jumpi\n      revert(0x00, 0x00)\n    tag_52:\n      pop\n      tag_53\n      tag_54\n      jump\t// in\n    tag_53:\n      stop\n        /* \"contracts/DisasterTraining.sol\":3871:4543  function bookTrainingSlot(address trainer, uint8 slotIndex) external payable onlyParticipant {... */\n    tag_10:\n      tag_55\n      0x04\n      dup1\n      calldatasize\n      sub\n      dup2\n      add\n      swap1\n      tag_56\n      swap2\n      swap1\n      tag_57\n      jump\t// in\n    tag_56:\n      tag_58\n      jump\t// in\n    tag_55:\n      stop\n        /* \"contracts/DisasterTraining.sol\":245:291  uint public constant BOOKING_FEE = 0.025 ether */\n    tag_11:\n      callvalue\n      dup1\n      iszero\n      tag_59\n      jumpi\n      revert(0x00, 0x00)\n    tag_59:\n      pop\n      tag_60\n      tag_61\n      jump\t// in\n    tag_60:\n      mload(0x40)\n      tag_62\n      swap2\n      swap1\n      tag_63\n      jump\t// in\n    tag_62:\n      mload(0x40)\n      dup1\n      swap2\n      sub\n      swap1\n      return\n        /* \"contracts/DisasterTraining.sol\":764:815  mapping(address => Participant) public participants */\n    tag_17:\n      mstore(0x20, 0x02)\n      dup1\n      0x00\n      mstore\n      keccak256(0x00, 0x40)\n      0x00\n      swap2\n      pop\n      swap1\n      pop\n      dup1\n      0x00\n      add\n      sload\n      swap1\n      dup1\n      0x01\n      add\n      dup1\n      sload\n      tag_64\n      swap1\n      tag_65\n      jump\t// in\n    tag_64:\n      dup1\n      0x1f\n      add\n      0x20\n      dup1\n      swap2\n      div\n      mul\n      0x20\n      add\n      mload(0x40)\n      swap1\n      dup2\n      add\n      0x40\n      mstore\n      dup1\n      swap3\n      swap2\n      swap1\n      dup2\n      dup2\n      mstore\n      0x20\n      add\n      dup3\n      dup1\n      sload\n      tag_66\n      swap1\n      tag_65\n      jump\t// in\n    tag_66:\n      dup1\n      iszero\n      tag_67\n      jumpi\n      dup1\n      0x1f\n      lt\n      tag_68\n      jumpi\n      0x0100\n      dup1\n      dup4\n      sload\n      div\n      mul\n      dup4\n      mstore\n      swap2\n      0x20\n      add\n      swap2\n      jump(tag_67)\n    tag_68:\n      dup3\n      add\n      swap2\n      swap1\n      0x00\n      mstore\n      keccak256(0x00, 0x20)\n      swap1\n    tag_69:\n      dup2\n      sload\n      dup2\n      mstore\n      swap1\n      0x01\n      add\n      swap1\n      0x20\n      add\n      dup1\n      dup4\n      gt\n      tag_69\n      jumpi\n      dup3\n      swap1\n      sub\n      0x1f\n      and\n      dup3\n      add\n      swap2\n    tag_67:\n      pop\n      pop\n      pop\n      pop\n      pop\n      swap1\n      dup1\n      0x02\n      add\n      sload\n      swap1\n      dup1\n      0x03\n      add\n      dup1\n      sload\n      tag_70\n      swap1\n      tag_65\n      jump\t// in\n    tag_70:\n      dup1\n      0x1f\n      add\n      0x20\n      dup1\n      swap2\n      div\n      mul\n      0x20\n      add\n      mload(0x40)\n      swap1\n      dup2\n      add\n      0x40\n      mstore\n      dup1\n      swap3\n      swap2\n      swap1\n      dup2\n      dup2\n      mstore\n      0x20\n      add\n      dup3\n      dup1\n      sload\n      tag_71\n      swap1\n      tag_65\n      jump\t// in\n    tag_71:\n      dup1\n      iszero\n      tag_72\n      jumpi\n      dup1\n      0x1f\n      lt\n      tag_73\n      jumpi\n      0x0100\n      dup1\n      dup4\n      sload\n      div\n      mul\n      dup4\n      mstore\n      swap2\n      0x20\n      add\n      swap2\n      jump(tag_72)\n    tag_73:\n      dup3\n      add\n      swap2\n      swap1\n      0x00\n      mstore\n      keccak256(0x00, 0x20)\n      swap1\n    tag_74:\n      dup2\n      sload\n      dup2\n      mstore\n      swap1\n      0x01\n      add\n      swap1\n      0x20\n      add\n      dup1\n      dup4\n      gt\n      tag_74\n      jumpi\n      dup3\n      swap1\n      sub\n      0x1f\n      and\n      dup3\n      add\n      swap2\n    tag_72:\n      pop\n      pop\n      pop\n      pop\n      pop\n      swap1\n      dup1\n      0x04\n      add\n      dup1\n      sload\n      tag_75\n      swap1\n      tag_65\n      jump\t// in\n    tag_75:\n      dup1\n      0x1f\n      add\n      0x20\n      dup1\n      swap2\n      div\n      mul\n      0x20\n      add\n      mload(0x40)\n      swap1\n      dup2\n      add\n      0x40\n      mstore\n      dup1\n      swap3\n      swap2\n      swap1\n      dup2\n      dup2\n      mstore\n      0x20\n      add\n      dup3\n      dup1\n      sload\n      tag_76\n      swap1\n      tag_65\n      jump\t// in\n    tag_76:\n      dup1\n      iszero\n      tag_77\n      jumpi\n      dup1\n      0x1f\n      lt\n      tag_78\n      jumpi\n      0x0100\n      dup1\n      dup4\n      sload\n      div\n      mul\n      dup4\n      mstore\n      swap2\n      0x20\n      add\n      swap2\n      jump(tag_77)\n    tag_78:\n      dup3\n      add\n      swap2\n      swap1\n      0x00\n      mstore\n      keccak256(0x00, 0x20)\n      swap1\n    tag_79:\n      dup2\n      sload\n      dup2\n      mstore\n      swap1\n      0x01\n      add\n      swap1\n      0x20\n      add\n      dup1\n      dup4\n      gt\n      tag_79\n      jumpi\n      dup3\n      swap1\n      sub\n      0x1f\n      and\n      dup3\n      add\n      swap2\n    tag_77:\n      pop\n      pop\n      pop\n      pop\n      pop\n      swap1\n      dup1\n      0x05\n      add\n      0x00\n      swap1\n      sload\n      swap1\n      0x0100\n      exp\n      swap1\n      div\n      0xff\n      and\n      swap1\n      dup1\n      0x05\n      add\n      0x01\n      swap1\n      sload\n      swap1\n      0x0100\n      exp\n      swap1\n      div\n      0xff\n      and\n      swap1\n      dup1\n      0x05\n      add\n      0x02\n      swap1\n      sload\n      swap1\n      0x0100\n      exp\n      swap1\n      div\n      0xffffffffffffffffffffffffffffffffffffffff\n      and\n      swap1\n      pop\n      dup9\n      jump\t// out\n        /* \"contracts/DisasterTraining.sol\":734:757  address[] public admins */\n    tag_24:\n      0x01\n      dup2\n      dup2\n      sload\n      dup2\n      lt\n      tag_80\n      jumpi\n      0x00\n      dup1\n      revert\n    tag_80:\n      swap1\n      0x00\n      mstore\n      keccak256(0x00, 0x20)\n      add\n      0x00\n      swap2\n      pop\n      sload\n      swap1\n      0x0100\n      exp\n      swap1\n      div\n      0xffffffffffffffffffffffffffffffffffffffff\n      and\n      dup2\n      jump\t// out\n        /* \"contracts/DisasterTraining.sol\":1492:1742  function registerAsAdmin() external {... */\n    tag_29:\n        /* \"contracts/DisasterTraining.sol\":1572:1585  UserRole.None */\n      0x00\n        /* \"contracts/DisasterTraining.sol\":1547:1585  userRoles[msg.sender] == UserRole.None */\n      0x03\n      dup2\n      gt\n      iszero\n      tag_83\n      jumpi\n      tag_84\n      tag_85\n      jump\t// in\n    tag_84:\n    tag_83:\n        /* \"contracts/DisasterTraining.sol\":1547:1556  userRoles */\n      0x00\n        /* \"contracts/DisasterTraining.sol\":1547:1568  userRoles[msg.sender] */\n      0x00\n        /* \"contracts/DisasterTraining.sol\":1557:1567  msg.sender */\n      caller\n        /* \"contracts/DisasterTraining.sol\":1547:1568  userRoles[msg.sender] */\n      0xffffffffffffffffffffffffffffffffffffffff\n      and\n      0xffffffffffffffffffffffffffffffffffffffff\n      and\n      dup2\n      mstore\n      0x20\n      add\n      swap1\n      dup2\n      mstore\n      0x20\n      add\n      0x00\n      keccak256\n      0x00\n      swap1\n      sload\n      swap1\n      0x0100\n      exp\n      swap1\n      div\n      0xff\n      and\n        /* \"contracts/DisasterTraining.sol\":1547:1585  userRoles[msg.sender] == UserRole.None */\n      0x03\n      dup2\n      gt\n      iszero\n      tag_86\n      jumpi\n      tag_87\n      tag_85\n      jump\t// in\n    tag_87:\n    tag_86:\n      eq\n        /* \"contracts/DisasterTraining.sol\":1539:1608  require(userRoles[msg.sender] == UserRole.None, \"Already registered\") */\n      tag_88\n      jumpi\n      mload(0x40)\n      0x08c379a000000000000000000000000000000000000000000000000000000000\n      dup2\n      mstore\n      0x04\n      add\n      tag_89\n      swap1\n      tag_90\n      jump\t// in\n    tag_89:\n      mload(0x40)\n      dup1\n      swap2\n      sub\n      swap1\n      revert\n    tag_88:\n        /* \"contracts/DisasterTraining.sol\":1643:1657  UserRole.Admin */\n      0x01\n        /* \"contracts/DisasterTraining.sol\":1619:1628  userRoles */\n      0x00\n        /* \"contracts/DisasterTraining.sol\":1619:1640  userRoles[msg.sender] */\n      0x00\n        /* \"contracts/DisasterTraining.sol\":1629:1639  msg.sender */\n      caller\n        /* \"contracts/DisasterTraining.sol\":1619:1640  userRoles[msg.sender] */\n      0xffffffffffffffffffffffffffffffffffffffff\n      and\n      0xffffffffffffffffffffffffffffffffffffffff\n      and\n      dup2\n      mstore\n      0x20\n      add\n      swap1\n      dup2\n      mstore\n      0x20\n      add\n      0x00\n      keccak256\n      0x00\n        /* \"contracts/DisasterTraining.sol\":1619:1657  userRoles[msg.sender] = UserRole.Admin */\n      0x0100\n      exp\n      dup2\n      sload\n      dup2\n      0xff\n      mul\n      not\n      and\n      swap1\n      dup4\n      0x03\n      dup2\n      gt\n      iszero\n      tag_91\n      jumpi\n      tag_92\n      tag_85\n      jump\t// in\n    tag_92:\n    tag_91:\n      mul\n      or\n      swap1\n      sstore\n      pop\n        /* \"contracts/DisasterTraining.sol\":1668:1674  admins */\n      0x01\n        /* \"contracts/DisasterTraining.sol\":1680:1690  msg.sender */\n      caller\n        /* \"contracts/DisasterTraining.sol\":1668:1691  admins.push(msg.sender) */\n      swap1\n      dup1\n      0x01\n      dup2\n      sload\n      add\n      dup1\n      dup3\n      sstore\n      dup1\n      swap2\n      pop\n      pop\n      0x01\n      swap1\n      sub\n      swap1\n      0x00\n      mstore\n      keccak256(0x00, 0x20)\n      add\n      0x00\n      swap1\n      swap2\n      swap1\n      swap2\n      swap1\n      swap2\n      0x0100\n      exp\n      dup2\n      sload\n      dup2\n      0xffffffffffffffffffffffffffffffffffffffff\n      mul\n      not\n      and\n      swap1\n      dup4\n      0xffffffffffffffffffffffffffffffffffffffff\n      and\n      mul\n      or\n      swap1\n      sstore\n      pop\n        /* \"contracts/DisasterTraining.sol\":1707:1734  AdminRegistered(msg.sender) */\n      0xac0f15283d37631c15b481bc07dc402bcfc030956bcd94b5585f71d92e84c3da\n        /* \"contracts/DisasterTraining.sol\":1723:1733  msg.sender */\n      caller\n        /* \"contracts/DisasterTraining.sol\":1707:1734  AdminRegistered(msg.sender) */\n      mload(0x40)\n      tag_94\n      swap2\n      swap1\n      tag_26\n      jump\t// in\n    tag_94:\n      mload(0x40)\n      dup1\n      swap2\n      sub\n      swap1\n      log1\n        /* \"contracts/DisasterTraining.sol\":1492:1742  function registerAsAdmin() external {... */\n      jump\t// out\n        /* \"contracts/DisasterTraining.sol\":2917:3709  function updateParticipant(... */\n    tag_34:\n        /* \"contracts/DisasterTraining.sol\":1248:1262  UserRole.Admin */\n      0x01\n        /* \"contracts/DisasterTraining.sol\":1223:1262  userRoles[msg.sender] == UserRole.Admin */\n      0x03\n      dup2\n      gt\n      iszero\n      tag_96\n      jumpi\n      tag_97\n      tag_85\n      jump\t// in\n    tag_97:\n    tag_96:\n        /* \"contracts/DisasterTraining.sol\":1223:1232  userRoles */\n      0x00\n        /* \"contracts/DisasterTraining.sol\":1223:1244  userRoles[msg.sender] */\n      0x00\n        /* \"contracts/DisasterTraining.sol\":1233:1243  msg.sender */\n      caller\n        /* \"contracts/DisasterTraining.sol\":1223:1244  userRoles[msg.sender] */\n      0xffffffffffffffffffffffffffffffffffffffff\n      and\n      0xffffffffffffffffffffffffffffffffffffffff\n      and\n      dup2\n      mstore\n      0x20\n      add\n      swap1\n      dup2\n      mstore\n      0x20\n      add\n      0x00\n      keccak256\n      0x00\n      swap1\n      sload\n      swap1\n      0x0100\n      exp\n      swap1\n      div\n      0xff\n      and\n        /* \"contracts/DisasterTraining.sol\":1223:1262  userRoles[msg.sender] == UserRole.Admin */\n      0x03\n      dup2\n      gt\n      iszero\n      tag_98\n      jumpi\n      tag_99\n      tag_85\n      jump\t// in\n    tag_99:\n    tag_98:\n      eq\n        /* \"contracts/DisasterTraining.sol\":1215:1285  require(userRoles[msg.sender] == UserRole.Admin, \"Only Admin allowed\") */\n      tag_100\n      jumpi\n      mload(0x40)\n      0x08c379a000000000000000000000000000000000000000000000000000000000\n      dup2\n      mstore\n      0x04\n      add\n      tag_101\n      swap1\n      tag_102\n      jump\t// in\n    tag_101:\n      mload(0x40)\n      dup1\n      swap2\n      sub\n      swap1\n      revert\n    tag_100:\n        /* \"contracts/DisasterTraining.sol\":3071:3092  Participant storage p */\n      0x00\n        /* \"contracts/DisasterTraining.sol\":3095:3107  participants */\n      0x02\n        /* \"contracts/DisasterTraining.sol\":3095:3124  participants[participantAddr] */\n      0x00\n        /* \"contracts/DisasterTraining.sol\":3108:3123  participantAddr */\n      dup6\n        /* \"contracts/DisasterTraining.sol\":3095:3124  participants[participantAddr] */\n      0xffffffffffffffffffffffffffffffffffffffff\n      and\n      0xffffffffffffffffffffffffffffffffffffffff\n      and\n      dup2\n      mstore\n      0x20\n      add\n      swap1\n      dup2\n      mstore\n      0x20\n      add\n      0x00\n      keccak256\n        /* \"contracts/DisasterTraining.sol\":3071:3124  Participant storage p = participants[participantAddr] */\n      swap1\n      pop\n        /* \"contracts/DisasterTraining.sol\":3156:3157  0 */\n      0x00\n        /* \"contracts/DisasterTraining.sol\":3141:3152  newInterest */\n      dup4\n        /* \"contracts/DisasterTraining.sol\":3141:3157  newInterest != 0 */\n      0xff\n      and\n      eq\n        /* \"contracts/DisasterTraining.sol\":3137:3386  if (newInterest != 0) {... */\n      tag_104\n      jumpi\n        /* \"contracts/DisasterTraining.sol\":3197:3198  1 */\n      0x01\n        /* \"contracts/DisasterTraining.sol\":3182:3193  newInterest */\n      dup4\n        /* \"contracts/DisasterTraining.sol\":3182:3198  newInterest >= 1 */\n      0xff\n      and\n      lt\n      iszero\n        /* \"contracts/DisasterTraining.sol\":3182:3218  newInterest >= 1 && newInterest <= 3 */\n      dup1\n      iszero\n      tag_105\n      jumpi\n      pop\n        /* \"contracts/DisasterTraining.sol\":3217:3218  3 */\n      0x03\n        /* \"contracts/DisasterTraining.sol\":3202:3213  newInterest */\n      dup4\n        /* \"contracts/DisasterTraining.sol\":3202:3218  newInterest <= 3 */\n      0xff\n      and\n      gt\n      iszero\n        /* \"contracts/DisasterTraining.sol\":3182:3218  newInterest >= 1 && newInterest <= 3 */\n    tag_105:\n        /* \"contracts/DisasterTraining.sol\":3174:3248  require(newInterest >= 1 && newInterest <= 3, \"Invalid training interest\") */\n      tag_106\n      jumpi\n      mload(0x40)\n      0x08c379a000000000000000000000000000000000000000000000000000000000\n      dup2\n      mstore\n      0x04\n      add\n      tag_107\n      swap1\n      tag_108\n      jump\t// in\n    tag_107:\n      mload(0x40)\n      dup1\n      swap2\n      sub\n      swap1\n      revert\n    tag_106:\n        /* \"contracts/DisasterTraining.sol\":3302:3313  newInterest */\n      dup3\n        /* \"contracts/DisasterTraining.sol\":3285:3314  TrainingInterest(newInterest) */\n      0xff\n      and\n      0x03\n      dup2\n      gt\n      iszero\n      tag_109\n      jumpi\n      tag_110\n      tag_85\n      jump\t// in\n    tag_110:\n    tag_109:\n        /* \"contracts/DisasterTraining.sol\":3263:3264  p */\n      dup2\n        /* \"contracts/DisasterTraining.sol\":3263:3282  p.training_interest */\n      0x05\n      add\n      0x00\n        /* \"contracts/DisasterTraining.sol\":3263:3314  p.training_interest = TrainingInterest(newInterest) */\n      0x0100\n      exp\n      dup2\n      sload\n      dup2\n      0xff\n      mul\n      not\n      and\n      swap1\n      dup4\n      0x03\n      dup2\n      gt\n      iszero\n      tag_111\n      jumpi\n      tag_112\n      tag_85\n      jump\t// in\n    tag_112:\n    tag_111:\n      mul\n      or\n      swap1\n      sstore\n      pop\n        /* \"contracts/DisasterTraining.sol\":3334:3374  DataUpdated(participantAddr, \"interest\") */\n      0x077380cc4f1ff57ad464ec617331c7304c78fc6bfdd0e3b5efa221a3bb9f6e20\n        /* \"contracts/DisasterTraining.sol\":3346:3361  participantAddr */\n      dup5\n        /* \"contracts/DisasterTraining.sol\":3334:3374  DataUpdated(participantAddr, \"interest\") */\n      mload(0x40)\n      tag_113\n      swap2\n      swap1\n      tag_114\n      jump\t// in\n    tag_113:\n      mload(0x40)\n      dup1\n      swap2\n      sub\n      swap1\n      log1\n        /* \"contracts/DisasterTraining.sol\":3137:3386  if (newInterest != 0) {... */\n    tag_104:\n        /* \"contracts/DisasterTraining.sol\":3400:3412  setCompleted */\n      dup2\n        /* \"contracts/DisasterTraining.sol\":3396:3702  if (setCompleted) {... */\n      iszero\n      tag_115\n      jumpi\n        /* \"contracts/DisasterTraining.sol\":3438:3439  p */\n      dup1\n        /* \"contracts/DisasterTraining.sol\":3438:3462  p.has_completed_training */\n      0x05\n      add\n      0x01\n      swap1\n      sload\n      swap1\n      0x0100\n      exp\n      swap1\n      div\n      0xff\n      and\n        /* \"contracts/DisasterTraining.sol\":3437:3462  !p.has_completed_training */\n      iszero\n        /* \"contracts/DisasterTraining.sol\":3429:3484  require(!p.has_completed_training, \"Already completed\") */\n      tag_116\n      jumpi\n      mload(0x40)\n      0x08c379a000000000000000000000000000000000000000000000000000000000\n      dup2\n      mstore\n      0x04\n      add\n      tag_117\n      swap1\n      tag_118\n      jump\t// in\n    tag_117:\n      mload(0x40)\n      dup1\n      swap2\n      sub\n      swap1\n      revert\n    tag_116:\n        /* \"contracts/DisasterTraining.sol\":3526:3530  true */\n      0x01\n        /* \"contracts/DisasterTraining.sol\":3499:3500  p */\n      dup2\n        /* \"contracts/DisasterTraining.sol\":3499:3523  p.has_completed_training */\n      0x05\n      add\n      0x01\n        /* \"contracts/DisasterTraining.sol\":3499:3530  p.has_completed_training = true */\n      0x0100\n      exp\n      dup2\n      sload\n      dup2\n      0xff\n      mul\n      not\n      and\n      swap1\n      dup4\n      iszero\n      iszero\n      mul\n      or\n      swap1\n      sstore\n      pop\n        /* \"contracts/DisasterTraining.sol\":3550:3602  DataUpdated(participantAddr, \"hasCompletedTraining\") */\n      0x077380cc4f1ff57ad464ec617331c7304c78fc6bfdd0e3b5efa221a3bb9f6e20\n        /* \"contracts/DisasterTraining.sol\":3562:3577  participantAddr */\n      dup5\n        /* \"contracts/DisasterTraining.sol\":3550:3602  DataUpdated(participantAddr, \"hasCompletedTraining\") */\n      mload(0x40)\n      tag_119\n      swap2\n      swap1\n      tag_120\n      jump\t// in\n    tag_119:\n      mload(0x40)\n      dup1\n      swap2\n      sub\n      swap1\n      log1\n        /* \"contracts/DisasterTraining.sol\":3396:3702  if (setCompleted) {... */\n      jump(tag_121)\n    tag_115:\n        /* \"contracts/DisasterTraining.sol\":3644:3656  setCompleted */\n      dup2\n        /* \"contracts/DisasterTraining.sol\":3643:3656  !setCompleted */\n      iszero\n        /* \"contracts/DisasterTraining.sol\":3635:3690  require(!setCompleted, \"Completion cannot be reverted\") */\n      tag_122\n      jumpi\n      mload(0x40)\n      0x08c379a000000000000000000000000000000000000000000000000000000000\n      dup2\n      mstore\n      0x04\n      add\n      tag_123\n      swap1\n      tag_124\n      jump\t// in\n    tag_123:\n      mload(0x40)\n      dup1\n      swap2\n      sub\n      swap1\n      revert\n    tag_122:\n        /* \"contracts/DisasterTraining.sol\":3396:3702  if (setCompleted) {... */\n    tag_121:\n        /* \"contracts/DisasterTraining.sol\":3060:3709  {... */\n      pop\n        /* \"contracts/DisasterTraining.sol\":2917:3709  function updateParticipant(... */\n      pop\n      pop\n      pop\n      jump\t// out\n        /* \"contracts/DisasterTraining.sol\":682:727  mapping(address => UserRole) public userRoles */\n    tag_38:\n      mstore(0x20, 0x00)\n      dup1\n      0x00\n      mstore\n      keccak256(0x00, 0x40)\n      0x00\n      swap2\n      pop\n      sload\n      swap1\n      0x0100\n      exp\n      swap1\n      div\n      0xff\n      and\n      dup2\n      jump\t// out\n        /* \"contracts/DisasterTraining.sol\":2031:2869  function registerAsParticipant(... */\n    tag_45:\n        /* \"contracts/DisasterTraining.sol\":2289:2302  UserRole.None */\n      0x00\n        /* \"contracts/DisasterTraining.sol\":2264:2302  userRoles[msg.sender] == UserRole.None */\n      0x03\n      dup2\n      gt\n      iszero\n      tag_126\n      jumpi\n      tag_127\n      tag_85\n      jump\t// in\n    tag_127:\n    tag_126:\n        /* \"contracts/DisasterTraining.sol\":2264:2273  userRoles */\n      0x00\n        /* \"contracts/DisasterTraining.sol\":2264:2285  userRoles[msg.sender] */\n      0x00\n        /* \"contracts/DisasterTraining.sol\":2274:2284  msg.sender */\n      caller\n        /* \"contracts/DisasterTraining.sol\":2264:2285  userRoles[msg.sender] */\n      0xffffffffffffffffffffffffffffffffffffffff\n      and\n      0xffffffffffffffffffffffffffffffffffffffff\n      and\n      dup2\n      mstore\n      0x20\n      add\n      swap1\n      dup2\n      mstore\n      0x20\n      add\n      0x00\n      keccak256\n      0x00\n      swap1\n      sload\n      swap1\n      0x0100\n      exp\n      swap1\n      div\n      0xff\n      and\n        /* \"contracts/DisasterTraining.sol\":2264:2302  userRoles[msg.sender] == UserRole.None */\n      0x03\n      dup2\n      gt\n      iszero\n      tag_128\n      jumpi\n      tag_129\n      tag_85\n      jump\t// in\n    tag_129:\n    tag_128:\n      eq\n        /* \"contracts/DisasterTraining.sol\":2256:2325  require(userRoles[msg.sender] == UserRole.None, \"Already registered\") */\n      tag_130\n      jumpi\n      mload(0x40)\n      0x08c379a000000000000000000000000000000000000000000000000000000000\n      dup2\n      mstore\n      0x04\n      add\n      tag_131\n      swap1\n      tag_90\n      jump\t// in\n    tag_131:\n      mload(0x40)\n      dup1\n      swap2\n      sub\n      swap1\n      revert\n    tag_130:\n        /* \"contracts/DisasterTraining.sol\":2357:2358  1 */\n      0x01\n        /* \"contracts/DisasterTraining.sol\":2344:2353  _interest */\n      dup2\n        /* \"contracts/DisasterTraining.sol\":2344:2358  _interest >= 1 */\n      0xff\n      and\n      lt\n      iszero\n        /* \"contracts/DisasterTraining.sol\":2344:2376  _interest >= 1 && _interest <= 3 */\n      dup1\n      iszero\n      tag_132\n      jumpi\n      pop\n        /* \"contracts/DisasterTraining.sol\":2375:2376  3 */\n      0x03\n        /* \"contracts/DisasterTraining.sol\":2362:2371  _interest */\n      dup2\n        /* \"contracts/DisasterTraining.sol\":2362:2376  _interest <= 3 */\n      0xff\n      and\n      gt\n      iszero\n        /* \"contracts/DisasterTraining.sol\":2344:2376  _interest >= 1 && _interest <= 3 */\n    tag_132:\n        /* \"contracts/DisasterTraining.sol\":2336:2406  require(_interest >= 1 && _interest <= 3, \"Invalid interest selected\") */\n      tag_133\n      jumpi\n      mload(0x40)\n      0x08c379a000000000000000000000000000000000000000000000000000000000\n      dup2\n      mstore\n      0x04\n      add\n      tag_134\n      swap1\n      tag_135\n      jump\t// in\n    tag_134:\n      mload(0x40)\n      dup1\n      swap2\n      sub\n      swap1\n      revert\n    tag_133:\n        /* \"contracts/DisasterTraining.sol\":2454:2752  Participant({... */\n      mload(0x40)\n      dup1\n      0x0100\n      add\n      0x40\n      mstore\n      dup1\n        /* \"contracts/DisasterTraining.sol\":2485:2488  _id */\n      dup11\n        /* \"contracts/DisasterTraining.sol\":2454:2752  Participant({... */\n      dup2\n      mstore\n      0x20\n      add\n        /* \"contracts/DisasterTraining.sol\":2509:2514  _name */\n      dup10\n      dup10\n        /* \"contracts/DisasterTraining.sol\":2454:2752  Participant({... */\n      dup1\n      dup1\n      0x1f\n      add\n      0x20\n      dup1\n      swap2\n      div\n      mul\n      0x20\n      add\n      mload(0x40)\n      swap1\n      dup2\n      add\n      0x40\n      mstore\n      dup1\n      swap4\n      swap3\n      swap2\n      swap1\n      dup2\n      dup2\n      mstore\n      0x20\n      add\n      dup4\n      dup4\n      dup1\n      dup3\n      dup5\n      calldatacopy\n      0x00\n      dup2\n      dup5\n      add\n      mstore\n      not(0x1f)\n      0x1f\n      dup3\n      add\n      and\n      swap1\n      pop\n      dup1\n      dup4\n      add\n      swap3\n      pop\n      pop\n      pop\n      pop\n      pop\n      pop\n      pop\n      dup2\n      mstore\n      0x20\n      add\n        /* \"contracts/DisasterTraining.sol\":2534:2538  _age */\n      dup8\n        /* \"contracts/DisasterTraining.sol\":2454:2752  Participant({... */\n      dup2\n      mstore\n      0x20\n      add\n        /* \"contracts/DisasterTraining.sol\":2561:2568  _gender */\n      dup7\n      dup7\n        /* \"contracts/DisasterTraining.sol\":2454:2752  Participant({... */\n      dup1\n      dup1\n      0x1f\n      add\n      0x20\n      dup1\n      swap2\n      div\n      mul\n      0x20\n      add\n      mload(0x40)\n      swap1\n      dup2\n      add\n      0x40\n      mstore\n      dup1\n      swap4\n      swap3\n      swap2\n      swap1\n      dup2\n      dup2\n      mstore\n      0x20\n      add\n      dup4\n      dup4\n      dup1\n      dup3\n      dup5\n      calldatacopy\n      0x00\n      dup2\n      dup5\n      add\n      mstore\n      not(0x1f)\n      0x1f\n      dup3\n      add\n      and\n      swap1\n      pop\n      dup1\n      dup4\n      add\n      swap3\n      pop\n      pop\n      pop\n      pop\n      pop\n      pop\n      pop\n      dup2\n      mstore\n      0x20\n      add\n        /* \"contracts/DisasterTraining.sol\":2593:2602  _district */\n      dup5\n      dup5\n        /* \"contracts/DisasterTraining.sol\":2454:2752  Participant({... */\n      dup1\n      dup1\n      0x1f\n      add\n      0x20\n      dup1\n      swap2\n      div\n      mul\n      0x20\n      add\n      mload(0x40)\n      swap1\n      dup2\n      add\n      0x40\n      mstore\n      dup1\n      swap4\n      swap3\n      swap2\n      swap1\n      dup2\n      dup2\n      mstore\n      0x20\n      add\n      dup4\n      dup4\n      dup1\n      dup3\n      dup5\n      calldatacopy\n      0x00\n      dup2\n      dup5\n      add\n      mstore\n      not(0x1f)\n      0x1f\n      dup3\n      add\n      and\n      swap1\n      pop\n      dup1\n      dup4\n      add\n      swap3\n      pop\n      pop\n      pop\n      pop\n      pop\n      pop\n      pop\n      dup2\n      mstore\n      0x20\n      add\n        /* \"contracts/DisasterTraining.sol\":2653:2662  _interest */\n      dup3\n        /* \"contracts/DisasterTraining.sol\":2636:2663  TrainingInterest(_interest) */\n      0xff\n      and\n      0x03\n      dup2\n      gt\n      iszero\n      tag_136\n      jumpi\n      tag_137\n      tag_85\n      jump\t// in\n    tag_137:\n    tag_136:\n        /* \"contracts/DisasterTraining.sol\":2454:2752  Participant({... */\n      0x03\n      dup2\n      gt\n      iszero\n      tag_138\n      jumpi\n      tag_139\n      tag_85\n      jump\t// in\n    tag_139:\n    tag_138:\n      dup2\n      mstore\n      0x20\n      add\n        /* \"contracts/DisasterTraining.sol\":2702:2707  false */\n      0x00\n        /* \"contracts/DisasterTraining.sol\":2454:2752  Participant({... */\n      iszero\n      iszero\n      dup2\n      mstore\n      0x20\n      add\n        /* \"contracts/DisasterTraining.sol\":2730:2740  msg.sender */\n      caller\n        /* \"contracts/DisasterTraining.sol\":2454:2752  Participant({... */\n      0xffffffffffffffffffffffffffffffffffffffff\n      and\n      dup2\n      mstore\n      pop\n        /* \"contracts/DisasterTraining.sol\":2427:2439  participants */\n      0x02\n        /* \"contracts/DisasterTraining.sol\":2427:2451  participants[msg.sender] */\n      0x00\n        /* \"contracts/DisasterTraining.sol\":2440:2450  msg.sender */\n      caller\n        /* \"contracts/DisasterTraining.sol\":2427:2451  participants[msg.sender] */\n      0xffffffffffffffffffffffffffffffffffffffff\n      and\n      0xffffffffffffffffffffffffffffffffffffffff\n      and\n      dup2\n      mstore\n      0x20\n      add\n      swap1\n      dup2\n      mstore\n      0x20\n      add\n      0x00\n      keccak256\n        /* \"contracts/DisasterTraining.sol\":2427:2752  participants[msg.sender] = Participant({... */\n      0x00\n      dup3\n      add\n      mload\n      dup2\n      0x00\n      add\n      sstore\n      0x20\n      dup3\n      add\n      mload\n      dup2\n      0x01\n      add\n      swap1\n      dup2\n      tag_140\n      swap2\n      swap1\n      tag_141\n      jump\t// in\n    tag_140:\n      pop\n      0x40\n      dup3\n      add\n      mload\n      dup2\n      0x02\n      add\n      sstore\n      0x60\n      dup3\n      add\n      mload\n      dup2\n      0x03\n      add\n      swap1\n      dup2\n      tag_142\n      swap2\n      swap1\n      tag_141\n      jump\t// in\n    tag_142:\n      pop\n      0x80\n      dup3\n      add\n      mload\n      dup2\n      0x04\n      add\n      swap1\n      dup2\n      tag_143\n      swap2\n      swap1\n      tag_141\n      jump\t// in\n    tag_143:\n      pop\n      0xa0\n      dup3\n      add\n      mload\n      dup2\n      0x05\n      add\n      exp(0x0100, 0x00)\n      dup2\n      sload\n      dup2\n      0xff\n      mul\n      not\n      and\n      swap1\n      dup4\n      0x03\n      dup2\n      gt\n      iszero\n      tag_144\n      jumpi\n      tag_145\n      tag_85\n      jump\t// in\n    tag_145:\n    tag_144:\n      mul\n      or\n      swap1\n      sstore\n      pop\n      0xc0\n      dup3\n      add\n      mload\n      dup2\n      0x05\n      add\n      exp(0x0100, 0x01)\n      dup2\n      sload\n      dup2\n      0xff\n      mul\n      not\n      and\n      swap1\n      dup4\n      iszero\n      iszero\n      mul\n      or\n      swap1\n      sstore\n      pop\n      0xe0\n      dup3\n      add\n      mload\n      dup2\n      0x05\n      add\n      exp(0x0100, 0x02)\n      dup2\n      sload\n      dup2\n      0xffffffffffffffffffffffffffffffffffffffff\n      mul\n      not\n      and\n      swap1\n      dup4\n      0xffffffffffffffffffffffffffffffffffffffff\n      and\n      mul\n      or\n      swap1\n      sstore\n      pop\n      swap1\n      pop\n      pop\n        /* \"contracts/DisasterTraining.sol\":2787:2807  UserRole.Participant */\n      0x03\n        /* \"contracts/DisasterTraining.sol\":2763:2772  userRoles */\n      0x00\n        /* \"contracts/DisasterTraining.sol\":2763:2784  userRoles[msg.sender] */\n      0x00\n        /* \"contracts/DisasterTraining.sol\":2773:2783  msg.sender */\n      caller\n        /* \"contracts/DisasterTraining.sol\":2763:2784  userRoles[msg.sender] */\n      0xffffffffffffffffffffffffffffffffffffffff\n      and\n      0xffffffffffffffffffffffffffffffffffffffff\n      and\n      dup2\n      mstore\n      0x20\n      add\n      swap1\n      dup2\n      mstore\n      0x20\n      add\n      0x00\n      keccak256\n      0x00\n        /* \"contracts/DisasterTraining.sol\":2763:2807  userRoles[msg.sender] = UserRole.Participant */\n      0x0100\n      exp\n      dup2\n      sload\n      dup2\n      0xff\n      mul\n      not\n      and\n      swap1\n      dup4\n      0x03\n      dup2\n      gt\n      iszero\n      tag_146\n      jumpi\n      tag_147\n      tag_85\n      jump\t// in\n    tag_147:\n    tag_146:\n      mul\n      or\n      swap1\n      sstore\n      pop\n        /* \"contracts/DisasterTraining.sol\":2823:2861  ParticipantRegistered(msg.sender, _id) */\n      0xa48418fa780c651bef841ca082131ed20bc20c620dd0459bba9ab78550f5d623\n        /* \"contracts/DisasterTraining.sol\":2845:2855  msg.sender */\n      caller\n        /* \"contracts/DisasterTraining.sol\":2857:2860  _id */\n      dup11\n        /* \"contracts/DisasterTraining.sol\":2823:2861  ParticipantRegistered(msg.sender, _id) */\n      mload(0x40)\n      tag_148\n      swap3\n      swap2\n      swap1\n      tag_149\n      jump\t// in\n    tag_148:\n      mload(0x40)\n      dup1\n      swap2\n      sub\n      swap1\n      log1\n        /* \"contracts/DisasterTraining.sol\":2031:2869  function registerAsParticipant(... */\n      pop\n      pop\n      pop\n      pop\n      pop\n      pop\n      pop\n      pop\n      pop\n      jump\t// out\n        /* \"contracts/DisasterTraining.sol\":4585:4938  function viewTrainerSchedule(address trainer) public view returns (address[6] memory) {... */\n    tag_49:\n        /* \"contracts/DisasterTraining.sol\":4652:4669  address[6] memory */\n      tag_150\n      tag_151\n      jump\t// in\n    tag_150:\n        /* \"contracts/DisasterTraining.sol\":4712:4728  UserRole.Trainer */\n      0x02\n        /* \"contracts/DisasterTraining.sol\":4690:4728  userRoles[trainer] == UserRole.Trainer */\n      0x03\n      dup2\n      gt\n      iszero\n      tag_153\n      jumpi\n      tag_154\n      tag_85\n      jump\t// in\n    tag_154:\n    tag_153:\n        /* \"contracts/DisasterTraining.sol\":4690:4699  userRoles */\n      0x00\n        /* \"contracts/DisasterTraining.sol\":4690:4708  userRoles[trainer] */\n      0x00\n        /* \"contracts/DisasterTraining.sol\":4700:4707  trainer */\n      dup5\n        /* \"contracts/DisasterTraining.sol\":4690:4708  userRoles[trainer] */\n      0xffffffffffffffffffffffffffffffffffffffff\n      and\n      0xffffffffffffffffffffffffffffffffffffffff\n      and\n      dup2\n      mstore\n      0x20\n      add\n      swap1\n      dup2\n      mstore\n      0x20\n      add\n      0x00\n      keccak256\n      0x00\n      swap1\n      sload\n      swap1\n      0x0100\n      exp\n      swap1\n      div\n      0xff\n      and\n        /* \"contracts/DisasterTraining.sol\":4690:4728  userRoles[trainer] == UserRole.Trainer */\n      0x03\n      dup2\n      gt\n      iszero\n      tag_155\n      jumpi\n      tag_156\n      tag_85\n      jump\t// in\n    tag_156:\n    tag_155:\n      eq\n        /* \"contracts/DisasterTraining.sol\":4682:4746  require(userRoles[trainer] == UserRole.Trainer, \"Not a trainer\") */\n      tag_157\n      jumpi\n      mload(0x40)\n      0x08c379a000000000000000000000000000000000000000000000000000000000\n      dup2\n      mstore\n      0x04\n      add\n      tag_158\n      swap1\n      tag_159\n      jump\t// in\n    tag_158:\n      mload(0x40)\n      dup1\n      swap2\n      sub\n      swap1\n      revert\n    tag_157:\n        /* \"contracts/DisasterTraining.sol\":4757:4780  address[6] memory slots */\n      tag_160\n      tag_151\n      jump\t// in\n    tag_160:\n        /* \"contracts/DisasterTraining.sol\":4796:4803  uint8 i */\n      0x00\n        /* \"contracts/DisasterTraining.sol\":4806:4807  1 */\n      0x01\n        /* \"contracts/DisasterTraining.sol\":4796:4807  uint8 i = 1 */\n      swap1\n      pop\n        /* \"contracts/DisasterTraining.sol\":4791:4908  for (uint8 i = 1; i <= 6; i++) {... */\n    tag_161:\n        /* \"contracts/DisasterTraining.sol\":4814:4815  6 */\n      0x06\n        /* \"contracts/DisasterTraining.sol\":4809:4810  i */\n      dup2\n        /* \"contracts/DisasterTraining.sol\":4809:4815  i <= 6 */\n      0xff\n      and\n      gt\n        /* \"contracts/DisasterTraining.sol\":4791:4908  for (uint8 i = 1; i <= 6; i++) {... */\n      tag_162\n      jumpi\n        /* \"contracts/DisasterTraining.sol\":4850:4866  trainerSchedules */\n      0x03\n        /* \"contracts/DisasterTraining.sol\":4850:4875  trainerSchedules[trainer] */\n      0x00\n        /* \"contracts/DisasterTraining.sol\":4867:4874  trainer */\n      dup6\n        /* \"contracts/DisasterTraining.sol\":4850:4875  trainerSchedules[trainer] */\n      0xffffffffffffffffffffffffffffffffffffffff\n      and\n      0xffffffffffffffffffffffffffffffffffffffff\n      and\n      dup2\n      mstore\n      0x20\n      add\n      swap1\n      dup2\n      mstore\n      0x20\n      add\n      0x00\n      keccak256\n        /* \"contracts/DisasterTraining.sol\":4850:4893  trainerSchedules[trainer].slotToParticipant */\n      0x00\n      add\n        /* \"contracts/DisasterTraining.sol\":4850:4896  trainerSchedules[trainer].slotToParticipant[i] */\n      0x00\n        /* \"contracts/DisasterTraining.sol\":4894:4895  i */\n      dup3\n        /* \"contracts/DisasterTraining.sol\":4850:4896  trainerSchedules[trainer].slotToParticipant[i] */\n      0xff\n      and\n      0xff\n      and\n      dup2\n      mstore\n      0x20\n      add\n      swap1\n      dup2\n      mstore\n      0x20\n      add\n      0x00\n      keccak256\n      0x00\n      swap1\n      sload\n      swap1\n      0x0100\n      exp\n      swap1\n      div\n      0xffffffffffffffffffffffffffffffffffffffff\n      and\n        /* \"contracts/DisasterTraining.sol\":4837:4842  slots */\n      dup3\n        /* \"contracts/DisasterTraining.sol\":4845:4846  1 */\n      0x01\n        /* \"contracts/DisasterTraining.sol\":4843:4844  i */\n      dup4\n        /* \"contracts/DisasterTraining.sol\":4843:4846  i-1 */\n      tag_164\n      swap2\n      swap1\n      tag_165\n      jump\t// in\n    tag_164:\n        /* \"contracts/DisasterTraining.sol\":4837:4847  slots[i-1] */\n      0xff\n      and\n      0x06\n      dup2\n      lt\n      tag_166\n      jumpi\n      tag_167\n      tag_168\n      jump\t// in\n    tag_167:\n    tag_166:\n      0x20\n      mul\n      add\n        /* \"contracts/DisasterTraining.sol\":4837:4896  slots[i-1] = trainerSchedules[trainer].slotToParticipant[i] */\n      swap1\n      0xffffffffffffffffffffffffffffffffffffffff\n      and\n      swap1\n      dup2\n      0xffffffffffffffffffffffffffffffffffffffff\n      and\n      dup2\n      mstore\n      pop\n      pop\n        /* \"contracts/DisasterTraining.sol\":4817:4820  i++ */\n      dup1\n      dup1\n      tag_169\n      swap1\n      tag_170\n      jump\t// in\n    tag_169:\n      swap2\n      pop\n      pop\n        /* \"contracts/DisasterTraining.sol\":4791:4908  for (uint8 i = 1; i <= 6; i++) {... */\n      jump(tag_161)\n    tag_162:\n      pop\n        /* \"contracts/DisasterTraining.sol\":4925:4930  slots */\n      dup1\n        /* \"contracts/DisasterTraining.sol\":4918:4930  return slots */\n      swap2\n      pop\n      pop\n        /* \"contracts/DisasterTraining.sol\":4585:4938  function viewTrainerSchedule(address trainer) public view returns (address[6] memory) {... */\n      swap2\n      swap1\n      pop\n      jump\t// out\n        /* \"contracts/DisasterTraining.sol\":1750:2023  function registerAsTrainer() external {... */\n    tag_54:\n        /* \"contracts/DisasterTraining.sol\":1832:1845  UserRole.None */\n      0x00\n        /* \"contracts/DisasterTraining.sol\":1807:1845  userRoles[msg.sender] == UserRole.None */\n      0x03\n      dup2\n      gt\n      iszero\n      tag_172\n      jumpi\n      tag_173\n      tag_85\n      jump\t// in\n    tag_173:\n    tag_172:\n        /* \"contracts/DisasterTraining.sol\":1807:1816  userRoles */\n      0x00\n        /* \"contracts/DisasterTraining.sol\":1807:1828  userRoles[msg.sender] */\n      0x00\n        /* \"contracts/DisasterTraining.sol\":1817:1827  msg.sender */\n      caller\n        /* \"contracts/DisasterTraining.sol\":1807:1828  userRoles[msg.sender] */\n      0xffffffffffffffffffffffffffffffffffffffff\n      and\n      0xffffffffffffffffffffffffffffffffffffffff\n      and\n      dup2\n      mstore\n      0x20\n      add\n      swap1\n      dup2\n      mstore\n      0x20\n      add\n      0x00\n      keccak256\n      0x00\n      swap1\n      sload\n      swap1\n      0x0100\n      exp\n      swap1\n      div\n      0xff\n      and\n        /* \"contracts/DisasterTraining.sol\":1807:1845  userRoles[msg.sender] == UserRole.None */\n      0x03\n      dup2\n      gt\n      iszero\n      tag_174\n      jumpi\n      tag_175\n      tag_85\n      jump\t// in\n    tag_175:\n    tag_174:\n      eq\n        /* \"contracts/DisasterTraining.sol\":1799:1868  require(userRoles[msg.sender] == UserRole.None, \"Already registered\") */\n      tag_176\n      jumpi\n      mload(0x40)\n      0x08c379a000000000000000000000000000000000000000000000000000000000\n      dup2\n      mstore\n      0x04\n      add\n      tag_177\n      swap1\n      tag_90\n      jump\t// in\n    tag_177:\n      mload(0x40)\n      dup1\n      swap2\n      sub\n      swap1\n      revert\n    tag_176:\n        /* \"contracts/DisasterTraining.sol\":1903:1919  UserRole.Trainer */\n      0x02\n        /* \"contracts/DisasterTraining.sol\":1879:1888  userRoles */\n      0x00\n        /* \"contracts/DisasterTraining.sol\":1879:1900  userRoles[msg.sender] */\n      0x00\n        /* \"contracts/DisasterTraining.sol\":1889:1899  msg.sender */\n      caller\n        /* \"contracts/DisasterTraining.sol\":1879:1900  userRoles[msg.sender] */\n      0xffffffffffffffffffffffffffffffffffffffff\n      and\n      0xffffffffffffffffffffffffffffffffffffffff\n      and\n      dup2\n      mstore\n      0x20\n      add\n      swap1\n      dup2\n      mstore\n      0x20\n      add\n      0x00\n      keccak256\n      0x00\n        /* \"contracts/DisasterTraining.sol\":1879:1919  userRoles[msg.sender] = UserRole.Trainer */\n      0x0100\n      exp\n      dup2\n      sload\n      dup2\n      0xff\n      mul\n      not\n      and\n      swap1\n      dup4\n      0x03\n      dup2\n      gt\n      iszero\n      tag_178\n      jumpi\n      tag_179\n      tag_85\n      jump\t// in\n    tag_179:\n    tag_178:\n      mul\n      or\n      swap1\n      sstore\n      pop\n        /* \"contracts/DisasterTraining.sol\":1986:2015  TrainerRegistered(msg.sender) */\n      0x672ed10db1686d24f0498d7222ee16112f36c3df1825007916800893ca842a12\n        /* \"contracts/DisasterTraining.sol\":2004:2014  msg.sender */\n      caller\n        /* \"contracts/DisasterTraining.sol\":1986:2015  TrainerRegistered(msg.sender) */\n      mload(0x40)\n      tag_180\n      swap2\n      swap1\n      tag_26\n      jump\t// in\n    tag_180:\n      mload(0x40)\n      dup1\n      swap2\n      sub\n      swap1\n      log1\n        /* \"contracts/DisasterTraining.sol\":1750:2023  function registerAsTrainer() external {... */\n      jump\t// out\n        /* \"contracts/DisasterTraining.sol\":3871:4543  function bookTrainingSlot(address trainer, uint8 slotIndex) external payable onlyParticipant {... */\n    tag_58:\n        /* \"contracts/DisasterTraining.sol\":1384:1404  UserRole.Participant */\n      0x03\n        /* \"contracts/DisasterTraining.sol\":1359:1404  userRoles[msg.sender] == UserRole.Participant */\n      dup1\n      dup2\n      gt\n      iszero\n      tag_182\n      jumpi\n      tag_183\n      tag_85\n      jump\t// in\n    tag_183:\n    tag_182:\n        /* \"contracts/DisasterTraining.sol\":1359:1368  userRoles */\n      0x00\n        /* \"contracts/DisasterTraining.sol\":1359:1380  userRoles[msg.sender] */\n      0x00\n        /* \"contracts/DisasterTraining.sol\":1369:1379  msg.sender */\n      caller\n        /* \"contracts/DisasterTraining.sol\":1359:1380  userRoles[msg.sender] */\n      0xffffffffffffffffffffffffffffffffffffffff\n      and\n      0xffffffffffffffffffffffffffffffffffffffff\n      and\n      dup2\n      mstore\n      0x20\n      add\n      swap1\n      dup2\n      mstore\n      0x20\n      add\n      0x00\n      keccak256\n      0x00\n      swap1\n      sload\n      swap1\n      0x0100\n      exp\n      swap1\n      div\n      0xff\n      and\n        /* \"contracts/DisasterTraining.sol\":1359:1404  userRoles[msg.sender] == UserRole.Participant */\n      0x03\n      dup2\n      gt\n      iszero\n      tag_184\n      jumpi\n      tag_185\n      tag_85\n      jump\t// in\n    tag_185:\n    tag_184:\n      eq\n        /* \"contracts/DisasterTraining.sol\":1351:1433  require(userRoles[msg.sender] == UserRole.Participant, \"Only Participant allowed\") */\n      tag_186\n      jumpi\n      mload(0x40)\n      0x08c379a000000000000000000000000000000000000000000000000000000000\n      dup2\n      mstore\n      0x04\n      add\n      tag_187\n      swap1\n      tag_188\n      jump\t// in\n    tag_187:\n      mload(0x40)\n      dup1\n      swap2\n      sub\n      swap1\n      revert\n    tag_186:\n        /* \"contracts/DisasterTraining.sol\":4005:4021  UserRole.Trainer */\n      0x02\n        /* \"contracts/DisasterTraining.sol\":3983:4021  userRoles[trainer] == UserRole.Trainer */\n      0x03\n      dup2\n      gt\n      iszero\n      tag_190\n      jumpi\n      tag_191\n      tag_85\n      jump\t// in\n    tag_191:\n    tag_190:\n        /* \"contracts/DisasterTraining.sol\":3983:3992  userRoles */\n      0x00\n        /* \"contracts/DisasterTraining.sol\":3983:4001  userRoles[trainer] */\n      0x00\n        /* \"contracts/DisasterTraining.sol\":3993:4000  trainer */\n      dup5\n        /* \"contracts/DisasterTraining.sol\":3983:4001  userRoles[trainer] */\n      0xffffffffffffffffffffffffffffffffffffffff\n      and\n      0xffffffffffffffffffffffffffffffffffffffff\n      and\n      dup2\n      mstore\n      0x20\n      add\n      swap1\n      dup2\n      mstore\n      0x20\n      add\n      0x00\n      keccak256\n      0x00\n      swap1\n      sload\n      swap1\n      0x0100\n      exp\n      swap1\n      div\n      0xff\n      and\n        /* \"contracts/DisasterTraining.sol\":3983:4021  userRoles[trainer] == UserRole.Trainer */\n      0x03\n      dup2\n      gt\n      iszero\n      tag_192\n      jumpi\n      tag_193\n      tag_85\n      jump\t// in\n    tag_193:\n    tag_192:\n      eq\n        /* \"contracts/DisasterTraining.sol\":3975:4045  require(userRoles[trainer] == UserRole.Trainer, \"Not a valid trainer\") */\n      tag_194\n      jumpi\n      mload(0x40)\n      0x08c379a000000000000000000000000000000000000000000000000000000000\n      dup2\n      mstore\n      0x04\n      add\n      tag_195\n      swap1\n      tag_196\n      jump\t// in\n    tag_195:\n      mload(0x40)\n      dup1\n      swap2\n      sub\n      swap1\n      revert\n    tag_194:\n        /* \"contracts/DisasterTraining.sol\":4077:4078  1 */\n      0x01\n        /* \"contracts/DisasterTraining.sol\":4064:4073  slotIndex */\n      dup2\n        /* \"contracts/DisasterTraining.sol\":4064:4078  slotIndex >= 1 */\n      0xff\n      and\n      lt\n      iszero\n        /* \"contracts/DisasterTraining.sol\":4064:4096  slotIndex >= 1 && slotIndex <= 6 */\n      dup1\n      iszero\n      tag_197\n      jumpi\n      pop\n        /* \"contracts/DisasterTraining.sol\":4095:4096  6 */\n      0x06\n        /* \"contracts/DisasterTraining.sol\":4082:4091  slotIndex */\n      dup2\n        /* \"contracts/DisasterTraining.sol\":4082:4096  slotIndex <= 6 */\n      0xff\n      and\n      gt\n      iszero\n        /* \"contracts/DisasterTraining.sol\":4064:4096  slotIndex >= 1 && slotIndex <= 6 */\n    tag_197:\n        /* \"contracts/DisasterTraining.sol\":4056:4113  require(slotIndex >= 1 && slotIndex <= 6, \"Invalid slot\") */\n      tag_198\n      jumpi\n      mload(0x40)\n      0x08c379a000000000000000000000000000000000000000000000000000000000\n      dup2\n      mstore\n      0x04\n      add\n      tag_199\n      swap1\n      tag_200\n      jump\t// in\n    tag_199:\n      mload(0x40)\n      dup1\n      swap2\n      sub\n      swap1\n      revert\n    tag_198:\n        /* \"contracts/DisasterTraining.sol\":280:291  0.025 ether */\n      0x58d15e17628000\n        /* \"contracts/DisasterTraining.sol\":4132:4141  msg.value */\n      callvalue\n        /* \"contracts/DisasterTraining.sol\":4132:4156  msg.value == BOOKING_FEE */\n      eq\n        /* \"contracts/DisasterTraining.sol\":4124:4174  require(msg.value == BOOKING_FEE, \"Incorrect fee\") */\n      tag_201\n      jumpi\n      mload(0x40)\n      0x08c379a000000000000000000000000000000000000000000000000000000000\n      dup2\n      mstore\n      0x04\n      add\n      tag_202\n      swap1\n      tag_203\n      jump\t// in\n    tag_202:\n      mload(0x40)\n      dup1\n      swap2\n      sub\n      swap1\n      revert\n    tag_201:\n        /* \"contracts/DisasterTraining.sol\":4185:4211  TrainerSchedule storage ts */\n      0x00\n        /* \"contracts/DisasterTraining.sol\":4214:4230  trainerSchedules */\n      0x03\n        /* \"contracts/DisasterTraining.sol\":4214:4239  trainerSchedules[trainer] */\n      0x00\n        /* \"contracts/DisasterTraining.sol\":4231:4238  trainer */\n      dup5\n        /* \"contracts/DisasterTraining.sol\":4214:4239  trainerSchedules[trainer] */\n      0xffffffffffffffffffffffffffffffffffffffff\n      and\n      0xffffffffffffffffffffffffffffffffffffffff\n      and\n      dup2\n      mstore\n      0x20\n      add\n      swap1\n      dup2\n      mstore\n      0x20\n      add\n      0x00\n      keccak256\n        /* \"contracts/DisasterTraining.sol\":4185:4239  TrainerSchedule storage ts = trainerSchedules[trainer] */\n      swap1\n      pop\n        /* \"contracts/DisasterTraining.sol\":4301:4302  0 */\n      0x00\n        /* \"contracts/DisasterTraining.sol\":4258:4303  ts.slotToParticipant[slotIndex] == address(0) */\n      0xffffffffffffffffffffffffffffffffffffffff\n      and\n        /* \"contracts/DisasterTraining.sol\":4258:4260  ts */\n      dup2\n        /* \"contracts/DisasterTraining.sol\":4258:4278  ts.slotToParticipant */\n      0x00\n      add\n        /* \"contracts/DisasterTraining.sol\":4258:4289  ts.slotToParticipant[slotIndex] */\n      0x00\n        /* \"contracts/DisasterTraining.sol\":4279:4288  slotIndex */\n      dup5\n        /* \"contracts/DisasterTraining.sol\":4258:4289  ts.slotToParticipant[slotIndex] */\n      0xff\n      and\n      0xff\n      and\n      dup2\n      mstore\n      0x20\n      add\n      swap1\n      dup2\n      mstore\n      0x20\n      add\n      0x00\n      keccak256\n      0x00\n      swap1\n      sload\n      swap1\n      0x0100\n      exp\n      swap1\n      div\n      0xffffffffffffffffffffffffffffffffffffffff\n      and\n        /* \"contracts/DisasterTraining.sol\":4258:4303  ts.slotToParticipant[slotIndex] == address(0) */\n      0xffffffffffffffffffffffffffffffffffffffff\n      and\n      eq\n        /* \"contracts/DisasterTraining.sol\":4250:4330  require(ts.slotToParticipant[slotIndex] == address(0), \"Trainer already booked\") */\n      tag_204\n      jumpi\n      mload(0x40)\n      0x08c379a000000000000000000000000000000000000000000000000000000000\n      dup2\n      mstore\n      0x04\n      add\n      tag_205\n      swap1\n      tag_206\n      jump\t// in\n    tag_205:\n      mload(0x40)\n      dup1\n      swap2\n      sub\n      swap1\n      revert\n    tag_204:\n        /* \"contracts/DisasterTraining.sol\":4377:4387  msg.sender */\n      caller\n        /* \"contracts/DisasterTraining.sol\":4343:4345  ts */\n      dup2\n        /* \"contracts/DisasterTraining.sol\":4343:4363  ts.slotToParticipant */\n      0x00\n      add\n        /* \"contracts/DisasterTraining.sol\":4343:4374  ts.slotToParticipant[slotIndex] */\n      0x00\n        /* \"contracts/DisasterTraining.sol\":4364:4373  slotIndex */\n      dup5\n        /* \"contracts/DisasterTraining.sol\":4343:4374  ts.slotToParticipant[slotIndex] */\n      0xff\n      and\n      0xff\n      and\n      dup2\n      mstore\n      0x20\n      add\n      swap1\n      dup2\n      mstore\n      0x20\n      add\n      0x00\n      keccak256\n      0x00\n        /* \"contracts/DisasterTraining.sol\":4343:4387  ts.slotToParticipant[slotIndex] = msg.sender */\n      0x0100\n      exp\n      dup2\n      sload\n      dup2\n      0xffffffffffffffffffffffffffffffffffffffff\n      mul\n      not\n      and\n      swap1\n      dup4\n      0xffffffffffffffffffffffffffffffffffffffff\n      and\n      mul\n      or\n      swap1\n      sstore\n      pop\n        /* \"contracts/DisasterTraining.sol\":4441:4447  admins */\n      0x01\n        /* \"contracts/DisasterTraining.sol\":4448:4449  0 */\n      0x00\n        /* \"contracts/DisasterTraining.sol\":4441:4450  admins[0] */\n      dup2\n      sload\n      dup2\n      lt\n      tag_207\n      jumpi\n      tag_208\n      tag_168\n      jump\t// in\n    tag_208:\n    tag_207:\n      swap1\n      0x00\n      mstore\n      keccak256(0x00, 0x20)\n      add\n      0x00\n      swap1\n      sload\n      swap1\n      0x0100\n      exp\n      swap1\n      div\n      0xffffffffffffffffffffffffffffffffffffffff\n      and\n        /* \"contracts/DisasterTraining.sol\":4433:4460  payable(admins[0]).transfer */\n      0xffffffffffffffffffffffffffffffffffffffff\n      and\n        /* \"contracts/DisasterTraining.sol\":4433:4471  payable(admins[0]).transfer(msg.value) */\n      0x08fc\n        /* \"contracts/DisasterTraining.sol\":4461:4470  msg.value */\n      callvalue\n        /* \"contracts/DisasterTraining.sol\":4433:4471  payable(admins[0]).transfer(msg.value) */\n      swap1\n      dup2\n      iszero\n      mul\n      swap1\n      mload(0x40)\n      0x00\n      mload(0x40)\n      dup1\n      dup4\n      sub\n      dup2\n      dup6\n      dup9\n      dup9\n      call\n      swap4\n      pop\n      pop\n      pop\n      pop\n      iszero\n      dup1\n      iszero\n      tag_211\n      jumpi\n      returndatacopy(0x00, 0x00, returndatasize)\n      revert(0x00, returndatasize)\n    tag_211:\n      pop\n        /* \"contracts/DisasterTraining.sol\":4489:4535  TrainingBooked(msg.sender, trainer, slotIndex) */\n      0xe487069c0cb20caa4bb3232e0889f0368a1e4f6ef2640e563c06c1236ced95ac\n        /* \"contracts/DisasterTraining.sol\":4504:4514  msg.sender */\n      caller\n        /* \"contracts/DisasterTraining.sol\":4516:4523  trainer */\n      dup5\n        /* \"contracts/DisasterTraining.sol\":4525:4534  slotIndex */\n      dup5\n        /* \"contracts/DisasterTraining.sol\":4489:4535  TrainingBooked(msg.sender, trainer, slotIndex) */\n      mload(0x40)\n      tag_212\n      swap4\n      swap3\n      swap2\n      swap1\n      tag_213\n      jump\t// in\n    tag_212:\n      mload(0x40)\n      dup1\n      swap2\n      sub\n      swap1\n      log1\n        /* \"contracts/DisasterTraining.sol\":3964:4543  {... */\n      pop\n        /* \"contracts/DisasterTraining.sol\":3871:4543  function bookTrainingSlot(address trainer, uint8 slotIndex) external payable onlyParticipant {... */\n      pop\n      pop\n      jump\t// out\n        /* \"contracts/DisasterTraining.sol\":245:291  uint public constant BOOKING_FEE = 0.025 ether */\n    tag_61:\n        /* \"contracts/DisasterTraining.sol\":280:291  0.025 ether */\n      0x58d15e17628000\n        /* \"contracts/DisasterTraining.sol\":245:291  uint public constant BOOKING_FEE = 0.025 ether */\n      dup2\n      jump\t// out\n    tag_151:\n      mload(0x40)\n      dup1\n      0xc0\n      add\n      0x40\n      mstore\n      dup1\n      0x06\n      swap1\n      0x20\n      dup3\n      mul\n      dup1\n      calldatasize\n      dup4\n      calldatacopy\n      dup1\n      dup3\n      add\n      swap2\n      pop\n      pop\n      swap1\n      pop\n      pop\n      swap1\n      jump\t// out\n        /* \"#utility.yul\":88:205   */\n    tag_215:\n        /* \"#utility.yul\":197:198   */\n      0x00\n        /* \"#utility.yul\":194:195   */\n      0x00\n        /* \"#utility.yul\":187:199   */\n      revert\n        /* \"#utility.yul\":211:328   */\n    tag_216:\n        /* \"#utility.yul\":320:321   */\n      0x00\n        /* \"#utility.yul\":317:318   */\n      0x00\n        /* \"#utility.yul\":310:322   */\n      revert\n        /* \"#utility.yul\":334:460   */\n    tag_217:\n        /* \"#utility.yul\":371:378   */\n      0x00\n        /* \"#utility.yul\":411:453   */\n      0xffffffffffffffffffffffffffffffffffffffff\n        /* \"#utility.yul\":404:409   */\n      dup3\n        /* \"#utility.yul\":400:454   */\n      and\n        /* \"#utility.yul\":389:454   */\n      swap1\n      pop\n        /* \"#utility.yul\":334:460   */\n      swap2\n      swap1\n      pop\n      jump\t// out\n        /* \"#utility.yul\":466:562   */\n    tag_218:\n        /* \"#utility.yul\":503:510   */\n      0x00\n        /* \"#utility.yul\":532:556   */\n      tag_310\n        /* \"#utility.yul\":550:555   */\n      dup3\n        /* \"#utility.yul\":532:556   */\n      tag_217\n      jump\t// in\n    tag_310:\n        /* \"#utility.yul\":521:556   */\n      swap1\n      pop\n        /* \"#utility.yul\":466:562   */\n      swap2\n      swap1\n      pop\n      jump\t// out\n        /* \"#utility.yul\":568:690   */\n    tag_219:\n        /* \"#utility.yul\":641:665   */\n      tag_312\n        /* \"#utility.yul\":659:664   */\n      dup2\n        /* \"#utility.yul\":641:665   */\n      tag_218\n      jump\t// in\n    tag_312:\n        /* \"#utility.yul\":634:639   */\n      dup2\n        /* \"#utility.yul\":631:666   */\n      eq\n        /* \"#utility.yul\":621:684   */\n      tag_313\n      jumpi\n        /* \"#utility.yul\":680:681   */\n      0x00\n        /* \"#utility.yul\":677:678   */\n      0x00\n        /* \"#utility.yul\":670:682   */\n      revert\n        /* \"#utility.yul\":621:684   */\n    tag_313:\n        /* \"#utility.yul\":568:690   */\n      pop\n      jump\t// out\n        /* \"#utility.yul\":696:835   */\n    tag_220:\n        /* \"#utility.yul\":742:747   */\n      0x00\n        /* \"#utility.yul\":780:786   */\n      dup2\n        /* \"#utility.yul\":767:787   */\n      calldataload\n        /* \"#utility.yul\":758:787   */\n      swap1\n      pop\n        /* \"#utility.yul\":796:829   */\n      tag_315\n        /* \"#utility.yul\":823:828   */\n      dup2\n        /* \"#utility.yul\":796:829   */\n      tag_219\n      jump\t// in\n    tag_315:\n        /* \"#utility.yul\":696:835   */\n      swap3\n      swap2\n      pop\n      pop\n      jump\t// out\n        /* \"#utility.yul\":841:1170   */\n    tag_16:\n        /* \"#utility.yul\":900:906   */\n      0x00\n        /* \"#utility.yul\":949:951   */\n      0x20\n        /* \"#utility.yul\":937:946   */\n      dup3\n        /* \"#utility.yul\":928:935   */\n      dup5\n        /* \"#utility.yul\":924:947   */\n      sub\n        /* \"#utility.yul\":920:952   */\n      slt\n        /* \"#utility.yul\":917:1036   */\n      iszero\n      tag_317\n      jumpi\n        /* \"#utility.yul\":955:1034   */\n      tag_318\n      tag_215\n      jump\t// in\n    tag_318:\n        /* \"#utility.yul\":917:1036   */\n    tag_317:\n        /* \"#utility.yul\":1075:1076   */\n      0x00\n        /* \"#utility.yul\":1100:1153   */\n      tag_319\n        /* \"#utility.yul\":1145:1152   */\n      dup5\n        /* \"#utility.yul\":1136:1142   */\n      dup3\n        /* \"#utility.yul\":1125:1134   */\n      dup6\n        /* \"#utility.yul\":1121:1143   */\n      add\n        /* \"#utility.yul\":1100:1153   */\n      tag_220\n      jump\t// in\n    tag_319:\n        /* \"#utility.yul\":1090:1153   */\n      swap2\n      pop\n        /* \"#utility.yul\":1046:1163   */\n      pop\n        /* \"#utility.yul\":841:1170   */\n      swap3\n      swap2\n      pop\n      pop\n      jump\t// out\n        /* \"#utility.yul\":1176:1253   */\n    tag_221:\n        /* \"#utility.yul\":1213:1220   */\n      0x00\n        /* \"#utility.yul\":1242:1247   */\n      dup2\n        /* \"#utility.yul\":1231:1247   */\n      swap1\n      pop\n        /* \"#utility.yul\":1176:1253   */\n      swap2\n      swap1\n      pop\n      jump\t// out\n        /* \"#utility.yul\":1259:1377   */\n    tag_222:\n        /* \"#utility.yul\":1346:1370   */\n      tag_322\n        /* \"#utility.yul\":1364:1369   */\n      dup2\n        /* \"#utility.yul\":1346:1370   */\n      tag_221\n      jump\t// in\n    tag_322:\n        /* \"#utility.yul\":1341:1344   */\n      dup3\n        /* \"#utility.yul\":1334:1371   */\n      mstore\n        /* \"#utility.yul\":1259:1377   */\n      pop\n      pop\n      jump\t// out\n        /* \"#utility.yul\":1383:1482   */\n    tag_223:\n        /* \"#utility.yul\":1435:1441   */\n      0x00\n        /* \"#utility.yul\":1469:1474   */\n      dup2\n        /* \"#utility.yul\":1463:1475   */\n      mload\n        /* \"#utility.yul\":1453:1475   */\n      swap1\n      pop\n        /* \"#utility.yul\":1383:1482   */\n      swap2\n      swap1\n      pop\n      jump\t// out\n        /* \"#utility.yul\":1488:1657   */\n    tag_224:\n        /* \"#utility.yul\":1572:1583   */\n      0x00\n        /* \"#utility.yul\":1606:1612   */\n      dup3\n        /* \"#utility.yul\":1601:1604   */\n      dup3\n        /* \"#utility.yul\":1594:1613   */\n      mstore\n        /* \"#utility.yul\":1646:1650   */\n      0x20\n        /* \"#utility.yul\":1641:1644   */\n      dup3\n        /* \"#utility.yul\":1637:1651   */\n      add\n        /* \"#utility.yul\":1622:1651   */\n      swap1\n      pop\n        /* \"#utility.yul\":1488:1657   */\n      swap3\n      swap2\n      pop\n      pop\n      jump\t// out\n        /* \"#utility.yul\":1663:1802   */\n    tag_225:\n        /* \"#utility.yul\":1752:1758   */\n      dup3\n        /* \"#utility.yul\":1747:1750   */\n      dup2\n        /* \"#utility.yul\":1742:1745   */\n      dup4\n        /* \"#utility.yul\":1736:1759   */\n      mcopy\n        /* \"#utility.yul\":1793:1794   */\n      0x00\n        /* \"#utility.yul\":1784:1790   */\n      dup4\n        /* \"#utility.yul\":1779:1782   */\n      dup4\n        /* \"#utility.yul\":1775:1791   */\n      add\n        /* \"#utility.yul\":1768:1795   */\n      mstore\n        /* \"#utility.yul\":1663:1802   */\n      pop\n      pop\n      pop\n      jump\t// out\n        /* \"#utility.yul\":1808:1910   */\n    tag_226:\n        /* \"#utility.yul\":1849:1855   */\n      0x00\n        /* \"#utility.yul\":1900:1902   */\n      0x1f\n        /* \"#utility.yul\":1896:1903   */\n      not\n        /* \"#utility.yul\":1891:1893   */\n      0x1f\n        /* \"#utility.yul\":1884:1889   */\n      dup4\n        /* \"#utility.yul\":1880:1894   */\n      add\n        /* \"#utility.yul\":1876:1904   */\n      and\n        /* \"#utility.yul\":1866:1904   */\n      swap1\n      pop\n        /* \"#utility.yul\":1808:1910   */\n      swap2\n      swap1\n      pop\n      jump\t// out\n        /* \"#utility.yul\":1916:2293   */\n    tag_227:\n        /* \"#utility.yul\":2004:2007   */\n      0x00\n        /* \"#utility.yul\":2032:2071   */\n      tag_328\n        /* \"#utility.yul\":2065:2070   */\n      dup3\n        /* \"#utility.yul\":2032:2071   */\n      tag_223\n      jump\t// in\n    tag_328:\n        /* \"#utility.yul\":2087:2158   */\n      tag_329\n        /* \"#utility.yul\":2151:2157   */\n      dup2\n        /* \"#utility.yul\":2146:2149   */\n      dup6\n        /* \"#utility.yul\":2087:2158   */\n      tag_224\n      jump\t// in\n    tag_329:\n        /* \"#utility.yul\":2080:2158   */\n      swap4\n      pop\n        /* \"#utility.yul\":2167:2232   */\n      tag_330\n        /* \"#utility.yul\":2225:2231   */\n      dup2\n        /* \"#utility.yul\":2220:2223   */\n      dup6\n        /* \"#utility.yul\":2213:2217   */\n      0x20\n        /* \"#utility.yul\":2206:2211   */\n      dup7\n        /* \"#utility.yul\":2202:2218   */\n      add\n        /* \"#utility.yul\":2167:2232   */\n      tag_225\n      jump\t// in\n    tag_330:\n        /* \"#utility.yul\":2257:2286   */\n      tag_331\n        /* \"#utility.yul\":2279:2285   */\n      dup2\n        /* \"#utility.yul\":2257:2286   */\n      tag_226\n      jump\t// in\n    tag_331:\n        /* \"#utility.yul\":2252:2255   */\n      dup5\n        /* \"#utility.yul\":2248:2287   */\n      add\n        /* \"#utility.yul\":2241:2287   */\n      swap2\n      pop\n        /* \"#utility.yul\":2008:2293   */\n      pop\n        /* \"#utility.yul\":1916:2293   */\n      swap3\n      swap2\n      pop\n      pop\n      jump\t// out\n        /* \"#utility.yul\":2299:2479   */\n    tag_85:\n        /* \"#utility.yul\":2347:2424   */\n      0x4e487b7100000000000000000000000000000000000000000000000000000000\n        /* \"#utility.yul\":2344:2345   */\n      0x00\n        /* \"#utility.yul\":2337:2425   */\n      mstore\n        /* \"#utility.yul\":2444:2448   */\n      0x21\n        /* \"#utility.yul\":2441:2442   */\n      0x04\n        /* \"#utility.yul\":2434:2449   */\n      mstore\n        /* \"#utility.yul\":2468:2472   */\n      0x24\n        /* \"#utility.yul\":2465:2466   */\n      0x00\n        /* \"#utility.yul\":2458:2473   */\n      revert\n        /* \"#utility.yul\":2485:2609   */\n    tag_228:\n        /* \"#utility.yul\":2577:2578   */\n      0x04\n        /* \"#utility.yul\":2570:2575   */\n      dup2\n        /* \"#utility.yul\":2567:2579   */\n      lt\n        /* \"#utility.yul\":2557:2603   */\n      tag_334\n      jumpi\n        /* \"#utility.yul\":2583:2601   */\n      tag_335\n      tag_85\n      jump\t// in\n    tag_335:\n        /* \"#utility.yul\":2557:2603   */\n    tag_334:\n        /* \"#utility.yul\":2485:2609   */\n      pop\n      jump\t// out\n        /* \"#utility.yul\":2615:2764   */\n    tag_229:\n        /* \"#utility.yul\":2671:2678   */\n      0x00\n        /* \"#utility.yul\":2700:2705   */\n      dup2\n        /* \"#utility.yul\":2689:2705   */\n      swap1\n      pop\n        /* \"#utility.yul\":2706:2758   */\n      tag_337\n        /* \"#utility.yul\":2752:2757   */\n      dup3\n        /* \"#utility.yul\":2706:2758   */\n      tag_228\n      jump\t// in\n    tag_337:\n        /* \"#utility.yul\":2615:2764   */\n      swap2\n      swap1\n      pop\n      jump\t// out\n        /* \"#utility.yul\":2770:2919   */\n    tag_230:\n        /* \"#utility.yul\":2837:2846   */\n      0x00\n        /* \"#utility.yul\":2870:2913   */\n      tag_339\n        /* \"#utility.yul\":2907:2912   */\n      dup3\n        /* \"#utility.yul\":2870:2913   */\n      tag_229\n      jump\t// in\n    tag_339:\n        /* \"#utility.yul\":2857:2913   */\n      swap1\n      pop\n        /* \"#utility.yul\":2770:2919   */\n      swap2\n      swap1\n      pop\n      jump\t// out\n        /* \"#utility.yul\":2925:3090   */\n    tag_231:\n        /* \"#utility.yul\":3029:3083   */\n      tag_341\n        /* \"#utility.yul\":3077:3082   */\n      dup2\n        /* \"#utility.yul\":3029:3083   */\n      tag_230\n      jump\t// in\n    tag_341:\n        /* \"#utility.yul\":3024:3027   */\n      dup3\n        /* \"#utility.yul\":3017:3084   */\n      mstore\n        /* \"#utility.yul\":2925:3090   */\n      pop\n      pop\n      jump\t// out\n        /* \"#utility.yul\":3096:3186   */\n    tag_232:\n        /* \"#utility.yul\":3130:3137   */\n      0x00\n        /* \"#utility.yul\":3173:3178   */\n      dup2\n        /* \"#utility.yul\":3166:3179   */\n      iszero\n        /* \"#utility.yul\":3159:3180   */\n      iszero\n        /* \"#utility.yul\":3148:3180   */\n      swap1\n      pop\n        /* \"#utility.yul\":3096:3186   */\n      swap2\n      swap1\n      pop\n      jump\t// out\n        /* \"#utility.yul\":3192:3301   */\n    tag_233:\n        /* \"#utility.yul\":3273:3294   */\n      tag_344\n        /* \"#utility.yul\":3288:3293   */\n      dup2\n        /* \"#utility.yul\":3273:3294   */\n      tag_232\n      jump\t// in\n    tag_344:\n        /* \"#utility.yul\":3268:3271   */\n      dup3\n        /* \"#utility.yul\":3261:3295   */\n      mstore\n        /* \"#utility.yul\":3192:3301   */\n      pop\n      pop\n      jump\t// out\n        /* \"#utility.yul\":3307:3425   */\n    tag_234:\n        /* \"#utility.yul\":3394:3418   */\n      tag_346\n        /* \"#utility.yul\":3412:3417   */\n      dup2\n        /* \"#utility.yul\":3394:3418   */\n      tag_218\n      jump\t// in\n    tag_346:\n        /* \"#utility.yul\":3389:3392   */\n      dup3\n        /* \"#utility.yul\":3382:3419   */\n      mstore\n        /* \"#utility.yul\":3307:3425   */\n      pop\n      pop\n      jump\t// out\n        /* \"#utility.yul\":3431:4723   */\n    tag_19:\n        /* \"#utility.yul\":3791:3795   */\n      0x00\n        /* \"#utility.yul\":3829:3832   */\n      0x0100\n        /* \"#utility.yul\":3818:3827   */\n      dup3\n        /* \"#utility.yul\":3814:3833   */\n      add\n        /* \"#utility.yul\":3806:3833   */\n      swap1\n      pop\n        /* \"#utility.yul\":3843:3914   */\n      tag_348\n        /* \"#utility.yul\":3911:3912   */\n      0x00\n        /* \"#utility.yul\":3900:3909   */\n      dup4\n        /* \"#utility.yul\":3896:3913   */\n      add\n        /* \"#utility.yul\":3887:3893   */\n      dup12\n        /* \"#utility.yul\":3843:3914   */\n      tag_222\n      jump\t// in\n    tag_348:\n        /* \"#utility.yul\":3961:3970   */\n      dup2\n        /* \"#utility.yul\":3955:3959   */\n      dup2\n        /* \"#utility.yul\":3951:3971   */\n      sub\n        /* \"#utility.yul\":3946:3948   */\n      0x20\n        /* \"#utility.yul\":3935:3944   */\n      dup4\n        /* \"#utility.yul\":3931:3949   */\n      add\n        /* \"#utility.yul\":3924:3972   */\n      mstore\n        /* \"#utility.yul\":3989:4067   */\n      tag_349\n        /* \"#utility.yul\":4062:4066   */\n      dup2\n        /* \"#utility.yul\":4053:4059   */\n      dup11\n        /* \"#utility.yul\":3989:4067   */\n      tag_227\n      jump\t// in\n    tag_349:\n        /* \"#utility.yul\":3981:4067   */\n      swap1\n      pop\n        /* \"#utility.yul\":4077:4149   */\n      tag_350\n        /* \"#utility.yul\":4145:4147   */\n      0x40\n        /* \"#utility.yul\":4134:4143   */\n      dup4\n        /* \"#utility.yul\":4130:4148   */\n      add\n        /* \"#utility.yul\":4121:4127   */\n      dup10\n        /* \"#utility.yul\":4077:4149   */\n      tag_222\n      jump\t// in\n    tag_350:\n        /* \"#utility.yul\":4196:4205   */\n      dup2\n        /* \"#utility.yul\":4190:4194   */\n      dup2\n        /* \"#utility.yul\":4186:4206   */\n      sub\n        /* \"#utility.yul\":4181:4183   */\n      0x60\n        /* \"#utility.yul\":4170:4179   */\n      dup4\n        /* \"#utility.yul\":4166:4184   */\n      add\n        /* \"#utility.yul\":4159:4207   */\n      mstore\n        /* \"#utility.yul\":4224:4302   */\n      tag_351\n        /* \"#utility.yul\":4297:4301   */\n      dup2\n        /* \"#utility.yul\":4288:4294   */\n      dup9\n        /* \"#utility.yul\":4224:4302   */\n      tag_227\n      jump\t// in\n    tag_351:\n        /* \"#utility.yul\":4216:4302   */\n      swap1\n      pop\n        /* \"#utility.yul\":4350:4359   */\n      dup2\n        /* \"#utility.yul\":4344:4348   */\n      dup2\n        /* \"#utility.yul\":4340:4360   */\n      sub\n        /* \"#utility.yul\":4334:4337   */\n      0x80\n        /* \"#utility.yul\":4323:4332   */\n      dup4\n        /* \"#utility.yul\":4319:4338   */\n      add\n        /* \"#utility.yul\":4312:4361   */\n      mstore\n        /* \"#utility.yul\":4378:4456   */\n      tag_352\n        /* \"#utility.yul\":4451:4455   */\n      dup2\n        /* \"#utility.yul\":4442:4448   */\n      dup8\n        /* \"#utility.yul\":4378:4456   */\n      tag_227\n      jump\t// in\n    tag_352:\n        /* \"#utility.yul\":4370:4456   */\n      swap1\n      pop\n        /* \"#utility.yul\":4466:4556   */\n      tag_353\n        /* \"#utility.yul\":4551:4554   */\n      0xa0\n        /* \"#utility.yul\":4540:4549   */\n      dup4\n        /* \"#utility.yul\":4536:4555   */\n      add\n        /* \"#utility.yul\":4527:4533   */\n      dup7\n        /* \"#utility.yul\":4466:4556   */\n      tag_231\n      jump\t// in\n    tag_353:\n        /* \"#utility.yul\":4566:4633   */\n      tag_354\n        /* \"#utility.yul\":4628:4631   */\n      0xc0\n        /* \"#utility.yul\":4617:4626   */\n      dup4\n        /* \"#utility.yul\":4613:4632   */\n      add\n        /* \"#utility.yul\":4604:4610   */\n      dup6\n        /* \"#utility.yul\":4566:4633   */\n      tag_233\n      jump\t// in\n    tag_354:\n        /* \"#utility.yul\":4643:4716   */\n      tag_355\n        /* \"#utility.yul\":4711:4714   */\n      0xe0\n        /* \"#utility.yul\":4700:4709   */\n      dup4\n        /* \"#utility.yul\":4696:4715   */\n      add\n        /* \"#utility.yul\":4687:4693   */\n      dup5\n        /* \"#utility.yul\":4643:4716   */\n      tag_234\n      jump\t// in\n    tag_355:\n        /* \"#utility.yul\":3431:4723   */\n      swap10\n      swap9\n      pop\n      pop\n      pop\n      pop\n      pop\n      pop\n      pop\n      pop\n      pop\n      jump\t// out\n        /* \"#utility.yul\":4729:4851   */\n    tag_235:\n        /* \"#utility.yul\":4802:4826   */\n      tag_357\n        /* \"#utility.yul\":4820:4825   */\n      dup2\n        /* \"#utility.yul\":4802:4826   */\n      tag_221\n      jump\t// in\n    tag_357:\n        /* \"#utility.yul\":4795:4800   */\n      dup2\n        /* \"#utility.yul\":4792:4827   */\n      eq\n        /* \"#utility.yul\":4782:4845   */\n      tag_358\n      jumpi\n        /* \"#utility.yul\":4841:4842   */\n      0x00\n        /* \"#utility.yul\":4838:4839   */\n      0x00\n        /* \"#utility.yul\":4831:4843   */\n      revert\n        /* \"#utility.yul\":4782:4845   */\n    tag_358:\n        /* \"#utility.yul\":4729:4851   */\n      pop\n      jump\t// out\n        /* \"#utility.yul\":4857:4996   */\n    tag_236:\n        /* \"#utility.yul\":4903:4908   */\n      0x00\n        /* \"#utility.yul\":4941:4947   */\n      dup2\n        /* \"#utility.yul\":4928:4948   */\n      calldataload\n        /* \"#utility.yul\":4919:4948   */\n      swap1\n      pop\n        /* \"#utility.yul\":4957:4990   */\n      tag_360\n        /* \"#utility.yul\":4984:4989   */\n      dup2\n        /* \"#utility.yul\":4957:4990   */\n      tag_235\n      jump\t// in\n    tag_360:\n        /* \"#utility.yul\":4857:4996   */\n      swap3\n      swap2\n      pop\n      pop\n      jump\t// out\n        /* \"#utility.yul\":5002:5331   */\n    tag_23:\n        /* \"#utility.yul\":5061:5067   */\n      0x00\n        /* \"#utility.yul\":5110:5112   */\n      0x20\n        /* \"#utility.yul\":5098:5107   */\n      dup3\n        /* \"#utility.yul\":5089:5096   */\n      dup5\n        /* \"#utility.yul\":5085:5108   */\n      sub\n        /* \"#utility.yul\":5081:5113   */\n      slt\n        /* \"#utility.yul\":5078:5197   */\n      iszero\n      tag_362\n      jumpi\n        /* \"#utility.yul\":5116:5195   */\n      tag_363\n      tag_215\n      jump\t// in\n    tag_363:\n        /* \"#utility.yul\":5078:5197   */\n    tag_362:\n        /* \"#utility.yul\":5236:5237   */\n      0x00\n        /* \"#utility.yul\":5261:5314   */\n      tag_364\n        /* \"#utility.yul\":5306:5313   */\n      dup5\n        /* \"#utility.yul\":5297:5303   */\n      dup3\n        /* \"#utility.yul\":5286:5295   */\n      dup6\n        /* \"#utility.yul\":5282:5304   */\n      add\n        /* \"#utility.yul\":5261:5314   */\n      tag_236\n      jump\t// in\n    tag_364:\n        /* \"#utility.yul\":5251:5314   */\n      swap2\n      pop\n        /* \"#utility.yul\":5207:5324   */\n      pop\n        /* \"#utility.yul\":5002:5331   */\n      swap3\n      swap2\n      pop\n      pop\n      jump\t// out\n        /* \"#utility.yul\":5337:5559   */\n    tag_26:\n        /* \"#utility.yul\":5430:5434   */\n      0x00\n        /* \"#utility.yul\":5468:5470   */\n      0x20\n        /* \"#utility.yul\":5457:5466   */\n      dup3\n        /* \"#utility.yul\":5453:5471   */\n      add\n        /* \"#utility.yul\":5445:5471   */\n      swap1\n      pop\n        /* \"#utility.yul\":5481:5552   */\n      tag_366\n        /* \"#utility.yul\":5549:5550   */\n      0x00\n        /* \"#utility.yul\":5538:5547   */\n      dup4\n        /* \"#utility.yul\":5534:5551   */\n      add\n        /* \"#utility.yul\":5525:5531   */\n      dup5\n        /* \"#utility.yul\":5481:5552   */\n      tag_234\n      jump\t// in\n    tag_366:\n        /* \"#utility.yul\":5337:5559   */\n      swap3\n      swap2\n      pop\n      pop\n      jump\t// out\n        /* \"#utility.yul\":5565:5651   */\n    tag_237:\n        /* \"#utility.yul\":5600:5607   */\n      0x00\n        /* \"#utility.yul\":5640:5644   */\n      0xff\n        /* \"#utility.yul\":5633:5638   */\n      dup3\n        /* \"#utility.yul\":5629:5645   */\n      and\n        /* \"#utility.yul\":5618:5645   */\n      swap1\n      pop\n        /* \"#utility.yul\":5565:5651   */\n      swap2\n      swap1\n      pop\n      jump\t// out\n        /* \"#utility.yul\":5657:5775   */\n    tag_238:\n        /* \"#utility.yul\":5728:5750   */\n      tag_369\n        /* \"#utility.yul\":5744:5749   */\n      dup2\n        /* \"#utility.yul\":5728:5750   */\n      tag_237\n      jump\t// in\n    tag_369:\n        /* \"#utility.yul\":5721:5726   */\n      dup2\n        /* \"#utility.yul\":5718:5751   */\n      eq\n        /* \"#utility.yul\":5708:5769   */\n      tag_370\n      jumpi\n        /* \"#utility.yul\":5765:5766   */\n      0x00\n        /* \"#utility.yul\":5762:5763   */\n      0x00\n        /* \"#utility.yul\":5755:5767   */\n      revert\n        /* \"#utility.yul\":5708:5769   */\n    tag_370:\n        /* \"#utility.yul\":5657:5775   */\n      pop\n      jump\t// out\n        /* \"#utility.yul\":5781:5916   */\n    tag_239:\n        /* \"#utility.yul\":5825:5830   */\n      0x00\n        /* \"#utility.yul\":5863:5869   */\n      dup2\n        /* \"#utility.yul\":5850:5870   */\n      calldataload\n        /* \"#utility.yul\":5841:5870   */\n      swap1\n      pop\n        /* \"#utility.yul\":5879:5910   */\n      tag_372\n        /* \"#utility.yul\":5904:5909   */\n      dup2\n        /* \"#utility.yul\":5879:5910   */\n      tag_238\n      jump\t// in\n    tag_372:\n        /* \"#utility.yul\":5781:5916   */\n      swap3\n      swap2\n      pop\n      pop\n      jump\t// out\n        /* \"#utility.yul\":5922:6038   */\n    tag_240:\n        /* \"#utility.yul\":5992:6013   */\n      tag_374\n        /* \"#utility.yul\":6007:6012   */\n      dup2\n        /* \"#utility.yul\":5992:6013   */\n      tag_232\n      jump\t// in\n    tag_374:\n        /* \"#utility.yul\":5985:5990   */\n      dup2\n        /* \"#utility.yul\":5982:6014   */\n      eq\n        /* \"#utility.yul\":5972:6032   */\n      tag_375\n      jumpi\n        /* \"#utility.yul\":6028:6029   */\n      0x00\n        /* \"#utility.yul\":6025:6026   */\n      0x00\n        /* \"#utility.yul\":6018:6030   */\n      revert\n        /* \"#utility.yul\":5972:6032   */\n    tag_375:\n        /* \"#utility.yul\":5922:6038   */\n      pop\n      jump\t// out\n        /* \"#utility.yul\":6044:6177   */\n    tag_241:\n        /* \"#utility.yul\":6087:6092   */\n      0x00\n        /* \"#utility.yul\":6125:6131   */\n      dup2\n        /* \"#utility.yul\":6112:6132   */\n      calldataload\n        /* \"#utility.yul\":6103:6132   */\n      swap1\n      pop\n        /* \"#utility.yul\":6141:6171   */\n      tag_377\n        /* \"#utility.yul\":6165:6170   */\n      dup2\n        /* \"#utility.yul\":6141:6171   */\n      tag_240\n      jump\t// in\n    tag_377:\n        /* \"#utility.yul\":6044:6177   */\n      swap3\n      swap2\n      pop\n      pop\n      jump\t// out\n        /* \"#utility.yul\":6183:6792   */\n    tag_33:\n        /* \"#utility.yul\":6255:6261   */\n      0x00\n        /* \"#utility.yul\":6263:6269   */\n      0x00\n        /* \"#utility.yul\":6271:6277   */\n      0x00\n        /* \"#utility.yul\":6320:6322   */\n      0x60\n        /* \"#utility.yul\":6308:6317   */\n      dup5\n        /* \"#utility.yul\":6299:6306   */\n      dup7\n        /* \"#utility.yul\":6295:6318   */\n      sub\n        /* \"#utility.yul\":6291:6323   */\n      slt\n        /* \"#utility.yul\":6288:6407   */\n      iszero\n      tag_379\n      jumpi\n        /* \"#utility.yul\":6326:6405   */\n      tag_380\n      tag_215\n      jump\t// in\n    tag_380:\n        /* \"#utility.yul\":6288:6407   */\n    tag_379:\n        /* \"#utility.yul\":6446:6447   */\n      0x00\n        /* \"#utility.yul\":6471:6524   */\n      tag_381\n        /* \"#utility.yul\":6516:6523   */\n      dup7\n        /* \"#utility.yul\":6507:6513   */\n      dup3\n        /* \"#utility.yul\":6496:6505   */\n      dup8\n        /* \"#utility.yul\":6492:6514   */\n      add\n        /* \"#utility.yul\":6471:6524   */\n      tag_220\n      jump\t// in\n    tag_381:\n        /* \"#utility.yul\":6461:6524   */\n      swap4\n      pop\n        /* \"#utility.yul\":6417:6534   */\n      pop\n        /* \"#utility.yul\":6573:6575   */\n      0x20\n        /* \"#utility.yul\":6599:6650   */\n      tag_382\n        /* \"#utility.yul\":6642:6649   */\n      dup7\n        /* \"#utility.yul\":6633:6639   */\n      dup3\n        /* \"#utility.yul\":6622:6631   */\n      dup8\n        /* \"#utility.yul\":6618:6640   */\n      add\n        /* \"#utility.yul\":6599:6650   */\n      tag_239\n      jump\t// in\n    tag_382:\n        /* \"#utility.yul\":6589:6650   */\n      swap3\n      pop\n        /* \"#utility.yul\":6544:6660   */\n      pop\n        /* \"#utility.yul\":6699:6701   */\n      0x40\n        /* \"#utility.yul\":6725:6775   */\n      tag_383\n        /* \"#utility.yul\":6767:6774   */\n      dup7\n        /* \"#utility.yul\":6758:6764   */\n      dup3\n        /* \"#utility.yul\":6747:6756   */\n      dup8\n        /* \"#utility.yul\":6743:6765   */\n      add\n        /* \"#utility.yul\":6725:6775   */\n      tag_241\n      jump\t// in\n    tag_383:\n        /* \"#utility.yul\":6715:6775   */\n      swap2\n      pop\n        /* \"#utility.yul\":6670:6785   */\n      pop\n        /* \"#utility.yul\":6183:6792   */\n      swap3\n      pop\n      swap3\n      pop\n      swap3\n      jump\t// out\n        /* \"#utility.yul\":6798:6913   */\n    tag_242:\n        /* \"#utility.yul\":6881:6882   */\n      0x04\n        /* \"#utility.yul\":6874:6879   */\n      dup2\n        /* \"#utility.yul\":6871:6883   */\n      lt\n        /* \"#utility.yul\":6861:6907   */\n      tag_385\n      jumpi\n        /* \"#utility.yul\":6887:6905   */\n      tag_386\n      tag_85\n      jump\t// in\n    tag_386:\n        /* \"#utility.yul\":6861:6907   */\n    tag_385:\n        /* \"#utility.yul\":6798:6913   */\n      pop\n      jump\t// out\n        /* \"#utility.yul\":6919:7050   */\n    tag_243:\n        /* \"#utility.yul\":6966:6973   */\n      0x00\n        /* \"#utility.yul\":6995:7000   */\n      dup2\n        /* \"#utility.yul\":6984:7000   */\n      swap1\n      pop\n        /* \"#utility.yul\":7001:7044   */\n      tag_388\n        /* \"#utility.yul\":7038:7043   */\n      dup3\n        /* \"#utility.yul\":7001:7044   */\n      tag_242\n      jump\t// in\n    tag_388:\n        /* \"#utility.yul\":6919:7050   */\n      swap2\n      swap1\n      pop\n      jump\t// out\n        /* \"#utility.yul\":7056:7187   */\n    tag_244:\n        /* \"#utility.yul\":7114:7123   */\n      0x00\n        /* \"#utility.yul\":7147:7181   */\n      tag_390\n        /* \"#utility.yul\":7175:7180   */\n      dup3\n        /* \"#utility.yul\":7147:7181   */\n      tag_243\n      jump\t// in\n    tag_390:\n        /* \"#utility.yul\":7134:7181   */\n      swap1\n      pop\n        /* \"#utility.yul\":7056:7187   */\n      swap2\n      swap1\n      pop\n      jump\t// out\n        /* \"#utility.yul\":7193:7340   */\n    tag_245:\n        /* \"#utility.yul\":7288:7333   */\n      tag_392\n        /* \"#utility.yul\":7327:7332   */\n      dup2\n        /* \"#utility.yul\":7288:7333   */\n      tag_244\n      jump\t// in\n    tag_392:\n        /* \"#utility.yul\":7283:7286   */\n      dup3\n        /* \"#utility.yul\":7276:7334   */\n      mstore\n        /* \"#utility.yul\":7193:7340   */\n      pop\n      pop\n      jump\t// out\n        /* \"#utility.yul\":7346:7584   */\n    tag_40:\n        /* \"#utility.yul\":7447:7451   */\n      0x00\n        /* \"#utility.yul\":7485:7487   */\n      0x20\n        /* \"#utility.yul\":7474:7483   */\n      dup3\n        /* \"#utility.yul\":7470:7488   */\n      add\n        /* \"#utility.yul\":7462:7488   */\n      swap1\n      pop\n        /* \"#utility.yul\":7498:7577   */\n      tag_394\n        /* \"#utility.yul\":7574:7575   */\n      0x00\n        /* \"#utility.yul\":7563:7572   */\n      dup4\n        /* \"#utility.yul\":7559:7576   */\n      add\n        /* \"#utility.yul\":7550:7556   */\n      dup5\n        /* \"#utility.yul\":7498:7577   */\n      tag_245\n      jump\t// in\n    tag_394:\n        /* \"#utility.yul\":7346:7584   */\n      swap3\n      swap2\n      pop\n      pop\n      jump\t// out\n        /* \"#utility.yul\":7590:7707   */\n    tag_246:\n        /* \"#utility.yul\":7699:7700   */\n      0x00\n        /* \"#utility.yul\":7696:7697   */\n      0x00\n        /* \"#utility.yul\":7689:7701   */\n      revert\n        /* \"#utility.yul\":7713:7830   */\n    tag_247:\n        /* \"#utility.yul\":7822:7823   */\n      0x00\n        /* \"#utility.yul\":7819:7820   */\n      0x00\n        /* \"#utility.yul\":7812:7824   */\n      revert\n        /* \"#utility.yul\":7836:7953   */\n    tag_248:\n        /* \"#utility.yul\":7945:7946   */\n      0x00\n        /* \"#utility.yul\":7942:7943   */\n      0x00\n        /* \"#utility.yul\":7935:7947   */\n      revert\n        /* \"#utility.yul\":7973:8526   */\n    tag_249:\n        /* \"#utility.yul\":8031:8039   */\n      0x00\n        /* \"#utility.yul\":8041:8047   */\n      0x00\n        /* \"#utility.yul\":8091:8094   */\n      dup4\n        /* \"#utility.yul\":8084:8088   */\n      0x1f\n        /* \"#utility.yul\":8076:8082   */\n      dup5\n        /* \"#utility.yul\":8072:8089   */\n      add\n        /* \"#utility.yul\":8068:8095   */\n      slt\n        /* \"#utility.yul\":8058:8180   */\n      tag_399\n      jumpi\n        /* \"#utility.yul\":8099:8178   */\n      tag_400\n      tag_246\n      jump\t// in\n    tag_400:\n        /* \"#utility.yul\":8058:8180   */\n    tag_399:\n        /* \"#utility.yul\":8212:8218   */\n      dup3\n        /* \"#utility.yul\":8199:8219   */\n      calldataload\n        /* \"#utility.yul\":8189:8219   */\n      swap1\n      pop\n        /* \"#utility.yul\":8242:8260   */\n      0xffffffffffffffff\n        /* \"#utility.yul\":8234:8240   */\n      dup2\n        /* \"#utility.yul\":8231:8261   */\n      gt\n        /* \"#utility.yul\":8228:8345   */\n      iszero\n      tag_401\n      jumpi\n        /* \"#utility.yul\":8264:8343   */\n      tag_402\n      tag_247\n      jump\t// in\n    tag_402:\n        /* \"#utility.yul\":8228:8345   */\n    tag_401:\n        /* \"#utility.yul\":8378:8382   */\n      0x20\n        /* \"#utility.yul\":8370:8376   */\n      dup4\n        /* \"#utility.yul\":8366:8383   */\n      add\n        /* \"#utility.yul\":8354:8383   */\n      swap2\n      pop\n        /* \"#utility.yul\":8432:8435   */\n      dup4\n        /* \"#utility.yul\":8424:8428   */\n      0x01\n        /* \"#utility.yul\":8416:8422   */\n      dup3\n        /* \"#utility.yul\":8412:8429   */\n      mul\n        /* \"#utility.yul\":8402:8410   */\n      dup4\n        /* \"#utility.yul\":8398:8430   */\n      add\n        /* \"#utility.yul\":8395:8436   */\n      gt\n        /* \"#utility.yul\":8392:8520   */\n      iszero\n      tag_403\n      jumpi\n        /* \"#utility.yul\":8439:8518   */\n      tag_404\n      tag_248\n      jump\t// in\n    tag_404:\n        /* \"#utility.yul\":8392:8520   */\n    tag_403:\n        /* \"#utility.yul\":7973:8526   */\n      swap3\n      pop\n      swap3\n      swap1\n      pop\n      jump\t// out\n        /* \"#utility.yul\":8532:10185   */\n    tag_44:\n        /* \"#utility.yul\":8670:8676   */\n      0x00\n        /* \"#utility.yul\":8678:8684   */\n      0x00\n        /* \"#utility.yul\":8686:8692   */\n      0x00\n        /* \"#utility.yul\":8694:8700   */\n      0x00\n        /* \"#utility.yul\":8702:8708   */\n      0x00\n        /* \"#utility.yul\":8710:8716   */\n      0x00\n        /* \"#utility.yul\":8718:8724   */\n      0x00\n        /* \"#utility.yul\":8726:8732   */\n      0x00\n        /* \"#utility.yul\":8734:8740   */\n      0x00\n        /* \"#utility.yul\":8783:8786   */\n      0xc0\n        /* \"#utility.yul\":8771:8780   */\n      dup11\n        /* \"#utility.yul\":8762:8769   */\n      dup13\n        /* \"#utility.yul\":8758:8781   */\n      sub\n        /* \"#utility.yul\":8754:8787   */\n      slt\n        /* \"#utility.yul\":8751:8871   */\n      iszero\n      tag_406\n      jumpi\n        /* \"#utility.yul\":8790:8869   */\n      tag_407\n      tag_215\n      jump\t// in\n    tag_407:\n        /* \"#utility.yul\":8751:8871   */\n    tag_406:\n        /* \"#utility.yul\":8910:8911   */\n      0x00\n        /* \"#utility.yul\":8935:8988   */\n      tag_408\n        /* \"#utility.yul\":8980:8987   */\n      dup13\n        /* \"#utility.yul\":8971:8977   */\n      dup3\n        /* \"#utility.yul\":8960:8969   */\n      dup14\n        /* \"#utility.yul\":8956:8978   */\n      add\n        /* \"#utility.yul\":8935:8988   */\n      tag_236\n      jump\t// in\n    tag_408:\n        /* \"#utility.yul\":8925:8988   */\n      swap10\n      pop\n        /* \"#utility.yul\":8881:8998   */\n      pop\n        /* \"#utility.yul\":9065:9067   */\n      0x20\n        /* \"#utility.yul\":9054:9063   */\n      dup11\n        /* \"#utility.yul\":9050:9068   */\n      add\n        /* \"#utility.yul\":9037:9069   */\n      calldataload\n        /* \"#utility.yul\":9096:9114   */\n      0xffffffffffffffff\n        /* \"#utility.yul\":9088:9094   */\n      dup2\n        /* \"#utility.yul\":9085:9115   */\n      gt\n        /* \"#utility.yul\":9082:9199   */\n      iszero\n      tag_409\n      jumpi\n        /* \"#utility.yul\":9118:9197   */\n      tag_410\n      tag_216\n      jump\t// in\n    tag_410:\n        /* \"#utility.yul\":9082:9199   */\n    tag_409:\n        /* \"#utility.yul\":9231:9296   */\n      tag_411\n        /* \"#utility.yul\":9288:9295   */\n      dup13\n        /* \"#utility.yul\":9279:9285   */\n      dup3\n        /* \"#utility.yul\":9268:9277   */\n      dup14\n        /* \"#utility.yul\":9264:9286   */\n      add\n        /* \"#utility.yul\":9231:9296   */\n      tag_249\n      jump\t// in\n    tag_411:\n        /* \"#utility.yul\":9213:9296   */\n      swap9\n      pop\n      swap9\n      pop\n        /* \"#utility.yul\":9008:9306   */\n      pop\n        /* \"#utility.yul\":9345:9347   */\n      0x40\n        /* \"#utility.yul\":9371:9424   */\n      tag_412\n        /* \"#utility.yul\":9416:9423   */\n      dup13\n        /* \"#utility.yul\":9407:9413   */\n      dup3\n        /* \"#utility.yul\":9396:9405   */\n      dup14\n        /* \"#utility.yul\":9392:9414   */\n      add\n        /* \"#utility.yul\":9371:9424   */\n      tag_236\n      jump\t// in\n    tag_412:\n        /* \"#utility.yul\":9361:9424   */\n      swap7\n      pop\n        /* \"#utility.yul\":9316:9434   */\n      pop\n        /* \"#utility.yul\":9501:9503   */\n      0x60\n        /* \"#utility.yul\":9490:9499   */\n      dup11\n        /* \"#utility.yul\":9486:9504   */\n      add\n        /* \"#utility.yul\":9473:9505   */\n      calldataload\n        /* \"#utility.yul\":9532:9550   */\n      0xffffffffffffffff\n        /* \"#utility.yul\":9524:9530   */\n      dup2\n        /* \"#utility.yul\":9521:9551   */\n      gt\n        /* \"#utility.yul\":9518:9635   */\n      iszero\n      tag_413\n      jumpi\n        /* \"#utility.yul\":9554:9633   */\n      tag_414\n      tag_216\n      jump\t// in\n    tag_414:\n        /* \"#utility.yul\":9518:9635   */\n    tag_413:\n        /* \"#utility.yul\":9667:9732   */\n      tag_415\n        /* \"#utility.yul\":9724:9731   */\n      dup13\n        /* \"#utility.yul\":9715:9721   */\n      dup3\n        /* \"#utility.yul\":9704:9713   */\n      dup14\n        /* \"#utility.yul\":9700:9722   */\n      add\n        /* \"#utility.yul\":9667:9732   */\n      tag_249\n      jump\t// in\n    tag_415:\n        /* \"#utility.yul\":9649:9732   */\n      swap6\n      pop\n      swap6\n      pop\n        /* \"#utility.yul\":9444:9742   */\n      pop\n        /* \"#utility.yul\":9809:9812   */\n      0x80\n        /* \"#utility.yul\":9798:9807   */\n      dup11\n        /* \"#utility.yul\":9794:9813   */\n      add\n        /* \"#utility.yul\":9781:9814   */\n      calldataload\n        /* \"#utility.yul\":9841:9859   */\n      0xffffffffffffffff\n        /* \"#utility.yul\":9833:9839   */\n      dup2\n        /* \"#utility.yul\":9830:9860   */\n      gt\n        /* \"#utility.yul\":9827:9944   */\n      iszero\n      tag_416\n      jumpi\n        /* \"#utility.yul\":9863:9942   */\n      tag_417\n      tag_216\n      jump\t// in\n    tag_417:\n        /* \"#utility.yul\":9827:9944   */\n    tag_416:\n        /* \"#utility.yul\":9976:10041   */\n      tag_418\n        /* \"#utility.yul\":10033:10040   */\n      dup13\n        /* \"#utility.yul\":10024:10030   */\n      dup3\n        /* \"#utility.yul\":10013:10022   */\n      dup14\n        /* \"#utility.yul\":10009:10031   */\n      add\n        /* \"#utility.yul\":9976:10041   */\n      tag_249\n      jump\t// in\n    tag_418:\n        /* \"#utility.yul\":9958:10041   */\n      swap4\n      pop\n      swap4\n      pop\n        /* \"#utility.yul\":9752:10051   */\n      pop\n        /* \"#utility.yul\":10090:10093   */\n      0xa0\n        /* \"#utility.yul\":10117:10168   */\n      tag_419\n        /* \"#utility.yul\":10160:10167   */\n      dup13\n        /* \"#utility.yul\":10151:10157   */\n      dup3\n        /* \"#utility.yul\":10140:10149   */\n      dup14\n        /* \"#utility.yul\":10136:10158   */\n      add\n        /* \"#utility.yul\":10117:10168   */\n      tag_239\n      jump\t// in\n    tag_419:\n        /* \"#utility.yul\":10107:10168   */\n      swap2\n      pop\n        /* \"#utility.yul\":10061:10178   */\n      pop\n        /* \"#utility.yul\":8532:10185   */\n      swap3\n      swap6\n      swap9\n      pop\n      swap3\n      swap6\n      swap9\n      pop\n      swap3\n      swap6\n      swap9\n      jump\t// out\n        /* \"#utility.yul\":10191:10295   */\n    tag_250:\n        /* \"#utility.yul\":10256:10262   */\n      0x00\n        /* \"#utility.yul\":10284:10288   */\n      0x06\n        /* \"#utility.yul\":10274:10288   */\n      swap1\n      pop\n        /* \"#utility.yul\":10191:10295   */\n      swap2\n      swap1\n      pop\n      jump\t// out\n        /* \"#utility.yul\":10301:10444   */\n    tag_251:\n        /* \"#utility.yul\":10398:10409   */\n      0x00\n        /* \"#utility.yul\":10435:10438   */\n      dup2\n        /* \"#utility.yul\":10420:10438   */\n      swap1\n      pop\n        /* \"#utility.yul\":10301:10444   */\n      swap3\n      swap2\n      pop\n      pop\n      jump\t// out\n        /* \"#utility.yul\":10450:10548   */\n    tag_252:\n        /* \"#utility.yul\":10515:10519   */\n      0x00\n        /* \"#utility.yul\":10538:10541   */\n      dup2\n        /* \"#utility.yul\":10530:10541   */\n      swap1\n      pop\n        /* \"#utility.yul\":10450:10548   */\n      swap2\n      swap1\n      pop\n      jump\t// out\n        /* \"#utility.yul\":10554:10662   */\n    tag_253:\n        /* \"#utility.yul\":10631:10655   */\n      tag_424\n        /* \"#utility.yul\":10649:10654   */\n      dup2\n        /* \"#utility.yul\":10631:10655   */\n      tag_218\n      jump\t// in\n    tag_424:\n        /* \"#utility.yul\":10626:10629   */\n      dup3\n        /* \"#utility.yul\":10619:10656   */\n      mstore\n        /* \"#utility.yul\":10554:10662   */\n      pop\n      pop\n      jump\t// out\n        /* \"#utility.yul\":10668:10847   */\n    tag_254:\n        /* \"#utility.yul\":10737:10747   */\n      0x00\n        /* \"#utility.yul\":10758:10804   */\n      tag_426\n        /* \"#utility.yul\":10800:10803   */\n      dup4\n        /* \"#utility.yul\":10792:10798   */\n      dup4\n        /* \"#utility.yul\":10758:10804   */\n      tag_253\n      jump\t// in\n    tag_426:\n        /* \"#utility.yul\":10836:10840   */\n      0x20\n        /* \"#utility.yul\":10831:10834   */\n      dup4\n        /* \"#utility.yul\":10827:10841   */\n      add\n        /* \"#utility.yul\":10813:10841   */\n      swap1\n      pop\n        /* \"#utility.yul\":10668:10847   */\n      swap3\n      swap2\n      pop\n      pop\n      jump\t// out\n        /* \"#utility.yul\":10853:10964   */\n    tag_255:\n        /* \"#utility.yul\":10921:10925   */\n      0x00\n        /* \"#utility.yul\":10953:10957   */\n      0x20\n        /* \"#utility.yul\":10948:10951   */\n      dup3\n        /* \"#utility.yul\":10944:10958   */\n      add\n        /* \"#utility.yul\":10936:10958   */\n      swap1\n      pop\n        /* \"#utility.yul\":10853:10964   */\n      swap2\n      swap1\n      pop\n      jump\t// out\n        /* \"#utility.yul\":11002:11696   */\n    tag_256:\n        /* \"#utility.yul\":11138:11190   */\n      tag_429\n        /* \"#utility.yul\":11184:11189   */\n      dup2\n        /* \"#utility.yul\":11138:11190   */\n      tag_250\n      jump\t// in\n    tag_429:\n        /* \"#utility.yul\":11206:11290   */\n      tag_430\n        /* \"#utility.yul\":11283:11289   */\n      dup2\n        /* \"#utility.yul\":11278:11281   */\n      dup5\n        /* \"#utility.yul\":11206:11290   */\n      tag_251\n      jump\t// in\n    tag_430:\n        /* \"#utility.yul\":11199:11290   */\n      swap3\n      pop\n        /* \"#utility.yul\":11314:11368   */\n      tag_431\n        /* \"#utility.yul\":11362:11367   */\n      dup3\n        /* \"#utility.yul\":11314:11368   */\n      tag_252\n      jump\t// in\n    tag_431:\n        /* \"#utility.yul\":11391:11398   */\n      dup1\n        /* \"#utility.yul\":11422:11423   */\n      0x00\n        /* \"#utility.yul\":11407:11689   */\n    tag_432:\n        /* \"#utility.yul\":11432:11438   */\n      dup4\n        /* \"#utility.yul\":11429:11430   */\n      dup2\n        /* \"#utility.yul\":11426:11439   */\n      lt\n        /* \"#utility.yul\":11407:11689   */\n      iszero\n      tag_434\n      jumpi\n        /* \"#utility.yul\":11508:11514   */\n      dup2\n        /* \"#utility.yul\":11502:11515   */\n      mload\n        /* \"#utility.yul\":11535:11598   */\n      tag_435\n        /* \"#utility.yul\":11594:11597   */\n      dup8\n        /* \"#utility.yul\":11579:11592   */\n      dup3\n        /* \"#utility.yul\":11535:11598   */\n      tag_254\n      jump\t// in\n    tag_435:\n        /* \"#utility.yul\":11528:11598   */\n      swap7\n      pop\n        /* \"#utility.yul\":11621:11679   */\n      tag_436\n        /* \"#utility.yul\":11672:11678   */\n      dup4\n        /* \"#utility.yul\":11621:11679   */\n      tag_255\n      jump\t// in\n    tag_436:\n        /* \"#utility.yul\":11611:11679   */\n      swap3\n      pop\n        /* \"#utility.yul\":11467:11689   */\n      pop\n        /* \"#utility.yul\":11454:11455   */\n      0x01\n        /* \"#utility.yul\":11451:11452   */\n      dup2\n        /* \"#utility.yul\":11447:11456   */\n      add\n        /* \"#utility.yul\":11442:11456   */\n      swap1\n      pop\n        /* \"#utility.yul\":11407:11689   */\n      jump(tag_432)\n    tag_434:\n        /* \"#utility.yul\":11411:11425   */\n      pop\n        /* \"#utility.yul\":11114:11696   */\n      pop\n      pop\n      pop\n        /* \"#utility.yul\":11002:11696   */\n      pop\n      pop\n      jump\t// out\n        /* \"#utility.yul\":11702:12017   */\n    tag_51:\n        /* \"#utility.yul\":11841:11845   */\n      0x00\n        /* \"#utility.yul\":11879:11882   */\n      0xc0\n        /* \"#utility.yul\":11868:11877   */\n      dup3\n        /* \"#utility.yul\":11864:11883   */\n      add\n        /* \"#utility.yul\":11856:11883   */\n      swap1\n      pop\n        /* \"#utility.yul\":11893:12010   */\n      tag_438\n        /* \"#utility.yul\":12007:12008   */\n      0x00\n        /* \"#utility.yul\":11996:12005   */\n      dup4\n        /* \"#utility.yul\":11992:12009   */\n      add\n        /* \"#utility.yul\":11983:11989   */\n      dup5\n        /* \"#utility.yul\":11893:12010   */\n      tag_256\n      jump\t// in\n    tag_438:\n        /* \"#utility.yul\":11702:12017   */\n      swap3\n      swap2\n      pop\n      pop\n      jump\t// out\n        /* \"#utility.yul\":12023:12493   */\n    tag_57:\n        /* \"#utility.yul\":12089:12095   */\n      0x00\n        /* \"#utility.yul\":12097:12103   */\n      0x00\n        /* \"#utility.yul\":12146:12148   */\n      0x40\n        /* \"#utility.yul\":12134:12143   */\n      dup4\n        /* \"#utility.yul\":12125:12132   */\n      dup6\n        /* \"#utility.yul\":12121:12144   */\n      sub\n        /* \"#utility.yul\":12117:12149   */\n      slt\n        /* \"#utility.yul\":12114:12233   */\n      iszero\n      tag_440\n      jumpi\n        /* \"#utility.yul\":12152:12231   */\n      tag_441\n      tag_215\n      jump\t// in\n    tag_441:\n        /* \"#utility.yul\":12114:12233   */\n    tag_440:\n        /* \"#utility.yul\":12272:12273   */\n      0x00\n        /* \"#utility.yul\":12297:12350   */\n      tag_442\n        /* \"#utility.yul\":12342:12349   */\n      dup6\n        /* \"#utility.yul\":12333:12339   */\n      dup3\n        /* \"#utility.yul\":12322:12331   */\n      dup7\n        /* \"#utility.yul\":12318:12340   */\n      add\n        /* \"#utility.yul\":12297:12350   */\n      tag_220\n      jump\t// in\n    tag_442:\n        /* \"#utility.yul\":12287:12350   */\n      swap3\n      pop\n        /* \"#utility.yul\":12243:12360   */\n      pop\n        /* \"#utility.yul\":12399:12401   */\n      0x20\n        /* \"#utility.yul\":12425:12476   */\n      tag_443\n        /* \"#utility.yul\":12468:12475   */\n      dup6\n        /* \"#utility.yul\":12459:12465   */\n      dup3\n        /* \"#utility.yul\":12448:12457   */\n      dup7\n        /* \"#utility.yul\":12444:12466   */\n      add\n        /* \"#utility.yul\":12425:12476   */\n      tag_239\n      jump\t// in\n    tag_443:\n        /* \"#utility.yul\":12415:12476   */\n      swap2\n      pop\n        /* \"#utility.yul\":12370:12486   */\n      pop\n        /* \"#utility.yul\":12023:12493   */\n      swap3\n      pop\n      swap3\n      swap1\n      pop\n      jump\t// out\n        /* \"#utility.yul\":12499:12721   */\n    tag_63:\n        /* \"#utility.yul\":12592:12596   */\n      0x00\n        /* \"#utility.yul\":12630:12632   */\n      0x20\n        /* \"#utility.yul\":12619:12628   */\n      dup3\n        /* \"#utility.yul\":12615:12633   */\n      add\n        /* \"#utility.yul\":12607:12633   */\n      swap1\n      pop\n        /* \"#utility.yul\":12643:12714   */\n      tag_445\n        /* \"#utility.yul\":12711:12712   */\n      0x00\n        /* \"#utility.yul\":12700:12709   */\n      dup4\n        /* \"#utility.yul\":12696:12713   */\n      add\n        /* \"#utility.yul\":12687:12693   */\n      dup5\n        /* \"#utility.yul\":12643:12714   */\n      tag_222\n      jump\t// in\n    tag_445:\n        /* \"#utility.yul\":12499:12721   */\n      swap3\n      swap2\n      pop\n      pop\n      jump\t// out\n        /* \"#utility.yul\":12727:12907   */\n    tag_257:\n        /* \"#utility.yul\":12775:12852   */\n      0x4e487b7100000000000000000000000000000000000000000000000000000000\n        /* \"#utility.yul\":12772:12773   */\n      0x00\n        /* \"#utility.yul\":12765:12853   */\n      mstore\n        /* \"#utility.yul\":12872:12876   */\n      0x22\n        /* \"#utility.yul\":12869:12870   */\n      0x04\n        /* \"#utility.yul\":12862:12877   */\n      mstore\n        /* \"#utility.yul\":12896:12900   */\n      0x24\n        /* \"#utility.yul\":12893:12894   */\n      0x00\n        /* \"#utility.yul\":12886:12901   */\n      revert\n        /* \"#utility.yul\":12913:13233   */\n    tag_65:\n        /* \"#utility.yul\":12957:12963   */\n      0x00\n        /* \"#utility.yul\":12994:12995   */\n      0x02\n        /* \"#utility.yul\":12988:12992   */\n      dup3\n        /* \"#utility.yul\":12984:12996   */\n      div\n        /* \"#utility.yul\":12974:12996   */\n      swap1\n      pop\n        /* \"#utility.yul\":13041:13042   */\n      0x01\n        /* \"#utility.yul\":13035:13039   */\n      dup3\n        /* \"#utility.yul\":13031:13043   */\n      and\n        /* \"#utility.yul\":13062:13080   */\n      dup1\n        /* \"#utility.yul\":13052:13133   */\n      tag_448\n      jumpi\n        /* \"#utility.yul\":13118:13122   */\n      0x7f\n        /* \"#utility.yul\":13110:13116   */\n      dup3\n        /* \"#utility.yul\":13106:13123   */\n      and\n        /* \"#utility.yul\":13096:13123   */\n      swap2\n      pop\n        /* \"#utility.yul\":13052:13133   */\n    tag_448:\n        /* \"#utility.yul\":13180:13182   */\n      0x20\n        /* \"#utility.yul\":13172:13178   */\n      dup3\n        /* \"#utility.yul\":13169:13183   */\n      lt\n        /* \"#utility.yul\":13149:13167   */\n      dup2\n        /* \"#utility.yul\":13146:13184   */\n      sub\n        /* \"#utility.yul\":13143:13227   */\n      tag_449\n      jumpi\n        /* \"#utility.yul\":13199:13217   */\n      tag_450\n      tag_257\n      jump\t// in\n    tag_450:\n        /* \"#utility.yul\":13143:13227   */\n    tag_449:\n        /* \"#utility.yul\":12964:13233   */\n      pop\n        /* \"#utility.yul\":12913:13233   */\n      swap2\n      swap1\n      pop\n      jump\t// out\n        /* \"#utility.yul\":13239:13407   */\n    tag_258:\n        /* \"#utility.yul\":13379:13399   */\n      0x416c726561647920726567697374657265640000000000000000000000000000\n        /* \"#utility.yul\":13375:13376   */\n      0x00\n        /* \"#utility.yul\":13367:13373   */\n      dup3\n        /* \"#utility.yul\":13363:13377   */\n      add\n        /* \"#utility.yul\":13356:13400   */\n      mstore\n        /* \"#utility.yul\":13239:13407   */\n      pop\n      jump\t// out\n        /* \"#utility.yul\":13413:13779   */\n    tag_259:\n        /* \"#utility.yul\":13555:13558   */\n      0x00\n        /* \"#utility.yul\":13576:13643   */\n      tag_453\n        /* \"#utility.yul\":13640:13642   */\n      0x12\n        /* \"#utility.yul\":13635:13638   */\n      dup4\n        /* \"#utility.yul\":13576:13643   */\n      tag_224\n      jump\t// in\n    tag_453:\n        /* \"#utility.yul\":13569:13643   */\n      swap2\n      pop\n        /* \"#utility.yul\":13652:13745   */\n      tag_454\n        /* \"#utility.yul\":13741:13744   */\n      dup3\n        /* \"#utility.yul\":13652:13745   */\n      tag_258\n      jump\t// in\n    tag_454:\n        /* \"#utility.yul\":13770:13772   */\n      0x20\n        /* \"#utility.yul\":13765:13768   */\n      dup3\n        /* \"#utility.yul\":13761:13773   */\n      add\n        /* \"#utility.yul\":13754:13773   */\n      swap1\n      pop\n        /* \"#utility.yul\":13413:13779   */\n      swap2\n      swap1\n      pop\n      jump\t// out\n        /* \"#utility.yul\":13785:14204   */\n    tag_90:\n        /* \"#utility.yul\":13951:13955   */\n      0x00\n        /* \"#utility.yul\":13989:13991   */\n      0x20\n        /* \"#utility.yul\":13978:13987   */\n      dup3\n        /* \"#utility.yul\":13974:13992   */\n      add\n        /* \"#utility.yul\":13966:13992   */\n      swap1\n      pop\n        /* \"#utility.yul\":14038:14047   */\n      dup2\n        /* \"#utility.yul\":14032:14036   */\n      dup2\n        /* \"#utility.yul\":14028:14048   */\n      sub\n        /* \"#utility.yul\":14024:14025   */\n      0x00\n        /* \"#utility.yul\":14013:14022   */\n      dup4\n        /* \"#utility.yul\":14009:14026   */\n      add\n        /* \"#utility.yul\":14002:14049   */\n      mstore\n        /* \"#utility.yul\":14066:14197   */\n      tag_456\n        /* \"#utility.yul\":14192:14196   */\n      dup2\n        /* \"#utility.yul\":14066:14197   */\n      tag_259\n      jump\t// in\n    tag_456:\n        /* \"#utility.yul\":14058:14197   */\n      swap1\n      pop\n        /* \"#utility.yul\":13785:14204   */\n      swap2\n      swap1\n      pop\n      jump\t// out\n        /* \"#utility.yul\":14210:14378   */\n    tag_260:\n        /* \"#utility.yul\":14350:14370   */\n      0x4f6e6c792041646d696e20616c6c6f7765640000000000000000000000000000\n        /* \"#utility.yul\":14346:14347   */\n      0x00\n        /* \"#utility.yul\":14338:14344   */\n      dup3\n        /* \"#utility.yul\":14334:14348   */\n      add\n        /* \"#utility.yul\":14327:14371   */\n      mstore\n        /* \"#utility.yul\":14210:14378   */\n      pop\n      jump\t// out\n        /* \"#utility.yul\":14384:14750   */\n    tag_261:\n        /* \"#utility.yul\":14526:14529   */\n      0x00\n        /* \"#utility.yul\":14547:14614   */\n      tag_459\n        /* \"#utility.yul\":14611:14613   */\n      0x12\n        /* \"#utility.yul\":14606:14609   */\n      dup4\n        /* \"#utility.yul\":14547:14614   */\n      tag_224\n      jump\t// in\n    tag_459:\n        /* \"#utility.yul\":14540:14614   */\n      swap2\n      pop\n        /* \"#utility.yul\":14623:14716   */\n      tag_460\n        /* \"#utility.yul\":14712:14715   */\n      dup3\n        /* \"#utility.yul\":14623:14716   */\n      tag_260\n      jump\t// in\n    tag_460:\n        /* \"#utility.yul\":14741:14743   */\n      0x20\n        /* \"#utility.yul\":14736:14739   */\n      dup3\n        /* \"#utility.yul\":14732:14744   */\n      add\n        /* \"#utility.yul\":14725:14744   */\n      swap1\n      pop\n        /* \"#utility.yul\":14384:14750   */\n      swap2\n      swap1\n      pop\n      jump\t// out\n        /* \"#utility.yul\":14756:15175   */\n    tag_102:\n        /* \"#utility.yul\":14922:14926   */\n      0x00\n        /* \"#utility.yul\":14960:14962   */\n      0x20\n        /* \"#utility.yul\":14949:14958   */\n      dup3\n        /* \"#utility.yul\":14945:14963   */\n      add\n        /* \"#utility.yul\":14937:14963   */\n      swap1\n      pop\n        /* \"#utility.yul\":15009:15018   */\n      dup2\n        /* \"#utility.yul\":15003:15007   */\n      dup2\n        /* \"#utility.yul\":14999:15019   */\n      sub\n        /* \"#utility.yul\":14995:14996   */\n      0x00\n        /* \"#utility.yul\":14984:14993   */\n      dup4\n        /* \"#utility.yul\":14980:14997   */\n      add\n        /* \"#utility.yul\":14973:15020   */\n      mstore\n        /* \"#utility.yul\":15037:15168   */\n      tag_462\n        /* \"#utility.yul\":15163:15167   */\n      dup2\n        /* \"#utility.yul\":15037:15168   */\n      tag_261\n      jump\t// in\n    tag_462:\n        /* \"#utility.yul\":15029:15168   */\n      swap1\n      pop\n        /* \"#utility.yul\":14756:15175   */\n      swap2\n      swap1\n      pop\n      jump\t// out\n        /* \"#utility.yul\":15181:15356   */\n    tag_262:\n        /* \"#utility.yul\":15321:15348   */\n      0x496e76616c696420747261696e696e6720696e74657265737400000000000000\n        /* \"#utility.yul\":15317:15318   */\n      0x00\n        /* \"#utility.yul\":15309:15315   */\n      dup3\n        /* \"#utility.yul\":15305:15319   */\n      add\n        /* \"#utility.yul\":15298:15349   */\n      mstore\n        /* \"#utility.yul\":15181:15356   */\n      pop\n      jump\t// out\n        /* \"#utility.yul\":15362:15728   */\n    tag_263:\n        /* \"#utility.yul\":15504:15507   */\n      0x00\n        /* \"#utility.yul\":15525:15592   */\n      tag_465\n        /* \"#utility.yul\":15589:15591   */\n      0x19\n        /* \"#utility.yul\":15584:15587   */\n      dup4\n        /* \"#utility.yul\":15525:15592   */\n      tag_224\n      jump\t// in\n    tag_465:\n        /* \"#utility.yul\":15518:15592   */\n      swap2\n      pop\n        /* \"#utility.yul\":15601:15694   */\n      tag_466\n        /* \"#utility.yul\":15690:15693   */\n      dup3\n        /* \"#utility.yul\":15601:15694   */\n      tag_262\n      jump\t// in\n    tag_466:\n        /* \"#utility.yul\":15719:15721   */\n      0x20\n        /* \"#utility.yul\":15714:15717   */\n      dup3\n        /* \"#utility.yul\":15710:15722   */\n      add\n        /* \"#utility.yul\":15703:15722   */\n      swap1\n      pop\n        /* \"#utility.yul\":15362:15728   */\n      swap2\n      swap1\n      pop\n      jump\t// out\n        /* \"#utility.yul\":15734:16153   */\n    tag_108:\n        /* \"#utility.yul\":15900:15904   */\n      0x00\n        /* \"#utility.yul\":15938:15940   */\n      0x20\n        /* \"#utility.yul\":15927:15936   */\n      dup3\n        /* \"#utility.yul\":15923:15941   */\n      add\n        /* \"#utility.yul\":15915:15941   */\n      swap1\n      pop\n        /* \"#utility.yul\":15987:15996   */\n      dup2\n        /* \"#utility.yul\":15981:15985   */\n      dup2\n        /* \"#utility.yul\":15977:15997   */\n      sub\n        /* \"#utility.yul\":15973:15974   */\n      0x00\n        /* \"#utility.yul\":15962:15971   */\n      dup4\n        /* \"#utility.yul\":15958:15975   */\n      add\n        /* \"#utility.yul\":15951:15998   */\n      mstore\n        /* \"#utility.yul\":16015:16146   */\n      tag_468\n        /* \"#utility.yul\":16141:16145   */\n      dup2\n        /* \"#utility.yul\":16015:16146   */\n      tag_263\n      jump\t// in\n    tag_468:\n        /* \"#utility.yul\":16007:16146   */\n      swap1\n      pop\n        /* \"#utility.yul\":15734:16153   */\n      swap2\n      swap1\n      pop\n      jump\t// out\n        /* \"#utility.yul\":16159:16317   */\n    tag_264:\n        /* \"#utility.yul\":16299:16309   */\n      0x696e746572657374000000000000000000000000000000000000000000000000\n        /* \"#utility.yul\":16295:16296   */\n      0x00\n        /* \"#utility.yul\":16287:16293   */\n      dup3\n        /* \"#utility.yul\":16283:16297   */\n      add\n        /* \"#utility.yul\":16276:16310   */\n      mstore\n        /* \"#utility.yul\":16159:16317   */\n      pop\n      jump\t// out\n        /* \"#utility.yul\":16323:16688   */\n    tag_265:\n        /* \"#utility.yul\":16465:16468   */\n      0x00\n        /* \"#utility.yul\":16486:16552   */\n      tag_471\n        /* \"#utility.yul\":16550:16551   */\n      0x08\n        /* \"#utility.yul\":16545:16548   */\n      dup4\n        /* \"#utility.yul\":16486:16552   */\n      tag_224\n      jump\t// in\n    tag_471:\n        /* \"#utility.yul\":16479:16552   */\n      swap2\n      pop\n        /* \"#utility.yul\":16561:16654   */\n      tag_472\n        /* \"#utility.yul\":16650:16653   */\n      dup3\n        /* \"#utility.yul\":16561:16654   */\n      tag_264\n      jump\t// in\n    tag_472:\n        /* \"#utility.yul\":16679:16681   */\n      0x20\n        /* \"#utility.yul\":16674:16677   */\n      dup3\n        /* \"#utility.yul\":16670:16682   */\n      add\n        /* \"#utility.yul\":16663:16682   */\n      swap1\n      pop\n        /* \"#utility.yul\":16323:16688   */\n      swap2\n      swap1\n      pop\n      jump\t// out\n        /* \"#utility.yul\":16694:17223   */\n    tag_114:\n        /* \"#utility.yul\":16888:16892   */\n      0x00\n        /* \"#utility.yul\":16926:16928   */\n      0x40\n        /* \"#utility.yul\":16915:16924   */\n      dup3\n        /* \"#utility.yul\":16911:16929   */\n      add\n        /* \"#utility.yul\":16903:16929   */\n      swap1\n      pop\n        /* \"#utility.yul\":16939:17010   */\n      tag_474\n        /* \"#utility.yul\":17007:17008   */\n      0x00\n        /* \"#utility.yul\":16996:17005   */\n      dup4\n        /* \"#utility.yul\":16992:17009   */\n      add\n        /* \"#utility.yul\":16983:16989   */\n      dup5\n        /* \"#utility.yul\":16939:17010   */\n      tag_234\n      jump\t// in\n    tag_474:\n        /* \"#utility.yul\":17057:17066   */\n      dup2\n        /* \"#utility.yul\":17051:17055   */\n      dup2\n        /* \"#utility.yul\":17047:17067   */\n      sub\n        /* \"#utility.yul\":17042:17044   */\n      0x20\n        /* \"#utility.yul\":17031:17040   */\n      dup4\n        /* \"#utility.yul\":17027:17045   */\n      add\n        /* \"#utility.yul\":17020:17068   */\n      mstore\n        /* \"#utility.yul\":17085:17216   */\n      tag_475\n        /* \"#utility.yul\":17211:17215   */\n      dup2\n        /* \"#utility.yul\":17085:17216   */\n      tag_265\n      jump\t// in\n    tag_475:\n        /* \"#utility.yul\":17077:17216   */\n      swap1\n      pop\n        /* \"#utility.yul\":16694:17223   */\n      swap3\n      swap2\n      pop\n      pop\n      jump\t// out\n        /* \"#utility.yul\":17229:17396   */\n    tag_266:\n        /* \"#utility.yul\":17369:17388   */\n      0x416c726561647920636f6d706c65746564000000000000000000000000000000\n        /* \"#utility.yul\":17365:17366   */\n      0x00\n        /* \"#utility.yul\":17357:17363   */\n      dup3\n        /* \"#utility.yul\":17353:17367   */\n      add\n        /* \"#utility.yul\":17346:17389   */\n      mstore\n        /* \"#utility.yul\":17229:17396   */\n      pop\n      jump\t// out\n        /* \"#utility.yul\":17402:17768   */\n    tag_267:\n        /* \"#utility.yul\":17544:17547   */\n      0x00\n        /* \"#utility.yul\":17565:17632   */\n      tag_478\n        /* \"#utility.yul\":17629:17631   */\n      0x11\n        /* \"#utility.yul\":17624:17627   */\n      dup4\n        /* \"#utility.yul\":17565:17632   */\n      tag_224\n      jump\t// in\n    tag_478:\n        /* \"#utility.yul\":17558:17632   */\n      swap2\n      pop\n        /* \"#utility.yul\":17641:17734   */\n      tag_479\n        /* \"#utility.yul\":17730:17733   */\n      dup3\n        /* \"#utility.yul\":17641:17734   */\n      tag_266\n      jump\t// in\n    tag_479:\n        /* \"#utility.yul\":17759:17761   */\n      0x20\n        /* \"#utility.yul\":17754:17757   */\n      dup3\n        /* \"#utility.yul\":17750:17762   */\n      add\n        /* \"#utility.yul\":17743:17762   */\n      swap1\n      pop\n        /* \"#utility.yul\":17402:17768   */\n      swap2\n      swap1\n      pop\n      jump\t// out\n        /* \"#utility.yul\":17774:18193   */\n    tag_118:\n        /* \"#utility.yul\":17940:17944   */\n      0x00\n        /* \"#utility.yul\":17978:17980   */\n      0x20\n        /* \"#utility.yul\":17967:17976   */\n      dup3\n        /* \"#utility.yul\":17963:17981   */\n      add\n        /* \"#utility.yul\":17955:17981   */\n      swap1\n      pop\n        /* \"#utility.yul\":18027:18036   */\n      dup2\n        /* \"#utility.yul\":18021:18025   */\n      dup2\n        /* \"#utility.yul\":18017:18037   */\n      sub\n        /* \"#utility.yul\":18013:18014   */\n      0x00\n        /* \"#utility.yul\":18002:18011   */\n      dup4\n        /* \"#utility.yul\":17998:18015   */\n      add\n        /* \"#utility.yul\":17991:18038   */\n      mstore\n        /* \"#utility.yul\":18055:18186   */\n      tag_481\n        /* \"#utility.yul\":18181:18185   */\n      dup2\n        /* \"#utility.yul\":18055:18186   */\n      tag_267\n      jump\t// in\n    tag_481:\n        /* \"#utility.yul\":18047:18186   */\n      swap1\n      pop\n        /* \"#utility.yul\":17774:18193   */\n      swap2\n      swap1\n      pop\n      jump\t// out\n        /* \"#utility.yul\":18199:18369   */\n    tag_268:\n        /* \"#utility.yul\":18339:18361   */\n      0x686173436f6d706c65746564547261696e696e67000000000000000000000000\n        /* \"#utility.yul\":18335:18336   */\n      0x00\n        /* \"#utility.yul\":18327:18333   */\n      dup3\n        /* \"#utility.yul\":18323:18337   */\n      add\n        /* \"#utility.yul\":18316:18362   */\n      mstore\n        /* \"#utility.yul\":18199:18369   */\n      pop\n      jump\t// out\n        /* \"#utility.yul\":18375:18741   */\n    tag_269:\n        /* \"#utility.yul\":18517:18520   */\n      0x00\n        /* \"#utility.yul\":18538:18605   */\n      tag_484\n        /* \"#utility.yul\":18602:18604   */\n      0x14\n        /* \"#utility.yul\":18597:18600   */\n      dup4\n        /* \"#utility.yul\":18538:18605   */\n      tag_224\n      jump\t// in\n    tag_484:\n        /* \"#utility.yul\":18531:18605   */\n      swap2\n      pop\n        /* \"#utility.yul\":18614:18707   */\n      tag_485\n        /* \"#utility.yul\":18703:18706   */\n      dup3\n        /* \"#utility.yul\":18614:18707   */\n      tag_268\n      jump\t// in\n    tag_485:\n        /* \"#utility.yul\":18732:18734   */\n      0x20\n        /* \"#utility.yul\":18727:18730   */\n      dup3\n        /* \"#utility.yul\":18723:18735   */\n      add\n        /* \"#utility.yul\":18716:18735   */\n      swap1\n      pop\n        /* \"#utility.yul\":18375:18741   */\n      swap2\n      swap1\n      pop\n      jump\t// out\n        /* \"#utility.yul\":18747:19276   */\n    tag_120:\n        /* \"#utility.yul\":18941:18945   */\n      0x00\n        /* \"#utility.yul\":18979:18981   */\n      0x40\n        /* \"#utility.yul\":18968:18977   */\n      dup3\n        /* \"#utility.yul\":18964:18982   */\n      add\n        /* \"#utility.yul\":18956:18982   */\n      swap1\n      pop\n        /* \"#utility.yul\":18992:19063   */\n      tag_487\n        /* \"#utility.yul\":19060:19061   */\n      0x00\n        /* \"#utility.yul\":19049:19058   */\n      dup4\n        /* \"#utility.yul\":19045:19062   */\n      add\n        /* \"#utility.yul\":19036:19042   */\n      dup5\n        /* \"#utility.yul\":18992:19063   */\n      tag_234\n      jump\t// in\n    tag_487:\n        /* \"#utility.yul\":19110:19119   */\n      dup2\n        /* \"#utility.yul\":19104:19108   */\n      dup2\n        /* \"#utility.yul\":19100:19120   */\n      sub\n        /* \"#utility.yul\":19095:19097   */\n      0x20\n        /* \"#utility.yul\":19084:19093   */\n      dup4\n        /* \"#utility.yul\":19080:19098   */\n      add\n        /* \"#utility.yul\":19073:19121   */\n      mstore\n        /* \"#utility.yul\":19138:19269   */\n      tag_488\n        /* \"#utility.yul\":19264:19268   */\n      dup2\n        /* \"#utility.yul\":19138:19269   */\n      tag_269\n      jump\t// in\n    tag_488:\n        /* \"#utility.yul\":19130:19269   */\n      swap1\n      pop\n        /* \"#utility.yul\":18747:19276   */\n      swap3\n      swap2\n      pop\n      pop\n      jump\t// out\n        /* \"#utility.yul\":19282:19461   */\n    tag_270:\n        /* \"#utility.yul\":19422:19453   */\n      0x436f6d706c6574696f6e2063616e6e6f74206265207265766572746564000000\n        /* \"#utility.yul\":19418:19419   */\n      0x00\n        /* \"#utility.yul\":19410:19416   */\n      dup3\n        /* \"#utility.yul\":19406:19420   */\n      add\n        /* \"#utility.yul\":19399:19454   */\n      mstore\n        /* \"#utility.yul\":19282:19461   */\n      pop\n      jump\t// out\n        /* \"#utility.yul\":19467:19833   */\n    tag_271:\n        /* \"#utility.yul\":19609:19612   */\n      0x00\n        /* \"#utility.yul\":19630:19697   */\n      tag_491\n        /* \"#utility.yul\":19694:19696   */\n      0x1d\n        /* \"#utility.yul\":19689:19692   */\n      dup4\n        /* \"#utility.yul\":19630:19697   */\n      tag_224\n      jump\t// in\n    tag_491:\n        /* \"#utility.yul\":19623:19697   */\n      swap2\n      pop\n        /* \"#utility.yul\":19706:19799   */\n      tag_492\n        /* \"#utility.yul\":19795:19798   */\n      dup3\n        /* \"#utility.yul\":19706:19799   */\n      tag_270\n      jump\t// in\n    tag_492:\n        /* \"#utility.yul\":19824:19826   */\n      0x20\n        /* \"#utility.yul\":19819:19822   */\n      dup3\n        /* \"#utility.yul\":19815:19827   */\n      add\n        /* \"#utility.yul\":19808:19827   */\n      swap1\n      pop\n        /* \"#utility.yul\":19467:19833   */\n      swap2\n      swap1\n      pop\n      jump\t// out\n        /* \"#utility.yul\":19839:20258   */\n    tag_124:\n        /* \"#utility.yul\":20005:20009   */\n      0x00\n        /* \"#utility.yul\":20043:20045   */\n      0x20\n        /* \"#utility.yul\":20032:20041   */\n      dup3\n        /* \"#utility.yul\":20028:20046   */\n      add\n        /* \"#utility.yul\":20020:20046   */\n      swap1\n      pop\n        /* \"#utility.yul\":20092:20101   */\n      dup2\n        /* \"#utility.yul\":20086:20090   */\n      dup2\n        /* \"#utility.yul\":20082:20102   */\n      sub\n        /* \"#utility.yul\":20078:20079   */\n      0x00\n        /* \"#utility.yul\":20067:20076   */\n      dup4\n        /* \"#utility.yul\":20063:20080   */\n      add\n        /* \"#utility.yul\":20056:20103   */\n      mstore\n        /* \"#utility.yul\":20120:20251   */\n      tag_494\n        /* \"#utility.yul\":20246:20250   */\n      dup2\n        /* \"#utility.yul\":20120:20251   */\n      tag_271\n      jump\t// in\n    tag_494:\n        /* \"#utility.yul\":20112:20251   */\n      swap1\n      pop\n        /* \"#utility.yul\":19839:20258   */\n      swap2\n      swap1\n      pop\n      jump\t// out\n        /* \"#utility.yul\":20264:20439   */\n    tag_272:\n        /* \"#utility.yul\":20404:20431   */\n      0x496e76616c696420696e7465726573742073656c656374656400000000000000\n        /* \"#utility.yul\":20400:20401   */\n      0x00\n        /* \"#utility.yul\":20392:20398   */\n      dup3\n        /* \"#utility.yul\":20388:20402   */\n      add\n        /* \"#utility.yul\":20381:20432   */\n      mstore\n        /* \"#utility.yul\":20264:20439   */\n      pop\n      jump\t// out\n        /* \"#utility.yul\":20445:20811   */\n    tag_273:\n        /* \"#utility.yul\":20587:20590   */\n      0x00\n        /* \"#utility.yul\":20608:20675   */\n      tag_497\n        /* \"#utility.yul\":20672:20674   */\n      0x19\n        /* \"#utility.yul\":20667:20670   */\n      dup4\n        /* \"#utility.yul\":20608:20675   */\n      tag_224\n      jump\t// in\n    tag_497:\n        /* \"#utility.yul\":20601:20675   */\n      swap2\n      pop\n        /* \"#utility.yul\":20684:20777   */\n      tag_498\n        /* \"#utility.yul\":20773:20776   */\n      dup3\n        /* \"#utility.yul\":20684:20777   */\n      tag_272\n      jump\t// in\n    tag_498:\n        /* \"#utility.yul\":20802:20804   */\n      0x20\n        /* \"#utility.yul\":20797:20800   */\n      dup3\n        /* \"#utility.yul\":20793:20805   */\n      add\n        /* \"#utility.yul\":20786:20805   */\n      swap1\n      pop\n        /* \"#utility.yul\":20445:20811   */\n      swap2\n      swap1\n      pop\n      jump\t// out\n        /* \"#utility.yul\":20817:21236   */\n    tag_135:\n        /* \"#utility.yul\":20983:20987   */\n      0x00\n        /* \"#utility.yul\":21021:21023   */\n      0x20\n        /* \"#utility.yul\":21010:21019   */\n      dup3\n        /* \"#utility.yul\":21006:21024   */\n      add\n        /* \"#utility.yul\":20998:21024   */\n      swap1\n      pop\n        /* \"#utility.yul\":21070:21079   */\n      dup2\n        /* \"#utility.yul\":21064:21068   */\n      dup2\n        /* \"#utility.yul\":21060:21080   */\n      sub\n        /* \"#utility.yul\":21056:21057   */\n      0x00\n        /* \"#utility.yul\":21045:21054   */\n      dup4\n        /* \"#utility.yul\":21041:21058   */\n      add\n        /* \"#utility.yul\":21034:21081   */\n      mstore\n        /* \"#utility.yul\":21098:21229   */\n      tag_500\n        /* \"#utility.yul\":21224:21228   */\n      dup2\n        /* \"#utility.yul\":21098:21229   */\n      tag_273\n      jump\t// in\n    tag_500:\n        /* \"#utility.yul\":21090:21229   */\n      swap1\n      pop\n        /* \"#utility.yul\":20817:21236   */\n      swap2\n      swap1\n      pop\n      jump\t// out\n        /* \"#utility.yul\":21242:21422   */\n    tag_274:\n        /* \"#utility.yul\":21290:21367   */\n      0x4e487b7100000000000000000000000000000000000000000000000000000000\n        /* \"#utility.yul\":21287:21288   */\n      0x00\n        /* \"#utility.yul\":21280:21368   */\n      mstore\n        /* \"#utility.yul\":21387:21391   */\n      0x41\n        /* \"#utility.yul\":21384:21385   */\n      0x04\n        /* \"#utility.yul\":21377:21392   */\n      mstore\n        /* \"#utility.yul\":21411:21415   */\n      0x24\n        /* \"#utility.yul\":21408:21409   */\n      0x00\n        /* \"#utility.yul\":21401:21416   */\n      revert\n        /* \"#utility.yul\":21428:21569   */\n    tag_275:\n        /* \"#utility.yul\":21477:21481   */\n      0x00\n        /* \"#utility.yul\":21500:21503   */\n      dup2\n        /* \"#utility.yul\":21492:21503   */\n      swap1\n      pop\n        /* \"#utility.yul\":21523:21526   */\n      dup2\n        /* \"#utility.yul\":21520:21521   */\n      0x00\n        /* \"#utility.yul\":21513:21527   */\n      mstore\n        /* \"#utility.yul\":21557:21561   */\n      0x20\n        /* \"#utility.yul\":21554:21555   */\n      0x00\n        /* \"#utility.yul\":21544:21562   */\n      keccak256\n        /* \"#utility.yul\":21536:21562   */\n      swap1\n      pop\n        /* \"#utility.yul\":21428:21569   */\n      swap2\n      swap1\n      pop\n      jump\t// out\n        /* \"#utility.yul\":21575:21668   */\n    tag_276:\n        /* \"#utility.yul\":21612:21618   */\n      0x00\n        /* \"#utility.yul\":21659:21661   */\n      0x20\n        /* \"#utility.yul\":21654:21656   */\n      0x1f\n        /* \"#utility.yul\":21647:21652   */\n      dup4\n        /* \"#utility.yul\":21643:21657   */\n      add\n        /* \"#utility.yul\":21639:21662   */\n      div\n        /* \"#utility.yul\":21629:21662   */\n      swap1\n      pop\n        /* \"#utility.yul\":21575:21668   */\n      swap2\n      swap1\n      pop\n      jump\t// out\n        /* \"#utility.yul\":21674:21781   */\n    tag_277:\n        /* \"#utility.yul\":21718:21726   */\n      0x00\n        /* \"#utility.yul\":21768:21773   */\n      dup3\n        /* \"#utility.yul\":21762:21766   */\n      dup3\n        /* \"#utility.yul\":21758:21774   */\n      shl\n        /* \"#utility.yul\":21737:21774   */\n      swap1\n      pop\n        /* \"#utility.yul\":21674:21781   */\n      swap3\n      swap2\n      pop\n      pop\n      jump\t// out\n        /* \"#utility.yul\":21787:22180   */\n    tag_278:\n        /* \"#utility.yul\":21856:21862   */\n      0x00\n        /* \"#utility.yul\":21906:21907   */\n      0x08\n        /* \"#utility.yul\":21894:21904   */\n      dup4\n        /* \"#utility.yul\":21890:21908   */\n      mul\n        /* \"#utility.yul\":21929:22026   */\n      tag_506\n        /* \"#utility.yul\":21959:22025   */\n      0xffffffffffffffffffffffffffffffffffffffffffffffffffffffffffffffff\n        /* \"#utility.yul\":21948:21957   */\n      dup3\n        /* \"#utility.yul\":21929:22026   */\n      tag_277\n      jump\t// in\n    tag_506:\n        /* \"#utility.yul\":22047:22086   */\n      tag_507\n        /* \"#utility.yul\":22077:22085   */\n      dup7\n        /* \"#utility.yul\":22066:22075   */\n      dup4\n        /* \"#utility.yul\":22047:22086   */\n      tag_277\n      jump\t// in\n    tag_507:\n        /* \"#utility.yul\":22035:22086   */\n      swap6\n      pop\n        /* \"#utility.yul\":22119:22123   */\n      dup1\n        /* \"#utility.yul\":22115:22124   */\n      not\n        /* \"#utility.yul\":22108:22113   */\n      dup5\n        /* \"#utility.yul\":22104:22125   */\n      and\n        /* \"#utility.yul\":22095:22125   */\n      swap4\n      pop\n        /* \"#utility.yul\":22168:22172   */\n      dup1\n        /* \"#utility.yul\":22158:22166   */\n      dup7\n        /* \"#utility.yul\":22154:22173   */\n      and\n        /* \"#utility.yul\":22147:22152   */\n      dup5\n        /* \"#utility.yul\":22144:22174   */\n      or\n        /* \"#utility.yul\":22134:22174   */\n      swap3\n      pop\n        /* \"#utility.yul\":21863:22180   */\n      pop\n      pop\n        /* \"#utility.yul\":21787:22180   */\n      swap4\n      swap3\n      pop\n      pop\n      pop\n      jump\t// out\n        /* \"#utility.yul\":22186:22246   */\n    tag_279:\n        /* \"#utility.yul\":22214:22217   */\n      0x00\n        /* \"#utility.yul\":22235:22240   */\n      dup2\n        /* \"#utility.yul\":22228:22240   */\n      swap1\n      pop\n        /* \"#utility.yul\":22186:22246   */\n      swap2\n      swap1\n      pop\n      jump\t// out\n        /* \"#utility.yul\":22252:22394   */\n    tag_280:\n        /* \"#utility.yul\":22302:22311   */\n      0x00\n        /* \"#utility.yul\":22335:22388   */\n      tag_510\n        /* \"#utility.yul\":22353:22387   */\n      tag_511\n        /* \"#utility.yul\":22362:22386   */\n      tag_512\n        /* \"#utility.yul\":22380:22385   */\n      dup5\n        /* \"#utility.yul\":22362:22386   */\n      tag_221\n      jump\t// in\n    tag_512:\n        /* \"#utility.yul\":22353:22387   */\n      tag_279\n      jump\t// in\n    tag_511:\n        /* \"#utility.yul\":22335:22388   */\n      tag_221\n      jump\t// in\n    tag_510:\n        /* \"#utility.yul\":22322:22388   */\n      swap1\n      pop\n        /* \"#utility.yul\":22252:22394   */\n      swap2\n      swap1\n      pop\n      jump\t// out\n        /* \"#utility.yul\":22400:22475   */\n    tag_281:\n        /* \"#utility.yul\":22443:22446   */\n      0x00\n        /* \"#utility.yul\":22464:22469   */\n      dup2\n        /* \"#utility.yul\":22457:22469   */\n      swap1\n      pop\n        /* \"#utility.yul\":22400:22475   */\n      swap2\n      swap1\n      pop\n      jump\t// out\n        /* \"#utility.yul\":22481:22750   */\n    tag_282:\n        /* \"#utility.yul\":22591:22630   */\n      tag_515\n        /* \"#utility.yul\":22622:22629   */\n      dup4\n        /* \"#utility.yul\":22591:22630   */\n      tag_280\n      jump\t// in\n    tag_515:\n        /* \"#utility.yul\":22652:22743   */\n      tag_516\n        /* \"#utility.yul\":22701:22742   */\n      tag_517\n        /* \"#utility.yul\":22725:22741   */\n      dup3\n        /* \"#utility.yul\":22701:22742   */\n      tag_281\n      jump\t// in\n    tag_517:\n        /* \"#utility.yul\":22693:22699   */\n      dup5\n        /* \"#utility.yul\":22686:22690   */\n      dup5\n        /* \"#utility.yul\":22680:22691   */\n      sload\n        /* \"#utility.yul\":22652:22743   */\n      tag_278\n      jump\t// in\n    tag_516:\n        /* \"#utility.yul\":22646:22650   */\n      dup3\n        /* \"#utility.yul\":22639:22744   */\n      sstore\n        /* \"#utility.yul\":22557:22750   */\n      pop\n        /* \"#utility.yul\":22481:22750   */\n      pop\n      pop\n      pop\n      jump\t// out\n        /* \"#utility.yul\":22756:22829   */\n    tag_283:\n        /* \"#utility.yul\":22801:22804   */\n      0x00\n        /* \"#utility.yul\":22822:22823   */\n      0x00\n        /* \"#utility.yul\":22815:22823   */\n      swap1\n      pop\n        /* \"#utility.yul\":22756:22829   */\n      swap1\n      jump\t// out\n        /* \"#utility.yul\":22835:23024   */\n    tag_284:\n        /* \"#utility.yul\":22912:22944   */\n      tag_520\n      tag_283\n      jump\t// in\n    tag_520:\n        /* \"#utility.yul\":22953:23018   */\n      tag_521\n        /* \"#utility.yul\":23011:23017   */\n      dup2\n        /* \"#utility.yul\":23003:23009   */\n      dup5\n        /* \"#utility.yul\":22997:23001   */\n      dup5\n        /* \"#utility.yul\":22953:23018   */\n      tag_282\n      jump\t// in\n    tag_521:\n        /* \"#utility.yul\":22888:23024   */\n      pop\n        /* \"#utility.yul\":22835:23024   */\n      pop\n      pop\n      jump\t// out\n        /* \"#utility.yul\":23030:23216   */\n    tag_285:\n        /* \"#utility.yul\":23090:23210   */\n    tag_523:\n        /* \"#utility.yul\":23107:23110   */\n      dup2\n        /* \"#utility.yul\":23100:23105   */\n      dup2\n        /* \"#utility.yul\":23097:23111   */\n      lt\n        /* \"#utility.yul\":23090:23210   */\n      iszero\n      tag_525\n      jumpi\n        /* \"#utility.yul\":23161:23200   */\n      tag_526\n        /* \"#utility.yul\":23198:23199   */\n      0x00\n        /* \"#utility.yul\":23191:23196   */\n      dup3\n        /* \"#utility.yul\":23161:23200   */\n      tag_284\n      jump\t// in\n    tag_526:\n        /* \"#utility.yul\":23134:23135   */\n      0x01\n        /* \"#utility.yul\":23127:23132   */\n      dup2\n        /* \"#utility.yul\":23123:23136   */\n      add\n        /* \"#utility.yul\":23114:23136   */\n      swap1\n      pop\n        /* \"#utility.yul\":23090:23210   */\n      jump(tag_523)\n    tag_525:\n        /* \"#utility.yul\":23030:23216   */\n      pop\n      pop\n      jump\t// out\n        /* \"#utility.yul\":23222:23765   */\n    tag_286:\n        /* \"#utility.yul\":23323:23325   */\n      0x1f\n        /* \"#utility.yul\":23318:23321   */\n      dup3\n        /* \"#utility.yul\":23315:23326   */\n      gt\n        /* \"#utility.yul\":23312:23758   */\n      iszero\n      tag_528\n      jumpi\n        /* \"#utility.yul\":23357:23395   */\n      tag_529\n        /* \"#utility.yul\":23389:23394   */\n      dup2\n        /* \"#utility.yul\":23357:23395   */\n      tag_275\n      jump\t// in\n    tag_529:\n        /* \"#utility.yul\":23441:23470   */\n      tag_530\n        /* \"#utility.yul\":23459:23469   */\n      dup5\n        /* \"#utility.yul\":23441:23470   */\n      tag_276\n      jump\t// in\n    tag_530:\n        /* \"#utility.yul\":23431:23439   */\n      dup2\n        /* \"#utility.yul\":23427:23471   */\n      add\n        /* \"#utility.yul\":23624:23626   */\n      0x20\n        /* \"#utility.yul\":23612:23622   */\n      dup6\n        /* \"#utility.yul\":23609:23627   */\n      lt\n        /* \"#utility.yul\":23606:23655   */\n      iszero\n      tag_531\n      jumpi\n        /* \"#utility.yul\":23645:23653   */\n      dup2\n        /* \"#utility.yul\":23630:23653   */\n      swap1\n      pop\n        /* \"#utility.yul\":23606:23655   */\n    tag_531:\n        /* \"#utility.yul\":23668:23748   */\n      tag_532\n        /* \"#utility.yul\":23724:23746   */\n      tag_533\n        /* \"#utility.yul\":23742:23745   */\n      dup6\n        /* \"#utility.yul\":23724:23746   */\n      tag_276\n      jump\t// in\n    tag_533:\n        /* \"#utility.yul\":23714:23722   */\n      dup4\n        /* \"#utility.yul\":23710:23747   */\n      add\n        /* \"#utility.yul\":23697:23708   */\n      dup3\n        /* \"#utility.yul\":23668:23748   */\n      tag_285\n      jump\t// in\n    tag_532:\n        /* \"#utility.yul\":23327:23758   */\n      pop\n      pop\n        /* \"#utility.yul\":23312:23758   */\n    tag_528:\n        /* \"#utility.yul\":23222:23765   */\n      pop\n      pop\n      pop\n      jump\t// out\n        /* \"#utility.yul\":23771:23888   */\n    tag_287:\n        /* \"#utility.yul\":23825:23833   */\n      0x00\n        /* \"#utility.yul\":23875:23880   */\n      dup3\n        /* \"#utility.yul\":23869:23873   */\n      dup3\n        /* \"#utility.yul\":23865:23881   */\n      shr\n        /* \"#utility.yul\":23844:23881   */\n      swap1\n      pop\n        /* \"#utility.yul\":23771:23888   */\n      swap3\n      swap2\n      pop\n      pop\n      jump\t// out\n        /* \"#utility.yul\":23894:24063   */\n    tag_288:\n        /* \"#utility.yul\":23938:23944   */\n      0x00\n        /* \"#utility.yul\":23971:24022   */\n      tag_536\n        /* \"#utility.yul\":24019:24020   */\n      0x00\n        /* \"#utility.yul\":24015:24021   */\n      not\n        /* \"#utility.yul\":24007:24012   */\n      dup5\n        /* \"#utility.yul\":24004:24005   */\n      0x08\n        /* \"#utility.yul\":24000:24013   */\n      mul\n        /* \"#utility.yul\":23971:24022   */\n      tag_287\n      jump\t// in\n    tag_536:\n        /* \"#utility.yul\":23967:24023   */\n      not\n        /* \"#utility.yul\":24052:24056   */\n      dup1\n        /* \"#utility.yul\":24046:24050   */\n      dup4\n        /* \"#utility.yul\":24042:24057   */\n      and\n        /* \"#utility.yul\":24032:24057   */\n      swap2\n      pop\n        /* \"#utility.yul\":23945:24063   */\n      pop\n        /* \"#utility.yul\":23894:24063   */\n      swap3\n      swap2\n      pop\n      pop\n      jump\t// out\n        /* \"#utility.yul\":24068:24363   */\n    tag_289:\n        /* \"#utility.yul\":24144:24148   */\n      0x00\n        /* \"#utility.yul\":24290:24319   */\n      tag_538\n        /* \"#utility.yul\":24315:24318   */\n      dup4\n        /* \"#utility.yul\":24309:24313   */\n      dup4\n        /* \"#utility.yul\":24290:24319   */\n      tag_288\n      jump\t// in\n    tag_538:\n        /* \"#utility.yul\":24282:24319   */\n      swap2\n      pop\n        /* \"#utility.yul\":24352:24355   */\n      dup3\n        /* \"#utility.yul\":24349:24350   */\n      0x02\n        /* \"#utility.yul\":24345:24356   */\n      mul\n        /* \"#utility.yul\":24339:24343   */\n      dup3\n        /* \"#utility.yul\":24336:24357   */\n      or\n        /* \"#utility.yul\":24328:24357   */\n      swap1\n      pop\n        /* \"#utility.yul\":24068:24363   */\n      swap3\n      swap2\n      pop\n      pop\n      jump\t// out\n        /* \"#utility.yul\":24368:25763   */\n    tag_141:\n        /* \"#utility.yul\":24485:24522   */\n      tag_540\n        /* \"#utility.yul\":24518:24521   */\n      dup3\n        /* \"#utility.yul\":24485:24522   */\n      tag_223\n      jump\t// in\n    tag_540:\n        /* \"#utility.yul\":24587:24605   */\n      0xffffffffffffffff\n        /* \"#utility.yul\":24579:24585   */\n      dup2\n        /* \"#utility.yul\":24576:24606   */\n      gt\n        /* \"#utility.yul\":24573:24629   */\n      iszero\n      tag_541\n      jumpi\n        /* \"#utility.yul\":24609:24627   */\n      tag_542\n      tag_274\n      jump\t// in\n    tag_542:\n        /* \"#utility.yul\":24573:24629   */\n    tag_541:\n        /* \"#utility.yul\":24653:24691   */\n      tag_543\n        /* \"#utility.yul\":24685:24689   */\n      dup3\n        /* \"#utility.yul\":24679:24690   */\n      sload\n        /* \"#utility.yul\":24653:24691   */\n      tag_65\n      jump\t// in\n    tag_543:\n        /* \"#utility.yul\":24738:24805   */\n      tag_544\n        /* \"#utility.yul\":24798:24804   */\n      dup3\n        /* \"#utility.yul\":24790:24796   */\n      dup3\n        /* \"#utility.yul\":24784:24788   */\n      dup6\n        /* \"#utility.yul\":24738:24805   */\n      tag_286\n      jump\t// in\n    tag_544:\n        /* \"#utility.yul\":24832:24833   */\n      0x00\n        /* \"#utility.yul\":24856:24860   */\n      0x20\n        /* \"#utility.yul\":24843:24860   */\n      swap1\n      pop\n        /* \"#utility.yul\":24888:24890   */\n      0x1f\n        /* \"#utility.yul\":24880:24886   */\n      dup4\n        /* \"#utility.yul\":24877:24891   */\n      gt\n        /* \"#utility.yul\":24905:24906   */\n      0x01\n        /* \"#utility.yul\":24900:25518   */\n      dup2\n      eq\n      tag_546\n      jumpi\n        /* \"#utility.yul\":25562:25563   */\n      0x00\n        /* \"#utility.yul\":25579:25585   */\n      dup5\n        /* \"#utility.yul\":25576:25653   */\n      iszero\n      tag_547\n      jumpi\n        /* \"#utility.yul\":25628:25637   */\n      dup3\n        /* \"#utility.yul\":25623:25626   */\n      dup8\n        /* \"#utility.yul\":25619:25638   */\n      add\n        /* \"#utility.yul\":25613:25639   */\n      mload\n        /* \"#utility.yul\":25604:25639   */\n      swap1\n      pop\n        /* \"#utility.yul\":25576:25653   */\n    tag_547:\n        /* \"#utility.yul\":25679:25746   */\n      tag_548\n        /* \"#utility.yul\":25739:25745   */\n      dup6\n        /* \"#utility.yul\":25732:25737   */\n      dup3\n        /* \"#utility.yul\":25679:25746   */\n      tag_289\n      jump\t// in\n    tag_548:\n        /* \"#utility.yul\":25673:25677   */\n      dup7\n        /* \"#utility.yul\":25666:25747   */\n      sstore\n        /* \"#utility.yul\":25535:25757   */\n      pop\n        /* \"#utility.yul\":24870:25757   */\n      jump(tag_545)\n        /* \"#utility.yul\":24900:25518   */\n    tag_546:\n        /* \"#utility.yul\":24952:24956   */\n      0x1f\n        /* \"#utility.yul\":24948:24957   */\n      not\n        /* \"#utility.yul\":24940:24946   */\n      dup5\n        /* \"#utility.yul\":24936:24958   */\n      and\n        /* \"#utility.yul\":24986:25023   */\n      tag_549\n        /* \"#utility.yul\":25018:25022   */\n      dup7\n        /* \"#utility.yul\":24986:25023   */\n      tag_275\n      jump\t// in\n    tag_549:\n        /* \"#utility.yul\":25045:25046   */\n      0x00\n        /* \"#utility.yul\":25059:25267   */\n    tag_550:\n        /* \"#utility.yul\":25073:25080   */\n      dup3\n        /* \"#utility.yul\":25070:25071   */\n      dup2\n        /* \"#utility.yul\":25067:25081   */\n      lt\n        /* \"#utility.yul\":25059:25267   */\n      iszero\n      tag_552\n      jumpi\n        /* \"#utility.yul\":25152:25161   */\n      dup5\n        /* \"#utility.yul\":25147:25150   */\n      dup10\n        /* \"#utility.yul\":25143:25162   */\n      add\n        /* \"#utility.yul\":25137:25163   */\n      mload\n        /* \"#utility.yul\":25129:25135   */\n      dup3\n        /* \"#utility.yul\":25122:25164   */\n      sstore\n        /* \"#utility.yul\":25203:25204   */\n      0x01\n        /* \"#utility.yul\":25195:25201   */\n      dup3\n        /* \"#utility.yul\":25191:25205   */\n      add\n        /* \"#utility.yul\":25181:25205   */\n      swap2\n      pop\n        /* \"#utility.yul\":25250:25252   */\n      0x20\n        /* \"#utility.yul\":25239:25248   */\n      dup6\n        /* \"#utility.yul\":25235:25253   */\n      add\n        /* \"#utility.yul\":25222:25253   */\n      swap5\n      pop\n        /* \"#utility.yul\":25096:25100   */\n      0x20\n        /* \"#utility.yul\":25093:25094   */\n      dup2\n        /* \"#utility.yul\":25089:25101   */\n      add\n        /* \"#utility.yul\":25084:25101   */\n      swap1\n      pop\n        /* \"#utility.yul\":25059:25267   */\n      jump(tag_550)\n    tag_552:\n        /* \"#utility.yul\":25295:25301   */\n      dup7\n        /* \"#utility.yul\":25286:25293   */\n      dup4\n        /* \"#utility.yul\":25283:25302   */\n      lt\n        /* \"#utility.yul\":25280:25459   */\n      iszero\n      tag_553\n      jumpi\n        /* \"#utility.yul\":25353:25362   */\n      dup5\n        /* \"#utility.yul\":25348:25351   */\n      dup10\n        /* \"#utility.yul\":25344:25363   */\n      add\n        /* \"#utility.yul\":25338:25364   */\n      mload\n        /* \"#utility.yul\":25396:25444   */\n      tag_554\n        /* \"#utility.yul\":25438:25442   */\n      0x1f\n        /* \"#utility.yul\":25430:25436   */\n      dup10\n        /* \"#utility.yul\":25426:25443   */\n      and\n        /* \"#utility.yul\":25415:25424   */\n      dup3\n        /* \"#utility.yul\":25396:25444   */\n      tag_288\n      jump\t// in\n    tag_554:\n        /* \"#utility.yul\":25388:25394   */\n      dup4\n        /* \"#utility.yul\":25381:25445   */\n      sstore\n        /* \"#utility.yul\":25303:25459   */\n      pop\n        /* \"#utility.yul\":25280:25459   */\n    tag_553:\n        /* \"#utility.yul\":25505:25506   */\n      0x01\n        /* \"#utility.yul\":25501:25502   */\n      0x02\n        /* \"#utility.yul\":25493:25499   */\n      dup9\n        /* \"#utility.yul\":25489:25503   */\n      mul\n        /* \"#utility.yul\":25485:25507   */\n      add\n        /* \"#utility.yul\":25479:25483   */\n      dup9\n        /* \"#utility.yul\":25472:25508   */\n      sstore\n        /* \"#utility.yul\":24907:25518   */\n      pop\n      pop\n      pop\n        /* \"#utility.yul\":24870:25757   */\n    tag_545:\n      pop\n        /* \"#utility.yul\":24460:25763   */\n      pop\n      pop\n      pop\n        /* \"#utility.yul\":24368:25763   */\n      pop\n      pop\n      jump\t// out\n        /* \"#utility.yul\":25769:26101   */\n    tag_149:\n        /* \"#utility.yul\":25890:25894   */\n      0x00\n        /* \"#utility.yul\":25928:25930   */\n      0x40\n        /* \"#utility.yul\":25917:25926   */\n      dup3\n        /* \"#utility.yul\":25913:25931   */\n      add\n        /* \"#utility.yul\":25905:25931   */\n      swap1\n      pop\n        /* \"#utility.yul\":25941:26012   */\n      tag_556\n        /* \"#utility.yul\":26009:26010   */\n      0x00\n        /* \"#utility.yul\":25998:26007   */\n      dup4\n        /* \"#utility.yul\":25994:26011   */\n      add\n        /* \"#utility.yul\":25985:25991   */\n      dup6\n        /* \"#utility.yul\":25941:26012   */\n      tag_234\n      jump\t// in\n    tag_556:\n        /* \"#utility.yul\":26022:26094   */\n      tag_557\n        /* \"#utility.yul\":26090:26092   */\n      0x20\n        /* \"#utility.yul\":26079:26088   */\n      dup4\n        /* \"#utility.yul\":26075:26093   */\n      add\n        /* \"#utility.yul\":26066:26072   */\n      dup5\n        /* \"#utility.yul\":26022:26094   */\n      tag_222\n      jump\t// in\n    tag_557:\n        /* \"#utility.yul\":25769:26101   */\n      swap4\n      swap3\n      pop\n      pop\n      pop\n      jump\t// out\n        /* \"#utility.yul\":26107:26270   */\n    tag_290:\n        /* \"#utility.yul\":26247:26262   */\n      0x4e6f74206120747261696e657200000000000000000000000000000000000000\n        /* \"#utility.yul\":26243:26244   */\n      0x00\n        /* \"#utility.yul\":26235:26241   */\n      dup3\n        /* \"#utility.yul\":26231:26245   */\n      add\n        /* \"#utility.yul\":26224:26263   */\n      mstore\n        /* \"#utility.yul\":26107:26270   */\n      pop\n      jump\t// out\n        /* \"#utility.yul\":26276:26642   */\n    tag_291:\n        /* \"#utility.yul\":26418:26421   */\n      0x00\n        /* \"#utility.yul\":26439:26506   */\n      tag_560\n        /* \"#utility.yul\":26503:26505   */\n      0x0d\n        /* \"#utility.yul\":26498:26501   */\n      dup4\n        /* \"#utility.yul\":26439:26506   */\n      tag_224\n      jump\t// in\n    tag_560:\n        /* \"#utility.yul\":26432:26506   */\n      swap2\n      pop\n        /* \"#utility.yul\":26515:26608   */\n      tag_561\n        /* \"#utility.yul\":26604:26607   */\n      dup3\n        /* \"#utility.yul\":26515:26608   */\n      tag_290\n      jump\t// in\n    tag_561:\n        /* \"#utility.yul\":26633:26635   */\n      0x20\n        /* \"#utility.yul\":26628:26631   */\n      dup3\n        /* \"#utility.yul\":26624:26636   */\n      add\n        /* \"#utility.yul\":26617:26636   */\n      swap1\n      pop\n        /* \"#utility.yul\":26276:26642   */\n      swap2\n      swap1\n      pop\n      jump\t// out\n        /* \"#utility.yul\":26648:27067   */\n    tag_159:\n        /* \"#utility.yul\":26814:26818   */\n      0x00\n        /* \"#utility.yul\":26852:26854   */\n      0x20\n        /* \"#utility.yul\":26841:26850   */\n      dup3\n        /* \"#utility.yul\":26837:26855   */\n      add\n        /* \"#utility.yul\":26829:26855   */\n      swap1\n      pop\n        /* \"#utility.yul\":26901:26910   */\n      dup2\n        /* \"#utility.yul\":26895:26899   */\n      dup2\n        /* \"#utility.yul\":26891:26911   */\n      sub\n        /* \"#utility.yul\":26887:26888   */\n      0x00\n        /* \"#utility.yul\":26876:26885   */\n      dup4\n        /* \"#utility.yul\":26872:26889   */\n      add\n        /* \"#utility.yul\":26865:26912   */\n      mstore\n        /* \"#utility.yul\":26929:27060   */\n      tag_563\n        /* \"#utility.yul\":27055:27059   */\n      dup2\n        /* \"#utility.yul\":26929:27060   */\n      tag_291\n      jump\t// in\n    tag_563:\n        /* \"#utility.yul\":26921:27060   */\n      swap1\n      pop\n        /* \"#utility.yul\":26648:27067   */\n      swap2\n      swap1\n      pop\n      jump\t// out\n        /* \"#utility.yul\":27073:27253   */\n    tag_292:\n        /* \"#utility.yul\":27121:27198   */\n      0x4e487b7100000000000000000000000000000000000000000000000000000000\n        /* \"#utility.yul\":27118:27119   */\n      0x00\n        /* \"#utility.yul\":27111:27199   */\n      mstore\n        /* \"#utility.yul\":27218:27222   */\n      0x11\n        /* \"#utility.yul\":27215:27216   */\n      0x04\n        /* \"#utility.yul\":27208:27223   */\n      mstore\n        /* \"#utility.yul\":27242:27246   */\n      0x24\n        /* \"#utility.yul\":27239:27240   */\n      0x00\n        /* \"#utility.yul\":27232:27247   */\n      revert\n        /* \"#utility.yul\":27259:27450   */\n    tag_165:\n        /* \"#utility.yul\":27297:27301   */\n      0x00\n        /* \"#utility.yul\":27317:27335   */\n      tag_566\n        /* \"#utility.yul\":27333:27334   */\n      dup3\n        /* \"#utility.yul\":27317:27335   */\n      tag_237\n      jump\t// in\n    tag_566:\n        /* \"#utility.yul\":27312:27335   */\n      swap2\n      pop\n        /* \"#utility.yul\":27349:27367   */\n      tag_567\n        /* \"#utility.yul\":27365:27366   */\n      dup4\n        /* \"#utility.yul\":27349:27367   */\n      tag_237\n      jump\t// in\n    tag_567:\n        /* \"#utility.yul\":27344:27367   */\n      swap3\n      pop\n        /* \"#utility.yul\":27391:27392   */\n      dup3\n        /* \"#utility.yul\":27388:27389   */\n      dup3\n        /* \"#utility.yul\":27384:27393   */\n      sub\n        /* \"#utility.yul\":27376:27393   */\n      swap1\n      pop\n        /* \"#utility.yul\":27415:27419   */\n      0xff\n        /* \"#utility.yul\":27409:27413   */\n      dup2\n        /* \"#utility.yul\":27406:27420   */\n      gt\n        /* \"#utility.yul\":27403:27443   */\n      iszero\n      tag_568\n      jumpi\n        /* \"#utility.yul\":27423:27441   */\n      tag_569\n      tag_292\n      jump\t// in\n    tag_569:\n        /* \"#utility.yul\":27403:27443   */\n    tag_568:\n        /* \"#utility.yul\":27259:27450   */\n      swap3\n      swap2\n      pop\n      pop\n      jump\t// out\n        /* \"#utility.yul\":27456:27636   */\n    tag_168:\n        /* \"#utility.yul\":27504:27581   */\n      0x4e487b7100000000000000000000000000000000000000000000000000000000\n        /* \"#utility.yul\":27501:27502   */\n      0x00\n        /* \"#utility.yul\":27494:27582   */\n      mstore\n        /* \"#utility.yul\":27601:27605   */\n      0x32\n        /* \"#utility.yul\":27598:27599   */\n      0x04\n        /* \"#utility.yul\":27591:27606   */\n      mstore\n        /* \"#utility.yul\":27625:27629   */\n      0x24\n        /* \"#utility.yul\":27622:27623   */\n      0x00\n        /* \"#utility.yul\":27615:27630   */\n      revert\n        /* \"#utility.yul\":27642:27809   */\n    tag_170:\n        /* \"#utility.yul\":27679:27682   */\n      0x00\n        /* \"#utility.yul\":27702:27724   */\n      tag_572\n        /* \"#utility.yul\":27718:27723   */\n      dup3\n        /* \"#utility.yul\":27702:27724   */\n      tag_237\n      jump\t// in\n    tag_572:\n        /* \"#utility.yul\":27693:27724   */\n      swap2\n      pop\n        /* \"#utility.yul\":27746:27750   */\n      0xff\n        /* \"#utility.yul\":27739:27744   */\n      dup3\n        /* \"#utility.yul\":27736:27751   */\n      sub\n        /* \"#utility.yul\":27733:27774   */\n      tag_573\n      jumpi\n        /* \"#utility.yul\":27754:27772   */\n      tag_574\n      tag_292\n      jump\t// in\n    tag_574:\n        /* \"#utility.yul\":27733:27774   */\n    tag_573:\n        /* \"#utility.yul\":27801:27802   */\n      0x01\n        /* \"#utility.yul\":27794:27799   */\n      dup3\n        /* \"#utility.yul\":27790:27803   */\n      add\n        /* \"#utility.yul\":27783:27803   */\n      swap1\n      pop\n        /* \"#utility.yul\":27642:27809   */\n      swap2\n      swap1\n      pop\n      jump\t// out\n        /* \"#utility.yul\":27815:27989   */\n    tag_293:\n        /* \"#utility.yul\":27955:27981   */\n      0x4f6e6c79205061727469636970616e7420616c6c6f7765640000000000000000\n        /* \"#utility.yul\":27951:27952   */\n      0x00\n        /* \"#utility.yul\":27943:27949   */\n      dup3\n        /* \"#utility.yul\":27939:27953   */\n      add\n        /* \"#utility.yul\":27932:27982   */\n      mstore\n        /* \"#utility.yul\":27815:27989   */\n      pop\n      jump\t// out\n        /* \"#utility.yul\":27995:28361   */\n    tag_294:\n        /* \"#utility.yul\":28137:28140   */\n      0x00\n        /* \"#utility.yul\":28158:28225   */\n      tag_577\n        /* \"#utility.yul\":28222:28224   */\n      0x18\n        /* \"#utility.yul\":28217:28220   */\n      dup4\n        /* \"#utility.yul\":28158:28225   */\n      tag_224\n      jump\t// in\n    tag_577:\n        /* \"#utility.yul\":28151:28225   */\n      swap2\n      pop\n        /* \"#utility.yul\":28234:28327   */\n      tag_578\n        /* \"#utility.yul\":28323:28326   */\n      dup3\n        /* \"#utility.yul\":28234:28327   */\n      tag_293\n      jump\t// in\n    tag_578:\n        /* \"#utility.yul\":28352:28354   */\n      0x20\n        /* \"#utility.yul\":28347:28350   */\n      dup3\n        /* \"#utility.yul\":28343:28355   */\n      add\n        /* \"#utility.yul\":28336:28355   */\n      swap1\n      pop\n        /* \"#utility.yul\":27995:28361   */\n      swap2\n      swap1\n      pop\n      jump\t// out\n        /* \"#utility.yul\":28367:28786   */\n    tag_188:\n        /* \"#utility.yul\":28533:28537   */\n      0x00\n        /* \"#utility.yul\":28571:28573   */\n      0x20\n        /* \"#utility.yul\":28560:28569   */\n      dup3\n        /* \"#utility.yul\":28556:28574   */\n      add\n        /* \"#utility.yul\":28548:28574   */\n      swap1\n      pop\n        /* \"#utility.yul\":28620:28629   */\n      dup2\n        /* \"#utility.yul\":28614:28618   */\n      dup2\n        /* \"#utility.yul\":28610:28630   */\n      sub\n        /* \"#utility.yul\":28606:28607   */\n      0x00\n        /* \"#utility.yul\":28595:28604   */\n      dup4\n        /* \"#utility.yul\":28591:28608   */\n      add\n        /* \"#utility.yul\":28584:28631   */\n      mstore\n        /* \"#utility.yul\":28648:28779   */\n      tag_580\n        /* \"#utility.yul\":28774:28778   */\n      dup2\n        /* \"#utility.yul\":28648:28779   */\n      tag_294\n      jump\t// in\n    tag_580:\n        /* \"#utility.yul\":28640:28779   */\n      swap1\n      pop\n        /* \"#utility.yul\":28367:28786   */\n      swap2\n      swap1\n      pop\n      jump\t// out\n        /* \"#utility.yul\":28792:28961   */\n    tag_295:\n        /* \"#utility.yul\":28932:28953   */\n      0x4e6f7420612076616c696420747261696e657200000000000000000000000000\n        /* \"#utility.yul\":28928:28929   */\n      0x00\n        /* \"#utility.yul\":28920:28926   */\n      dup3\n        /* \"#utility.yul\":28916:28930   */\n      add\n        /* \"#utility.yul\":28909:28954   */\n      mstore\n        /* \"#utility.yul\":28792:28961   */\n      pop\n      jump\t// out\n        /* \"#utility.yul\":28967:29333   */\n    tag_296:\n        /* \"#utility.yul\":29109:29112   */\n      0x00\n        /* \"#utility.yul\":29130:29197   */\n      tag_583\n        /* \"#utility.yul\":29194:29196   */\n      0x13\n        /* \"#utility.yul\":29189:29192   */\n      dup4\n        /* \"#utility.yul\":29130:29197   */\n      tag_224\n      jump\t// in\n    tag_583:\n        /* \"#utility.yul\":29123:29197   */\n      swap2\n      pop\n        /* \"#utility.yul\":29206:29299   */\n      tag_584\n        /* \"#utility.yul\":29295:29298   */\n      dup3\n        /* \"#utility.yul\":29206:29299   */\n      tag_295\n      jump\t// in\n    tag_584:\n        /* \"#utility.yul\":29324:29326   */\n      0x20\n        /* \"#utility.yul\":29319:29322   */\n      dup3\n        /* \"#utility.yul\":29315:29327   */\n      add\n        /* \"#utility.yul\":29308:29327   */\n      swap1\n      pop\n        /* \"#utility.yul\":28967:29333   */\n      swap2\n      swap1\n      pop\n      jump\t// out\n        /* \"#utility.yul\":29339:29758   */\n    tag_196:\n        /* \"#utility.yul\":29505:29509   */\n      0x00\n        /* \"#utility.yul\":29543:29545   */\n      0x20\n        /* \"#utility.yul\":29532:29541   */\n      dup3\n        /* \"#utility.yul\":29528:29546   */\n      add\n        /* \"#utility.yul\":29520:29546   */\n      swap1\n      pop\n        /* \"#utility.yul\":29592:29601   */\n      dup2\n        /* \"#utility.yul\":29586:29590   */\n      dup2\n        /* \"#utility.yul\":29582:29602   */\n      sub\n        /* \"#utility.yul\":29578:29579   */\n      0x00\n        /* \"#utility.yul\":29567:29576   */\n      dup4\n        /* \"#utility.yul\":29563:29580   */\n      add\n        /* \"#utility.yul\":29556:29603   */\n      mstore\n        /* \"#utility.yul\":29620:29751   */\n      tag_586\n        /* \"#utility.yul\":29746:29750   */\n      dup2\n        /* \"#utility.yul\":29620:29751   */\n      tag_296\n      jump\t// in\n    tag_586:\n        /* \"#utility.yul\":29612:29751   */\n      swap1\n      pop\n        /* \"#utility.yul\":29339:29758   */\n      swap2\n      swap1\n      pop\n      jump\t// out\n        /* \"#utility.yul\":29764:29926   */\n    tag_297:\n        /* \"#utility.yul\":29904:29918   */\n      0x496e76616c696420736c6f740000000000000000000000000000000000000000\n        /* \"#utility.yul\":29900:29901   */\n      0x00\n        /* \"#utility.yul\":29892:29898   */\n      dup3\n        /* \"#utility.yul\":29888:29902   */\n      add\n        /* \"#utility.yul\":29881:29919   */\n      mstore\n        /* \"#utility.yul\":29764:29926   */\n      pop\n      jump\t// out\n        /* \"#utility.yul\":29932:30298   */\n    tag_298:\n        /* \"#utility.yul\":30074:30077   */\n      0x00\n        /* \"#utility.yul\":30095:30162   */\n      tag_589\n        /* \"#utility.yul\":30159:30161   */\n      0x0c\n        /* \"#utility.yul\":30154:30157   */\n      dup4\n        /* \"#utility.yul\":30095:30162   */\n      tag_224\n      jump\t// in\n    tag_589:\n        /* \"#utility.yul\":30088:30162   */\n      swap2\n      pop\n        /* \"#utility.yul\":30171:30264   */\n      tag_590\n        /* \"#utility.yul\":30260:30263   */\n      dup3\n        /* \"#utility.yul\":30171:30264   */\n      tag_297\n      jump\t// in\n    tag_590:\n        /* \"#utility.yul\":30289:30291   */\n      0x20\n        /* \"#utility.yul\":30284:30287   */\n      dup3\n        /* \"#utility.yul\":30280:30292   */\n      add\n        /* \"#utility.yul\":30273:30292   */\n      swap1\n      pop\n        /* \"#utility.yul\":29932:30298   */\n      swap2\n      swap1\n      pop\n      jump\t// out\n        /* \"#utility.yul\":30304:30723   */\n    tag_200:\n        /* \"#utility.yul\":30470:30474   */\n      0x00\n        /* \"#utility.yul\":30508:30510   */\n      0x20\n        /* \"#utility.yul\":30497:30506   */\n      dup3\n        /* \"#utility.yul\":30493:30511   */\n      add\n        /* \"#utility.yul\":30485:30511   */\n      swap1\n      pop\n        /* \"#utility.yul\":30557:30566   */\n      dup2\n        /* \"#utility.yul\":30551:30555   */\n      dup2\n        /* \"#utility.yul\":30547:30567   */\n      sub\n        /* \"#utility.yul\":30543:30544   */\n      0x00\n        /* \"#utility.yul\":30532:30541   */\n      dup4\n        /* \"#utility.yul\":30528:30545   */\n      add\n        /* \"#utility.yul\":30521:30568   */\n      mstore\n        /* \"#utility.yul\":30585:30716   */\n      tag_592\n        /* \"#utility.yul\":30711:30715   */\n      dup2\n        /* \"#utility.yul\":30585:30716   */\n      tag_298\n      jump\t// in\n    tag_592:\n        /* \"#utility.yul\":30577:30716   */\n      swap1\n      pop\n        /* \"#utility.yul\":30304:30723   */\n      swap2\n      swap1\n      pop\n      jump\t// out\n        /* \"#utility.yul\":30729:30892   */\n    tag_299:\n        /* \"#utility.yul\":30869:30884   */\n      0x496e636f72726563742066656500000000000000000000000000000000000000\n        /* \"#utility.yul\":30865:30866   */\n      0x00\n        /* \"#utility.yul\":30857:30863   */\n      dup3\n        /* \"#utility.yul\":30853:30867   */\n      add\n        /* \"#utility.yul\":30846:30885   */\n      mstore\n        /* \"#utility.yul\":30729:30892   */\n      pop\n      jump\t// out\n        /* \"#utility.yul\":30898:31264   */\n    tag_300:\n        /* \"#utility.yul\":31040:31043   */\n      0x00\n        /* \"#utility.yul\":31061:31128   */\n      tag_595\n        /* \"#utility.yul\":31125:31127   */\n      0x0d\n        /* \"#utility.yul\":31120:31123   */\n      dup4\n        /* \"#utility.yul\":31061:31128   */\n      tag_224\n      jump\t// in\n    tag_595:\n        /* \"#utility.yul\":31054:31128   */\n      swap2\n      pop\n        /* \"#utility.yul\":31137:31230   */\n      tag_596\n        /* \"#utility.yul\":31226:31229   */\n      dup3\n        /* \"#utility.yul\":31137:31230   */\n      tag_299\n      jump\t// in\n    tag_596:\n        /* \"#utility.yul\":31255:31257   */\n      0x20\n        /* \"#utility.yul\":31250:31253   */\n      dup3\n        /* \"#utility.yul\":31246:31258   */\n      add\n        /* \"#utility.yul\":31239:31258   */\n      swap1\n      pop\n        /* \"#utility.yul\":30898:31264   */\n      swap2\n      swap1\n      pop\n      jump\t// out\n        /* \"#utility.yul\":31270:31689   */\n    tag_203:\n        /* \"#utility.yul\":31436:31440   */\n      0x00\n        /* \"#utility.yul\":31474:31476   */\n      0x20\n        /* \"#utility.yul\":31463:31472   */\n      dup3\n        /* \"#utility.yul\":31459:31477   */\n      add\n        /* \"#utility.yul\":31451:31477   */\n      swap1\n      pop\n        /* \"#utility.yul\":31523:31532   */\n      dup2\n        /* \"#utility.yul\":31517:31521   */\n      dup2\n        /* \"#utility.yul\":31513:31533   */\n      sub\n        /* \"#utility.yul\":31509:31510   */\n      0x00\n        /* \"#utility.yul\":31498:31507   */\n      dup4\n        /* \"#utility.yul\":31494:31511   */\n      add\n        /* \"#utility.yul\":31487:31534   */\n      mstore\n        /* \"#utility.yul\":31551:31682   */\n      tag_598\n        /* \"#utility.yul\":31677:31681   */\n      dup2\n        /* \"#utility.yul\":31551:31682   */\n      tag_300\n      jump\t// in\n    tag_598:\n        /* \"#utility.yul\":31543:31682   */\n      swap1\n      pop\n        /* \"#utility.yul\":31270:31689   */\n      swap2\n      swap1\n      pop\n      jump\t// out\n        /* \"#utility.yul\":31695:31867   */\n    tag_301:\n        /* \"#utility.yul\":31835:31859   */\n      0x547261696e657220616c726561647920626f6f6b656400000000000000000000\n        /* \"#utility.yul\":31831:31832   */\n      0x00\n        /* \"#utility.yul\":31823:31829   */\n      dup3\n        /* \"#utility.yul\":31819:31833   */\n      add\n        /* \"#utility.yul\":31812:31860   */\n      mstore\n        /* \"#utility.yul\":31695:31867   */\n      pop\n      jump\t// out\n        /* \"#utility.yul\":31873:32239   */\n    tag_302:\n        /* \"#utility.yul\":32015:32018   */\n      0x00\n        /* \"#utility.yul\":32036:32103   */\n      tag_601\n        /* \"#utility.yul\":32100:32102   */\n      0x16\n        /* \"#utility.yul\":32095:32098   */\n      dup4\n        /* \"#utility.yul\":32036:32103   */\n      tag_224\n      jump\t// in\n    tag_601:\n        /* \"#utility.yul\":32029:32103   */\n      swap2\n      pop\n        /* \"#utility.yul\":32112:32205   */\n      tag_602\n        /* \"#utility.yul\":32201:32204   */\n      dup3\n        /* \"#utility.yul\":32112:32205   */\n      tag_301\n      jump\t// in\n    tag_602:\n        /* \"#utility.yul\":32230:32232   */\n      0x20\n        /* \"#utility.yul\":32225:32228   */\n      dup3\n        /* \"#utility.yul\":32221:32233   */\n      add\n        /* \"#utility.yul\":32214:32233   */\n      swap1\n      pop\n        /* \"#utility.yul\":31873:32239   */\n      swap2\n      swap1\n      pop\n      jump\t// out\n        /* \"#utility.yul\":32245:32664   */\n    tag_206:\n        /* \"#utility.yul\":32411:32415   */\n      0x00\n        /* \"#utility.yul\":32449:32451   */\n      0x20\n        /* \"#utility.yul\":32438:32447   */\n      dup3\n        /* \"#utility.yul\":32434:32452   */\n      add\n        /* \"#utility.yul\":32426:32452   */\n      swap1\n      pop\n        /* \"#utility.yul\":32498:32507   */\n      dup2\n        /* \"#utility.yul\":32492:32496   */\n      dup2\n        /* \"#utility.yul\":32488:32508   */\n      sub\n        /* \"#utility.yul\":32484:32485   */\n      0x00\n        /* \"#utility.yul\":32473:32482   */\n      dup4\n        /* \"#utility.yul\":32469:32486   */\n      add\n        /* \"#utility.yul\":32462:32509   */\n      mstore\n        /* \"#utility.yul\":32526:32657   */\n      tag_604\n        /* \"#utility.yul\":32652:32656   */\n      dup2\n        /* \"#utility.yul\":32526:32657   */\n      tag_302\n      jump\t// in\n    tag_604:\n        /* \"#utility.yul\":32518:32657   */\n      swap1\n      pop\n        /* \"#utility.yul\":32245:32664   */\n      swap2\n      swap1\n      pop\n      jump\t// out\n        /* \"#utility.yul\":32670:32782   */\n    tag_303:\n        /* \"#utility.yul\":32753:32775   */\n      tag_606\n        /* \"#utility.yul\":32769:32774   */\n      dup2\n        /* \"#utility.yul\":32753:32775   */\n      tag_237\n      jump\t// in\n    tag_606:\n        /* \"#utility.yul\":32748:32751   */\n      dup3\n        /* \"#utility.yul\":32741:32776   */\n      mstore\n        /* \"#utility.yul\":32670:32782   */\n      pop\n      pop\n      jump\t// out\n        /* \"#utility.yul\":32788:33222   */\n    tag_213:\n        /* \"#utility.yul\":32933:32937   */\n      0x00\n        /* \"#utility.yul\":32971:32973   */\n      0x60\n        /* \"#utility.yul\":32960:32969   */\n      dup3\n        /* \"#utility.yul\":32956:32974   */\n      add\n        /* \"#utility.yul\":32948:32974   */\n      swap1\n      pop\n        /* \"#utility.yul\":32984:33055   */\n      tag_608\n        /* \"#utility.yul\":33052:33053   */\n      0x00\n        /* \"#utility.yul\":33041:33050   */\n      dup4\n        /* \"#utility.yul\":33037:33054   */\n      add\n        /* \"#utility.yul\":33028:33034   */\n      dup7\n        /* \"#utility.yul\":32984:33055   */\n      tag_234\n      jump\t// in\n    tag_608:\n        /* \"#utility.yul\":33065:33137   */\n      tag_609\n        /* \"#utility.yul\":33133:33135   */\n      0x20\n        /* \"#utility.yul\":33122:33131   */\n      dup4\n        /* \"#utility.yul\":33118:33136   */\n      add\n        /* \"#utility.yul\":33109:33115   */\n      dup6\n        /* \"#utility.yul\":33065:33137   */\n      tag_234\n      jump\t// in\n    tag_609:\n        /* \"#utility.yul\":33147:33215   */\n      tag_610\n        /* \"#utility.yul\":33211:33213   */\n      0x40\n        /* \"#utility.yul\":33200:33209   */\n      dup4\n        /* \"#utility.yul\":33196:33214   */\n      add\n        /* \"#utility.yul\":33187:33193   */\n      dup5\n        /* \"#utility.yul\":33147:33215   */\n      tag_303\n      jump\t// in\n    tag_610:\n        /* \"#utility.yul\":32788:33222   */\n      swap5\n      swap4\n      pop\n      pop\n      pop\n      pop\n      jump\t// out\n\n    auxdata: 0xa26469706673582212201bfd07db6c80eb01dd4ee2e54161e448dce75dffde352717d3cdbf968360ecf764736f6c634300081e0033\n}\n",
				"bytecode": {
					"linkReferences": {},
					"object": "6080604052348015600e575f5ffd5b5061249b8061001c5f395ff3fe608060405260043610610090575f3560e01c80638bbbae60116100585780638bbbae601461018d5780638ccd9032146101b5578063d3b9ad6b146101f1578063dc0dc24e14610207578063e00ef9361461022357610090565b806309e69ede1461009457806314bfd6d0146100d7578063498d55b8146101135780635a14a8141461012957806374d5e10014610151575b5f5ffd5b34801561009f575f5ffd5b506100ba60048036038101906100b591906114c3565b61024d565b6040516100ce989796959493929190611612565b60405180910390f35b3480156100e2575f5ffd5b506100fd60048036038101906100f891906116cd565b61045c565b60405161010a91906116f8565b60405180910390f35b34801561011e575f5ffd5b50610127610497565b005b348015610134575f5ffd5b5061014f600480360381019061014a9190611771565b610642565b005b34801561015c575f5ffd5b50610177600480360381019061017291906114c3565b610903565b6040516101849190611807565b60405180910390f35b348015610198575f5ffd5b506101b360048036038101906101ae9190611881565b61091f565b005b3480156101c0575f5ffd5b506101db60048036038101906101d691906114c3565b610d38565b6040516101e89190611a0f565b60405180910390f35b3480156101fc575f5ffd5b50610205610ef2565b005b610221600480360381019061021c9190611a28565b61103d565b005b34801561022e575f5ffd5b50610237611434565b6040516102449190611a66565b60405180910390f35b6002602052805f5260405f205f91509050805f01549080600101805461027290611aac565b80601f016020809104026020016040519081016040528092919081815260200182805461029e90611aac565b80156102e95780601f106102c0576101008083540402835291602001916102e9565b820191905f5260205f20905b8154815290600101906020018083116102cc57829003601f168201915b50505050509080600201549080600301805461030490611aac565b80601f016020809104026020016040519081016040528092919081815260200182805461033090611aac565b801561037b5780601f106103525761010080835404028352916020019161037b565b820191905f5260205f20905b81548152906001019060200180831161035e57829003601f168201915b50505050509080600401805461039090611aac565b80601f01602080910402602001604051908101604052809291908181526020018280546103bc90611aac565b80156104075780601f106103de57610100808354040283529160200191610407565b820191905f5260205f20905b8154815290600101906020018083116103ea57829003601f168201915b505050505090806005015f9054906101000a900460ff16908060050160019054906101000a900460ff16908060050160029054906101000a900473ffffffffffffffffffffffffffffffffffffffff16905088565b6001818154811061046b575f80fd5b905f5260205f20015f915054906101000a900473ffffffffffffffffffffffffffffffffffffffff1681565b5f60038111156104aa576104a9611576565b5b5f5f3373ffffffffffffffffffffffffffffffffffffffff1673ffffffffffffffffffffffffffffffffffffffff1681526020019081526020015f205f9054906101000a900460ff16600381111561050557610504611576565b5b14610545576040517f08c379a000000000000000000000000000000000000000000000000000000000815260040161053c90611b26565b60405180910390fd5b60015f5f3373ffffffffffffffffffffffffffffffffffffffff1673ffffffffffffffffffffffffffffffffffffffff1681526020019081526020015f205f6101000a81548160ff021916908360038111156105a4576105a3611576565b5b0217905550600133908060018154018082558091505060019003905f5260205f20015f9091909190916101000a81548173ffffffffffffffffffffffffffffffffffffffff021916908373ffffffffffffffffffffffffffffffffffffffff1602179055507fac0f15283d37631c15b481bc07dc402bcfc030956bcd94b5585f71d92e84c3da3360405161063891906116f8565b60405180910390a1565b6001600381111561065657610655611576565b5b5f5f3373ffffffffffffffffffffffffffffffffffffffff1673ffffffffffffffffffffffffffffffffffffffff1681526020019081526020015f205f9054906101000a900460ff1660038111156106b1576106b0611576565b5b146106f1576040517f08c379a00000000000000000000000000000000000000000000000000000000081526004016106e890611b8e565b60405180910390fd5b5f60025f8573ffffffffffffffffffffffffffffffffffffffff1673ffffffffffffffffffffffffffffffffffffffff1681526020019081526020015f2090505f8360ff161461080a5760018360ff1610158015610753575060038360ff1611155b610792576040517f08c379a000000000000000000000000000000000000000000000000000000000815260040161078990611bf6565b60405180910390fd5b8260ff1660038111156107a8576107a7611576565b5b816005015f6101000a81548160ff021916908360038111156107cd576107cc611576565b5b02179055507f077380cc4f1ff57ad464ec617331c7304c78fc6bfdd0e3b5efa221a3bb9f6e20846040516108019190611c5e565b60405180910390a15b81156108bb578060050160019054906101000a900460ff1615610862576040517f08c379a000000000000000000000000000000000000000000000000000000000815260040161085990611cd4565b60405180910390fd5b60018160050160016101000a81548160ff0219169083151502179055507f077380cc4f1ff57ad464ec617331c7304c78fc6bfdd0e3b5efa221a3bb9f6e20846040516108ae9190611d3c565b60405180910390a16108fd565b81156108fc576040517f08c379a00000000000000000000000000000000000000000000000000000000081526004016108f390611db2565b60405180910390fd5b5b50505050565b5f602052805f5260405f205f915054906101000a900460ff1681565b5f600381111561093257610931611576565b5b5f5f3373ffffffffffffffffffffffffffffffffffffffff1673ffffffffffffffffffffffffffffffffffffffff1681526020019081526020015f205f9054906101000a900460ff16600381111561098d5761098c611576565b5b146109cd576040517f08c379a00000000000000000000000000000000000000000000000000000000081526004016109c490611b26565b60405180910390fd5b60018160ff16101580156109e5575060038160ff1611155b610a24576040517f08c379a0000000000000000000000000000000000000000000000000000000008152600401610a1b90611e1a565b60405180910390fd5b6040518061010001604052808a815260200189898080601f0160208091040260200160405190810160405280939291908181526020018383808284375f81840152601f19601f82011690508083019250505050505050815260200187815260200186868080601f0160208091040260200160405190810160405280939291908181526020018383808284375f81840152601f19601f82011690508083019250505050505050815260200184848080601f0160208091040260200160405190810160405280939291908181526020018383808284375f81840152601f19601f8201169050808301925050505050505081526020018260ff166003811115610b2d57610b2c611576565b5b6003811115610b3f57610b3e611576565b5b81526020015f151581526020013373ffffffffffffffffffffffffffffffffffffffff1681525060025f3373ffffffffffffffffffffffffffffffffffffffff1673ffffffffffffffffffffffffffffffffffffffff1681526020019081526020015f205f820151815f01556020820151816001019081610bc09190612005565b50604082015181600201556060820151816003019081610be09190612005565b506080820151816004019081610bf69190612005565b5060a0820151816005015f6101000a81548160ff02191690836003811115610c2157610c20611576565b5b021790555060c08201518160050160016101000a81548160ff02191690831515021790555060e08201518160050160026101000a81548173ffffffffffffffffffffffffffffffffffffffff021916908373ffffffffffffffffffffffffffffffffffffffff16021790555090505060035f5f3373ffffffffffffffffffffffffffffffffffffffff1673ffffffffffffffffffffffffffffffffffffffff1681526020019081526020015f205f6101000a81548160ff02191690836003811115610cef57610cee611576565b5b02179055507fa48418fa780c651bef841ca082131ed20bc20c620dd0459bba9ab78550f5d623338a604051610d259291906120d4565b60405180910390a1505050505050505050565b610d4061143f565b60026003811115610d5457610d53611576565b5b5f5f8473ffffffffffffffffffffffffffffffffffffffff1673ffffffffffffffffffffffffffffffffffffffff1681526020019081526020015f205f9054906101000a900460ff166003811115610daf57610dae611576565b5b14610def576040517f08c379a0000000000000000000000000000000000000000000000000000000008152600401610de690612145565b60405180910390fd5b610df761143f565b5f600190505b60068160ff1611610ee85760035f8573ffffffffffffffffffffffffffffffffffffffff1673ffffffffffffffffffffffffffffffffffffffff1681526020019081526020015f205f015f8260ff1660ff1681526020019081526020015f205f9054906101000a900473ffffffffffffffffffffffffffffffffffffffff1682600183610e8a9190612190565b60ff1660068110610e9e57610e9d6121c4565b5b602002019073ffffffffffffffffffffffffffffffffffffffff16908173ffffffffffffffffffffffffffffffffffffffff16815250508080610ee0906121f1565b915050610dfd565b5080915050919050565b5f6003811115610f0557610f04611576565b5b5f5f3373ffffffffffffffffffffffffffffffffffffffff1673ffffffffffffffffffffffffffffffffffffffff1681526020019081526020015f205f9054906101000a900460ff166003811115610f6057610f5f611576565b5b14610fa0576040517f08c379a0000000000000000000000000000000000000000000000000000000008152600401610f9790611b26565b60405180910390fd5b60025f5f3373ffffffffffffffffffffffffffffffffffffffff1673ffffffffffffffffffffffffffffffffffffffff1681526020019081526020015f205f6101000a81548160ff02191690836003811115610fff57610ffe611576565b5b02179055507f672ed10db1686d24f0498d7222ee16112f36c3df1825007916800893ca842a123360405161103391906116f8565b60405180910390a1565b6003808111156110505761104f611576565b5b5f5f3373ffffffffffffffffffffffffffffffffffffffff1673ffffffffffffffffffffffffffffffffffffffff1681526020019081526020015f205f9054906101000a900460ff1660038111156110ab576110aa611576565b5b146110eb576040517f08c379a00000000000000000000000000000000000000000000000000000000081526004016110e290612263565b60405180910390fd5b600260038111156110ff576110fe611576565b5b5f5f8473ffffffffffffffffffffffffffffffffffffffff1673ffffffffffffffffffffffffffffffffffffffff1681526020019081526020015f205f9054906101000a900460ff16600381111561115a57611159611576565b5b1461119a576040517f08c379a0000000000000000000000000000000000000000000000000000000008152600401611191906122cb565b60405180910390fd5b60018160ff16101580156111b2575060068160ff1611155b6111f1576040517f08c379a00000000000000000000000000000000000000000000000000000000081526004016111e890612333565b60405180910390fd5b6658d15e17628000341461123a576040517f08c379a00000000000000000000000000000000000000000000000000000000081526004016112319061239b565b60405180910390fd5b5f60035f8473ffffffffffffffffffffffffffffffffffffffff1673ffffffffffffffffffffffffffffffffffffffff1681526020019081526020015f2090505f73ffffffffffffffffffffffffffffffffffffffff16815f015f8460ff1660ff1681526020019081526020015f205f9054906101000a900473ffffffffffffffffffffffffffffffffffffffff1673ffffffffffffffffffffffffffffffffffffffff161461131f576040517f08c379a000000000000000000000000000000000000000000000000000000000815260040161131690612403565b60405180910390fd5b33815f015f8460ff1660ff1681526020019081526020015f205f6101000a81548173ffffffffffffffffffffffffffffffffffffffff021916908373ffffffffffffffffffffffffffffffffffffffff16021790555060015f81548110611389576113886121c4565b5b905f5260205f20015f9054906101000a900473ffffffffffffffffffffffffffffffffffffffff1673ffffffffffffffffffffffffffffffffffffffff166108fc3490811502906040515f60405180830381858888f193505050501580156113f3573d5f5f3e3d5ffd5b507fe487069c0cb20caa4bb3232e0889f0368a1e4f6ef2640e563c06c1236ced95ac33848460405161142793929190612430565b60405180910390a1505050565b6658d15e1762800081565b6040518060c00160405280600690602082028036833780820191505090505090565b5f5ffd5b5f5ffd5b5f73ffffffffffffffffffffffffffffffffffffffff82169050919050565b5f61149282611469565b9050919050565b6114a281611488565b81146114ac575f5ffd5b50565b5f813590506114bd81611499565b92915050565b5f602082840312156114d8576114d7611461565b5b5f6114e5848285016114af565b91505092915050565b5f819050919050565b611500816114ee565b82525050565b5f81519050919050565b5f82825260208201905092915050565b8281835e5f83830152505050565b5f601f19601f8301169050919050565b5f61154882611506565b6115528185611510565b9350611562818560208601611520565b61156b8161152e565b840191505092915050565b7f4e487b71000000000000000000000000000000000000000000000000000000005f52602160045260245ffd5b600481106115b4576115b3611576565b5b50565b5f8190506115c4826115a3565b919050565b5f6115d3826115b7565b9050919050565b6115e3816115c9565b82525050565b5f8115159050919050565b6115fd816115e9565b82525050565b61160c81611488565b82525050565b5f610100820190506116265f83018b6114f7565b8181036020830152611638818a61153e565b905061164760408301896114f7565b8181036060830152611659818861153e565b9050818103608083015261166d818761153e565b905061167c60a08301866115da565b61168960c08301856115f4565b61169660e0830184611603565b9998505050505050505050565b6116ac816114ee565b81146116b6575f5ffd5b50565b5f813590506116c7816116a3565b92915050565b5f602082840312156116e2576116e1611461565b5b5f6116ef848285016116b9565b91505092915050565b5f60208201905061170b5f830184611603565b92915050565b5f60ff82169050919050565b61172681611711565b8114611730575f5ffd5b50565b5f813590506117418161171d565b92915050565b611750816115e9565b811461175a575f5ffd5b50565b5f8135905061176b81611747565b92915050565b5f5f5f6060848603121561178857611787611461565b5b5f611795868287016114af565b93505060206117a686828701611733565b92505060406117b78682870161175d565b9150509250925092565b600481106117d2576117d1611576565b5b50565b5f8190506117e2826117c1565b919050565b5f6117f1826117d5565b9050919050565b611801816117e7565b82525050565b5f60208201905061181a5f8301846117f8565b92915050565b5f5ffd5b5f5ffd5b5f5ffd5b5f5f83601f84011261184157611840611820565b5b8235905067ffffffffffffffff81111561185e5761185d611824565b5b60208301915083600182028301111561187a57611879611828565b5b9250929050565b5f5f5f5f5f5f5f5f5f60c08a8c03121561189e5761189d611461565b5b5f6118ab8c828d016116b9565b99505060208a013567ffffffffffffffff8111156118cc576118cb611465565b5b6118d88c828d0161182c565b985098505060406118eb8c828d016116b9565b96505060608a013567ffffffffffffffff81111561190c5761190b611465565b5b6119188c828d0161182c565b955095505060808a013567ffffffffffffffff81111561193b5761193a611465565b5b6119478c828d0161182c565b935093505060a061195a8c828d01611733565b9150509295985092959850929598565b5f60069050919050565b5f81905092915050565b5f819050919050565b61199081611488565b82525050565b5f6119a18383611987565b60208301905092915050565b5f602082019050919050565b6119c28161196a565b6119cc8184611974565b92506119d78261197e565b805f5b83811015611a075781516119ee8782611996565b96506119f9836119ad565b9250506001810190506119da565b505050505050565b5f60c082019050611a225f8301846119b9565b92915050565b5f5f60408385031215611a3e57611a3d611461565b5b5f611a4b858286016114af565b9250506020611a5c85828601611733565b9150509250929050565b5f602082019050611a795f8301846114f7565b92915050565b7f4e487b71000000000000000000000000000000000000000000000000000000005f52602260045260245ffd5b5f6002820490506001821680611ac357607f821691505b602082108103611ad657611ad5611a7f565b5b50919050565b7f416c7265616479207265676973746572656400000000000000000000000000005f82015250565b5f611b10601283611510565b9150611b1b82611adc565b602082019050919050565b5f6020820190508181035f830152611b3d81611b04565b9050919050565b7f4f6e6c792041646d696e20616c6c6f77656400000000000000000000000000005f82015250565b5f611b78601283611510565b9150611b8382611b44565b602082019050919050565b5f6020820190508181035f830152611ba581611b6c565b9050919050565b7f496e76616c696420747261696e696e6720696e746572657374000000000000005f82015250565b5f611be0601983611510565b9150611beb82611bac565b602082019050919050565b5f6020820190508181035f830152611c0d81611bd4565b9050919050565b7f696e7465726573740000000000000000000000000000000000000000000000005f82015250565b5f611c48600883611510565b9150611c5382611c14565b602082019050919050565b5f604082019050611c715f830184611603565b8181036020830152611c8281611c3c565b905092915050565b7f416c726561647920636f6d706c657465640000000000000000000000000000005f82015250565b5f611cbe601183611510565b9150611cc982611c8a565b602082019050919050565b5f6020820190508181035f830152611ceb81611cb2565b9050919050565b7f686173436f6d706c65746564547261696e696e670000000000000000000000005f82015250565b5f611d26601483611510565b9150611d3182611cf2565b602082019050919050565b5f604082019050611d4f5f830184611603565b8181036020830152611d6081611d1a565b905092915050565b7f436f6d706c6574696f6e2063616e6e6f742062652072657665727465640000005f82015250565b5f611d9c601d83611510565b9150611da782611d68565b602082019050919050565b5f6020820190508181035f830152611dc981611d90565b9050919050565b7f496e76616c696420696e7465726573742073656c6563746564000000000000005f82015250565b5f611e04601983611510565b9150611e0f82611dd0565b602082019050919050565b5f6020820190508181035f830152611e3181611df8565b9050919050565b7f4e487b71000000000000000000000000000000000000000000000000000000005f52604160045260245ffd5b5f819050815f5260205f209050919050565b5f6020601f8301049050919050565b5f82821b905092915050565b5f60088302611ec17fffffffffffffffffffffffffffffffffffffffffffffffffffffffffffffffff82611e86565b611ecb8683611e86565b95508019841693508086168417925050509392505050565b5f819050919050565b5f611f06611f01611efc846114ee565b611ee3565b6114ee565b9050919050565b5f819050919050565b611f1f83611eec565b611f33611f2b82611f0d565b848454611e92565b825550505050565b5f5f905090565b611f4a611f3b565b611f55818484611f16565b505050565b5b81811015611f7857611f6d5f82611f42565b600181019050611f5b565b5050565b601f821115611fbd57611f8e81611e65565b611f9784611e77565b81016020851015611fa6578190505b611fba611fb285611e77565b830182611f5a565b50505b505050565b5f82821c905092915050565b5f611fdd5f1984600802611fc2565b1980831691505092915050565b5f611ff58383611fce565b9150826002028217905092915050565b61200e82611506565b67ffffffffffffffff81111561202757612026611e38565b5b6120318254611aac565b61203c828285611f7c565b5f60209050601f83116001811461206d575f841561205b578287015190505b6120658582611fea565b8655506120cc565b601f19841661207b86611e65565b5f5b828110156120a25784890151825560018201915060208501945060208101905061207d565b868310156120bf57848901516120bb601f891682611fce565b8355505b6001600288020188555050505b505050505050565b5f6040820190506120e75f830185611603565b6120f460208301846114f7565b9392505050565b7f4e6f74206120747261696e6572000000000000000000000000000000000000005f82015250565b5f61212f600d83611510565b915061213a826120fb565b602082019050919050565b5f6020820190508181035f83015261215c81612123565b9050919050565b7f4e487b71000000000000000000000000000000000000000000000000000000005f52601160045260245ffd5b5f61219a82611711565b91506121a583611711565b9250828203905060ff8111156121be576121bd612163565b5b92915050565b7f4e487b71000000000000000000000000000000000000000000000000000000005f52603260045260245ffd5b5f6121fb82611711565b915060ff820361220e5761220d612163565b5b600182019050919050565b7f4f6e6c79205061727469636970616e7420616c6c6f77656400000000000000005f82015250565b5f61224d601883611510565b915061225882612219565b602082019050919050565b5f6020820190508181035f83015261227a81612241565b9050919050565b7f4e6f7420612076616c696420747261696e6572000000000000000000000000005f82015250565b5f6122b5601383611510565b91506122c082612281565b602082019050919050565b5f6020820190508181035f8301526122e2816122a9565b9050919050565b7f496e76616c696420736c6f7400000000000000000000000000000000000000005f82015250565b5f61231d600c83611510565b9150612328826122e9565b602082019050919050565b5f6020820190508181035f83015261234a81612311565b9050919050565b7f496e636f727265637420666565000000000000000000000000000000000000005f82015250565b5f612385600d83611510565b915061239082612351565b602082019050919050565b5f6020820190508181035f8301526123b281612379565b9050919050565b7f547261696e657220616c726561647920626f6f6b6564000000000000000000005f82015250565b5f6123ed601683611510565b91506123f8826123b9565b602082019050919050565b5f6020820190508181035f83015261241a816123e1565b9050919050565b61242a81611711565b82525050565b5f6060820190506124435f830186611603565b6124506020830185611603565b61245d6040830184612421565b94935050505056fea26469706673582212201bfd07db6c80eb01dd4ee2e54161e448dce75dffde352717d3cdbf968360ecf764736f6c634300081e0033",
					"opcodes": "PUSH1 0x80 PUSH1 0x40 MSTORE CALLVALUE DUP1 ISZERO PUSH1 0xE JUMPI PUSH0 PUSH0 REVERT JUMPDEST POP PUSH2 0x249B DUP1 PUSH2 0x1C PUSH0 CODECOPY PUSH0 RETURN INVALID PUSH1 0x80 PUSH1 0x40 MSTORE PUSH1 0x4 CALLDATASIZE LT PUSH2 0x90 JUMPI PUSH0 CALLDATALOAD PUSH1 0xE0 SHR DUP1 PUSH4 0x8BBBAE60 GT PUSH2 0x58 JUMPI DUP1 PUSH4 0x8BBBAE60 EQ PUSH2 0x18D JUMPI DUP1 PUSH4 0x8CCD9032 EQ PUSH2 0x1B5 JUMPI DUP1 PUSH4 0xD3B9AD6B EQ PUSH2 0x1F1 JUMPI DUP1 PUSH4 0xDC0DC24E EQ PUSH2 0x207 JUMPI DUP1 PUSH4 0xE00EF936 EQ PUSH2 0x223 JUMPI PUSH2 0x90 JUMP JUMPDEST DUP1 PUSH4 0x9E69EDE EQ PUSH2 0x94 JUMPI DUP1 PUSH4 0x14BFD6D0 EQ PUSH2 0xD7 JUMPI DUP1 PUSH4 0x498D55B8 EQ PUSH2 0x113 JUMPI DUP1 PUSH4 0x5A14A814 EQ PUSH2 0x129 JUMPI DUP1 PUSH4 0x74D5E100 EQ PUSH2 0x151 JUMPI JUMPDEST PUSH0 PUSH0 REVERT JUMPDEST CALLVALUE DUP1 ISZERO PUSH2 0x9F JUMPI PUSH0 PUSH0 REVERT JUMPDEST POP PUSH2 0xBA PUSH1 0x4 DUP1 CALLDATASIZE SUB DUP2 ADD SWAP1 PUSH2 0xB5 SWAP2 SWAP1 PUSH2 0x14C3 JUMP JUMPDEST PUSH2 0x24D JUMP JUMPDEST PUSH1 0x40 MLOAD PUSH2 0xCE SWAP9 SWAP8 SWAP7 SWAP6 SWAP5 SWAP4 SWAP3 SWAP2 SWAP1 PUSH2 0x1612 JUMP JUMPDEST PUSH1 0x40 MLOAD DUP1 SWAP2 SUB SWAP1 RETURN JUMPDEST CALLVALUE DUP1 ISZERO PUSH2 0xE2 JUMPI PUSH0 PUSH0 REVERT JUMPDEST POP PUSH2 0xFD PUSH1 0x4 DUP1 CALLDATASIZE SUB DUP2 ADD SWAP1 PUSH2 0xF8 SWAP2 SWAP1 PUSH2 0x16CD JUMP JUMPDEST PUSH2 0x45C JUMP JUMPDEST PUSH1 0x40 MLOAD PUSH2 0x10A SWAP2 SWAP1 PUSH2 0x16F8 JUMP JUMPDEST PUSH1 0x40 MLOAD DUP1 SWAP2 SUB SWAP1 RETURN JUMPDEST CALLVALUE DUP1 ISZERO PUSH2 0x11E JUMPI PUSH0 PUSH0 REVERT JUMPDEST POP PUSH2 0x127 PUSH2 0x497 JUMP JUMPDEST STOP JUMPDEST CALLVALUE DUP1 ISZERO PUSH2 0x134 JUMPI PUSH0 PUSH0 REVERT JUMPDEST POP PUSH2 0x14F PUSH1 0x4 DUP1 CALLDATASIZE SUB DUP2 ADD SWAP1 PUSH2 0x14A SWAP2 SWAP1 PUSH2 0x1771 JUMP JUMPDEST PUSH2 0x642 JUMP JUMPDEST STOP JUMPDEST CALLVALUE DUP1 ISZERO PUSH2 0x15C JUMPI PUSH0 PUSH0 REVERT JUMPDEST POP PUSH2 0x177 PUSH1 0x4 DUP1 CALLDATASIZE SUB DUP2 ADD SWAP1 PUSH2 0x172 SWAP2 SWAP1 PUSH2 0x14C3 JUMP JUMPDEST PUSH2 0x903 JUMP JUMPDEST PUSH1 0x40 MLOAD PUSH2 0x184 SWAP2 SWAP1 PUSH2 0x1807 JUMP JUMPDEST PUSH1 0x40 MLOAD DUP1 SWAP2 SUB SWAP1 RETURN JUMPDEST CALLVALUE DUP1 ISZERO PUSH2 0x198 JUMPI PUSH0 PUSH0 REVERT JUMPDEST POP PUSH2 0x1B3 PUSH1 0x4 DUP1 CALLDATASIZE SUB DUP2 ADD SWAP1 PUSH2 0x1AE SWAP2 SWAP1 PUSH2 0x1881 JUMP JUMPDEST PUSH2 0x91F JUMP JUMPDEST STOP JUMPDEST CALLVALUE DUP1 ISZERO PUSH2 0x1C0 JUMPI PUSH0 PUSH0 REVERT JUMPDEST POP PUSH2 0x1DB PUSH1 0x4 DUP1 CALLDATASIZE SUB DUP2 ADD SWAP1 PUSH2 0x1D6 SWAP2 SWAP1 PUSH2 0x14C3 JUMP JUMPDEST PUSH2 0xD38 JUMP JUMPDEST PUSH1 0x40 MLOAD PUSH2 0x1E8 SWAP2 SWAP1 PUSH2 0x1A0F JUMP JUMPDEST PUSH1 0x40 MLOAD DUP1 SWAP2 SUB SWAP1 RETURN JUMPDEST CALLVALUE DUP1 ISZERO PUSH2 0x1FC JUMPI PUSH0 PUSH0 REVERT JUMPDEST POP PUSH2 0x205 PUSH2 0xEF2 JUMP JUMPDEST STOP JUMPDEST PUSH2 0x221 PUSH1 0x4 DUP1 CALLDATASIZE SUB DUP2 ADD SWAP1 PUSH2 0x21C SWAP2 SWAP1 PUSH2 0x1A28 JUMP JUMPDEST PUSH2 0x103D JUMP JUMPDEST STOP JUMPDEST CALLVALUE DUP1 ISZERO PUSH2 0x22E JUMPI PUSH0 PUSH0 REVERT JUMPDEST POP PUSH2 0x237 PUSH2 0x1434 JUMP JUMPDEST PUSH1 0x40 MLOAD PUSH2 0x244 SWAP2 SWAP1 PUSH2 0x1A66 JUMP JUMPDEST PUSH1 0x40 MLOAD DUP1 SWAP2 SUB SWAP1 RETURN JUMPDEST PUSH1 0x2 PUSH1 0x20 MSTORE DUP1 PUSH0 MSTORE PUSH1 0x40 PUSH0 KECCAK256 PUSH0 SWAP2 POP SWAP1 POP DUP1 PUSH0 ADD SLOAD SWAP1 DUP1 PUSH1 0x1 ADD DUP1 SLOAD PUSH2 0x272 SWAP1 PUSH2 0x1AAC JUMP JUMPDEST DUP1 PUSH1 0x1F ADD PUSH1 0x20 DUP1 SWAP2 DIV MUL PUSH1 0x20 ADD PUSH1 0x40 MLOAD SWAP1 DUP2 ADD PUSH1 0x40 MSTORE DUP1 SWAP3 SWAP2 SWAP1 DUP2 DUP2 MSTORE PUSH1 0x20 ADD DUP3 DUP1 SLOAD PUSH2 0x29E SWAP1 PUSH2 0x1AAC JUMP JUMPDEST DUP1 ISZERO PUSH2 0x2E9 JUMPI DUP1 PUSH1 0x1F LT PUSH2 0x2C0 JUMPI PUSH2 0x100 DUP1 DUP4 SLOAD DIV MUL DUP4 MSTORE SWAP2 PUSH1 0x20 ADD SWAP2 PUSH2 0x2E9 JUMP JUMPDEST DUP3 ADD SWAP2 SWAP1 PUSH0 MSTORE PUSH1 0x20 PUSH0 KECCAK256 SWAP1 JUMPDEST DUP2 SLOAD DUP2 MSTORE SWAP1 PUSH1 0x1 ADD SWAP1 PUSH1 0x20 ADD DUP1 DUP4 GT PUSH2 0x2CC JUMPI DUP3 SWAP1 SUB PUSH1 0x1F AND DUP3 ADD SWAP2 JUMPDEST POP POP POP POP POP SWAP1 DUP1 PUSH1 0x2 ADD SLOAD SWAP1 DUP1 PUSH1 0x3 ADD DUP1 SLOAD PUSH2 0x304 SWAP1 PUSH2 0x1AAC JUMP JUMPDEST DUP1 PUSH1 0x1F ADD PUSH1 0x20 DUP1 SWAP2 DIV MUL PUSH1 0x20 ADD PUSH1 0x40 MLOAD SWAP1 DUP2 ADD PUSH1 0x40 MSTORE DUP1 SWAP3 SWAP2 SWAP1 DUP2 DUP2 MSTORE PUSH1 0x20 ADD DUP3 DUP1 SLOAD PUSH2 0x330 SWAP1 PUSH2 0x1AAC JUMP JUMPDEST DUP1 ISZERO PUSH2 0x37B JUMPI DUP1 PUSH1 0x1F LT PUSH2 0x352 JUMPI PUSH2 0x100 DUP1 DUP4 SLOAD DIV MUL DUP4 MSTORE SWAP2 PUSH1 0x20 ADD SWAP2 PUSH2 0x37B JUMP JUMPDEST DUP3 ADD SWAP2 SWAP1 PUSH0 MSTORE PUSH1 0x20 PUSH0 KECCAK256 SWAP1 JUMPDEST DUP2 SLOAD DUP2 MSTORE SWAP1 PUSH1 0x1 ADD SWAP1 PUSH1 0x20 ADD DUP1 DUP4 GT PUSH2 0x35E JUMPI DUP3 SWAP1 SUB PUSH1 0x1F AND DUP3 ADD SWAP2 JUMPDEST POP POP POP POP POP SWAP1 DUP1 PUSH1 0x4 ADD DUP1 SLOAD PUSH2 0x390 SWAP1 PUSH2 0x1AAC JUMP JUMPDEST DUP1 PUSH1 0x1F ADD PUSH1 0x20 DUP1 SWAP2 DIV MUL PUSH1 0x20 ADD PUSH1 0x40 MLOAD SWAP1 DUP2 ADD PUSH1 0x40 MSTORE DUP1 SWAP3 SWAP2 SWAP1 DUP2 DUP2 MSTORE PUSH1 0x20 ADD DUP3 DUP1 SLOAD PUSH2 0x3BC SWAP1 PUSH2 0x1AAC JUMP JUMPDEST DUP1 ISZERO PUSH2 0x407 JUMPI DUP1 PUSH1 0x1F LT PUSH2 0x3DE JUMPI PUSH2 0x100 DUP1 DUP4 SLOAD DIV MUL DUP4 MSTORE SWAP2 PUSH1 0x20 ADD SWAP2 PUSH2 0x407 JUMP JUMPDEST DUP3 ADD SWAP2 SWAP1 PUSH0 MSTORE PUSH1 0x20 PUSH0 KECCAK256 SWAP1 JUMPDEST DUP2 SLOAD DUP2 MSTORE SWAP1 PUSH1 0x1 ADD SWAP1 PUSH1 0x20 ADD DUP1 DUP4 GT PUSH2 0x3EA JUMPI DUP3 SWAP1 SUB PUSH1 0x1F AND DUP3 ADD SWAP2 JUMPDEST POP POP POP POP POP SWAP1 DUP1 PUSH1 0x5 ADD PUSH0 SWAP1 SLOAD SWAP1 PUSH2 0x100 EXP SWAP1 DIV PUSH1 0xFF AND SWAP1 DUP1 PUSH1 0x5 ADD PUSH1 0x1 SWAP1 SLOAD SWAP1 PUSH2 0x100 EXP SWAP1 DIV PUSH1 0xFF AND SWAP1 DUP1 PUSH1 0x5 ADD PUSH1 0x2 SWAP1 SLOAD SWAP1 PUSH2 0x100 EXP SWAP1 DIV PUSH20 0xFFFFFFFFFFFFFFFFFFFFFFFFFFFFFFFFFFFFFFFF AND SWAP1 POP DUP9 JUMP JUMPDEST PUSH1 0x1 DUP2 DUP2 SLOAD DUP2 LT PUSH2 0x46B JUMPI PUSH0 DUP1 REVERT JUMPDEST SWAP1 PUSH0 MSTORE PUSH1 0x20 PUSH0 KECCAK256 ADD PUSH0 SWAP2 POP SLOAD SWAP1 PUSH2 0x100 EXP SWAP1 DIV PUSH20 0xFFFFFFFFFFFFFFFFFFFFFFFFFFFFFFFFFFFFFFFF AND DUP2 JUMP JUMPDEST PUSH0 PUSH1 0x3 DUP2 GT ISZERO PUSH2 0x4AA JUMPI PUSH2 0x4A9 PUSH2 0x1576 JUMP JUMPDEST JUMPDEST PUSH0 PUSH0 CALLER PUSH20 0xFFFFFFFFFFFFFFFFFFFFFFFFFFFFFFFFFFFFFFFF AND PUSH20 0xFFFFFFFFFFFFFFFFFFFFFFFFFFFFFFFFFFFFFFFF AND DUP2 MSTORE PUSH1 0x20 ADD SWAP1 DUP2 MSTORE PUSH1 0x20 ADD PUSH0 KECCAK256 PUSH0 SWAP1 SLOAD SWAP1 PUSH2 0x100 EXP SWAP1 DIV PUSH1 0xFF AND PUSH1 0x3 DUP2 GT ISZERO PUSH2 0x505 JUMPI PUSH2 0x504 PUSH2 0x1576 JUMP JUMPDEST JUMPDEST EQ PUSH2 0x545 JUMPI PUSH1 0x40 MLOAD PUSH32 0x8C379A000000000000000000000000000000000000000000000000000000000 DUP2 MSTORE PUSH1 0x4 ADD PUSH2 0x53C SWAP1 PUSH2 0x1B26 JUMP JUMPDEST PUSH1 0x40 MLOAD DUP1 SWAP2 SUB SWAP1 REVERT JUMPDEST PUSH1 0x1 PUSH0 PUSH0 CALLER PUSH20 0xFFFFFFFFFFFFFFFFFFFFFFFFFFFFFFFFFFFFFFFF AND PUSH20 0xFFFFFFFFFFFFFFFFFFFFFFFFFFFFFFFFFFFFFFFF AND DUP2 MSTORE PUSH1 0x20 ADD SWAP1 DUP2 MSTORE PUSH1 0x20 ADD PUSH0 KECCAK256 PUSH0 PUSH2 0x100 EXP DUP2 SLOAD DUP2 PUSH1 0xFF MUL NOT AND SWAP1 DUP4 PUSH1 0x3 DUP2 GT ISZERO PUSH2 0x5A4 JUMPI PUSH2 0x5A3 PUSH2 0x1576 JUMP JUMPDEST JUMPDEST MUL OR SWAP1 SSTORE POP PUSH1 0x1 CALLER SWAP1 DUP1 PUSH1 0x1 DUP2 SLOAD ADD DUP1 DUP3 SSTORE DUP1 SWAP2 POP POP PUSH1 0x1 SWAP1 SUB SWAP1 PUSH0 MSTORE PUSH1 0x20 PUSH0 KECCAK256 ADD PUSH0 SWAP1 SWAP2 SWAP1 SWAP2 SWAP1 SWAP2 PUSH2 0x100 EXP DUP2 SLOAD DUP2 PUSH20 0xFFFFFFFFFFFFFFFFFFFFFFFFFFFFFFFFFFFFFFFF MUL NOT AND SWAP1 DUP4 PUSH20 0xFFFFFFFFFFFFFFFFFFFFFFFFFFFFFFFFFFFFFFFF AND MUL OR SWAP1 SSTORE POP PUSH32 0xAC0F15283D37631C15B481BC07DC402BCFC030956BCD94B5585F71D92E84C3DA CALLER PUSH1 0x40 MLOAD PUSH2 0x638 SWAP2 SWAP1 PUSH2 0x16F8 JUMP JUMPDEST PUSH1 0x40 MLOAD DUP1 SWAP2 SUB SWAP1 LOG1 JUMP JUMPDEST PUSH1 0x1 PUSH1 0x3 DUP2 GT ISZERO PUSH2 0x656 JUMPI PUSH2 0x655 PUSH2 0x1576 JUMP JUMPDEST JUMPDEST PUSH0 PUSH0 CALLER PUSH20 0xFFFFFFFFFFFFFFFFFFFFFFFFFFFFFFFFFFFFFFFF AND PUSH20 0xFFFFFFFFFFFFFFFFFFFFFFFFFFFFFFFFFFFFFFFF AND DUP2 MSTORE PUSH1 0x20 ADD SWAP1 DUP2 MSTORE PUSH1 0x20 ADD PUSH0 KECCAK256 PUSH0 SWAP1 SLOAD SWAP1 PUSH2 0x100 EXP SWAP1 DIV PUSH1 0xFF AND PUSH1 0x3 DUP2 GT ISZERO PUSH2 0x6B1 JUMPI PUSH2 0x6B0 PUSH2 0x1576 JUMP JUMPDEST JUMPDEST EQ PUSH2 0x6F1 JUMPI PUSH1 0x40 MLOAD PUSH32 0x8C379A000000000000000000000000000000000000000000000000000000000 DUP2 MSTORE PUSH1 0x4 ADD PUSH2 0x6E8 SWAP1 PUSH2 0x1B8E JUMP JUMPDEST PUSH1 0x40 MLOAD DUP1 SWAP2 SUB SWAP1 REVERT JUMPDEST PUSH0 PUSH1 0x2 PUSH0 DUP6 PUSH20 0xFFFFFFFFFFFFFFFFFFFFFFFFFFFFFFFFFFFFFFFF AND PUSH20 0xFFFFFFFFFFFFFFFFFFFFFFFFFFFFFFFFFFFFFFFF AND DUP2 MSTORE PUSH1 0x20 ADD SWAP1 DUP2 MSTORE PUSH1 0x20 ADD PUSH0 KECCAK256 SWAP1 POP PUSH0 DUP4 PUSH1 0xFF AND EQ PUSH2 0x80A JUMPI PUSH1 0x1 DUP4 PUSH1 0xFF AND LT ISZERO DUP1 ISZERO PUSH2 0x753 JUMPI POP PUSH1 0x3 DUP4 PUSH1 0xFF AND GT ISZERO JUMPDEST PUSH2 0x792 JUMPI PUSH1 0x40 MLOAD PUSH32 0x8C379A000000000000000000000000000000000000000000000000000000000 DUP2 MSTORE PUSH1 0x4 ADD PUSH2 0x789 SWAP1 PUSH2 0x1BF6 JUMP JUMPDEST PUSH1 0x40 MLOAD DUP1 SWAP2 SUB SWAP1 REVERT JUMPDEST DUP3 PUSH1 0xFF AND PUSH1 0x3 DUP2 GT ISZERO PUSH2 0x7A8 JUMPI PUSH2 0x7A7 PUSH2 0x1576 JUMP JUMPDEST JUMPDEST DUP2 PUSH1 0x5 ADD PUSH0 PUSH2 0x100 EXP DUP2 SLOAD DUP2 PUSH1 0xFF MUL NOT AND SWAP1 DUP4 PUSH1 0x3 DUP2 GT ISZERO PUSH2 0x7CD JUMPI PUSH2 0x7CC PUSH2 0x1576 JUMP JUMPDEST JUMPDEST MUL OR SWAP1 SSTORE POP PUSH32 0x77380CC4F1FF57AD464EC617331C7304C78FC6BFDD0E3B5EFA221A3BB9F6E20 DUP5 PUSH1 0x40 MLOAD PUSH2 0x801 SWAP2 SWAP1 PUSH2 0x1C5E JUMP JUMPDEST PUSH1 0x40 MLOAD DUP1 SWAP2 SUB SWAP1 LOG1 JUMPDEST DUP2 ISZERO PUSH2 0x8BB JUMPI DUP1 PUSH1 0x5 ADD PUSH1 0x1 SWAP1 SLOAD SWAP1 PUSH2 0x100 EXP SWAP1 DIV PUSH1 0xFF AND ISZERO PUSH2 0x862 JUMPI PUSH1 0x40 MLOAD PUSH32 0x8C379A000000000000000000000000000000000000000000000000000000000 DUP2 MSTORE PUSH1 0x4 ADD PUSH2 0x859 SWAP1 PUSH2 0x1CD4 JUMP JUMPDEST PUSH1 0x40 MLOAD DUP1 SWAP2 SUB SWAP1 REVERT JUMPDEST PUSH1 0x1 DUP2 PUSH1 0x5 ADD PUSH1 0x1 PUSH2 0x100 EXP DUP2 SLOAD DUP2 PUSH1 0xFF MUL NOT AND SWAP1 DUP4 ISZERO ISZERO MUL OR SWAP1 SSTORE POP PUSH32 0x77380CC4F1FF57AD464EC617331C7304C78FC6BFDD0E3B5EFA221A3BB9F6E20 DUP5 PUSH1 0x40 MLOAD PUSH2 0x8AE SWAP2 SWAP1 PUSH2 0x1D3C JUMP JUMPDEST PUSH1 0x40 MLOAD DUP1 SWAP2 SUB SWAP1 LOG1 PUSH2 0x8FD JUMP JUMPDEST DUP2 ISZERO PUSH2 0x8FC JUMPI PUSH1 0x40 MLOAD PUSH32 0x8C379A000000000000000000000000000000000000000000000000000000000 DUP2 MSTORE PUSH1 0x4 ADD PUSH2 0x8F3 SWAP1 PUSH2 0x1DB2 JUMP JUMPDEST PUSH1 0x40 MLOAD DUP1 SWAP2 SUB SWAP1 REVERT JUMPDEST JUMPDEST POP POP POP POP JUMP JUMPDEST PUSH0 PUSH1 0x20 MSTORE DUP1 PUSH0 MSTORE PUSH1 0x40 PUSH0 KECCAK256 PUSH0 SWAP2 POP SLOAD SWAP1 PUSH2 0x100 EXP SWAP1 DIV PUSH1 0xFF AND DUP2 JUMP JUMPDEST PUSH0 PUSH1 0x3 DUP2 GT ISZERO PUSH2 0x932 JUMPI PUSH2 0x931 PUSH2 0x1576 JUMP JUMPDEST JUMPDEST PUSH0 PUSH0 CALLER PUSH20 0xFFFFFFFFFFFFFFFFFFFFFFFFFFFFFFFFFFFFFFFF AND PUSH20 0xFFFFFFFFFFFFFFFFFFFFFFFFFFFFFFFFFFFFFFFF AND DUP2 MSTORE PUSH1 0x20 ADD SWAP1 DUP2 MSTORE PUSH1 0x20 ADD PUSH0 KECCAK256 PUSH0 SWAP1 SLOAD SWAP1 PUSH2 0x100 EXP SWAP1 DIV PUSH1 0xFF AND PUSH1 0x3 DUP2 GT ISZERO PUSH2 0x98D JUMPI PUSH2 0x98C PUSH2 0x1576 JUMP JUMPDEST JUMPDEST EQ PUSH2 0x9CD JUMPI PUSH1 0x40 MLOAD PUSH32 0x8C379A000000000000000000000000000000000000000000000000000000000 DUP2 MSTORE PUSH1 0x4 ADD PUSH2 0x9C4 SWAP1 PUSH2 0x1B26 JUMP JUMPDEST PUSH1 0x40 MLOAD DUP1 SWAP2 SUB SWAP1 REVERT JUMPDEST PUSH1 0x1 DUP2 PUSH1 0xFF AND LT ISZERO DUP1 ISZERO PUSH2 0x9E5 JUMPI POP PUSH1 0x3 DUP2 PUSH1 0xFF AND GT ISZERO JUMPDEST PUSH2 0xA24 JUMPI PUSH1 0x40 MLOAD PUSH32 0x8C379A000000000000000000000000000000000000000000000000000000000 DUP2 MSTORE PUSH1 0x4 ADD PUSH2 0xA1B SWAP1 PUSH2 0x1E1A JUMP JUMPDEST PUSH1 0x40 MLOAD DUP1 SWAP2 SUB SWAP1 REVERT JUMPDEST PUSH1 0x40 MLOAD DUP1 PUSH2 0x100 ADD PUSH1 0x40 MSTORE DUP1 DUP11 DUP2 MSTORE PUSH1 0x20 ADD DUP10 DUP10 DUP1 DUP1 PUSH1 0x1F ADD PUSH1 0x20 DUP1 SWAP2 DIV MUL PUSH1 0x20 ADD PUSH1 0x40 MLOAD SWAP1 DUP2 ADD PUSH1 0x40 MSTORE DUP1 SWAP4 SWAP3 SWAP2 SWAP1 DUP2 DUP2 MSTORE PUSH1 0x20 ADD DUP4 DUP4 DUP1 DUP3 DUP5 CALLDATACOPY PUSH0 DUP2 DUP5 ADD MSTORE PUSH1 0x1F NOT PUSH1 0x1F DUP3 ADD AND SWAP1 POP DUP1 DUP4 ADD SWAP3 POP POP POP POP POP POP POP DUP2 MSTORE PUSH1 0x20 ADD DUP8 DUP2 MSTORE PUSH1 0x20 ADD DUP7 DUP7 DUP1 DUP1 PUSH1 0x1F ADD PUSH1 0x20 DUP1 SWAP2 DIV MUL PUSH1 0x20 ADD PUSH1 0x40 MLOAD SWAP1 DUP2 ADD PUSH1 0x40 MSTORE DUP1 SWAP4 SWAP3 SWAP2 SWAP1 DUP2 DUP2 MSTORE PUSH1 0x20 ADD DUP4 DUP4 DUP1 DUP3 DUP5 CALLDATACOPY PUSH0 DUP2 DUP5 ADD MSTORE PUSH1 0x1F NOT PUSH1 0x1F DUP3 ADD AND SWAP1 POP DUP1 DUP4 ADD SWAP3 POP POP POP POP POP POP POP DUP2 MSTORE PUSH1 0x20 ADD DUP5 DUP5 DUP1 DUP1 PUSH1 0x1F ADD PUSH1 0x20 DUP1 SWAP2 DIV MUL PUSH1 0x20 ADD PUSH1 0x40 MLOAD SWAP1 DUP2 ADD PUSH1 0x40 MSTORE DUP1 SWAP4 SWAP3 SWAP2 SWAP1 DUP2 DUP2 MSTORE PUSH1 0x20 ADD DUP4 DUP4 DUP1 DUP3 DUP5 CALLDATACOPY PUSH0 DUP2 DUP5 ADD MSTORE PUSH1 0x1F NOT PUSH1 0x1F DUP3 ADD AND SWAP1 POP DUP1 DUP4 ADD SWAP3 POP POP POP POP POP POP POP DUP2 MSTORE PUSH1 0x20 ADD DUP3 PUSH1 0xFF AND PUSH1 0x3 DUP2 GT ISZERO PUSH2 0xB2D JUMPI PUSH2 0xB2C PUSH2 0x1576 JUMP JUMPDEST JUMPDEST PUSH1 0x3 DUP2 GT ISZERO PUSH2 0xB3F JUMPI PUSH2 0xB3E PUSH2 0x1576 JUMP JUMPDEST JUMPDEST DUP2 MSTORE PUSH1 0x20 ADD PUSH0 ISZERO ISZERO DUP2 MSTORE PUSH1 0x20 ADD CALLER PUSH20 0xFFFFFFFFFFFFFFFFFFFFFFFFFFFFFFFFFFFFFFFF AND DUP2 MSTORE POP PUSH1 0x2 PUSH0 CALLER PUSH20 0xFFFFFFFFFFFFFFFFFFFFFFFFFFFFFFFFFFFFFFFF AND PUSH20 0xFFFFFFFFFFFFFFFFFFFFFFFFFFFFFFFFFFFFFFFF AND DUP2 MSTORE PUSH1 0x20 ADD SWAP1 DUP2 MSTORE PUSH1 0x20 ADD PUSH0 KECCAK256 PUSH0 DUP3 ADD MLOAD DUP2 PUSH0 ADD SSTORE PUSH1 0x20 DUP3 ADD MLOAD DUP2 PUSH1 0x1 ADD SWAP1 DUP2 PUSH2 0xBC0 SWAP2 SWAP1 PUSH2 0x2005 JUMP JUMPDEST POP PUSH1 0x40 DUP3 ADD MLOAD DUP2 PUSH1 0x2 ADD SSTORE PUSH1 0x60 DUP3 ADD MLOAD DUP2 PUSH1 0x3 ADD SWAP1 DUP2 PUSH2 0xBE0 SWAP2 SWAP1 PUSH2 0x2005 JUMP JUMPDEST POP PUSH1 0x80 DUP3 ADD MLOAD DUP2 PUSH1 0x4 ADD SWAP1 DUP2 PUSH2 0xBF6 SWAP2 SWAP1 PUSH2 0x2005 JUMP JUMPDEST POP PUSH1 0xA0 DUP3 ADD MLOAD DUP2 PUSH1 0x5 ADD PUSH0 PUSH2 0x100 EXP DUP2 SLOAD DUP2 PUSH1 0xFF MUL NOT AND SWAP1 DUP4 PUSH1 0x3 DUP2 GT ISZERO PUSH2 0xC21 JUMPI PUSH2 0xC20 PUSH2 0x1576 JUMP JUMPDEST JUMPDEST MUL OR SWAP1 SSTORE POP PUSH1 0xC0 DUP3 ADD MLOAD DUP2 PUSH1 0x5 ADD PUSH1 0x1 PUSH2 0x100 EXP DUP2 SLOAD DUP2 PUSH1 0xFF MUL NOT AND SWAP1 DUP4 ISZERO ISZERO MUL OR SWAP1 SSTORE POP PUSH1 0xE0 DUP3 ADD MLOAD DUP2 PUSH1 0x5 ADD PUSH1 0x2 PUSH2 0x100 EXP DUP2 SLOAD DUP2 PUSH20 0xFFFFFFFFFFFFFFFFFFFFFFFFFFFFFFFFFFFFFFFF MUL NOT AND SWAP1 DUP4 PUSH20 0xFFFFFFFFFFFFFFFFFFFFFFFFFFFFFFFFFFFFFFFF AND MUL OR SWAP1 SSTORE POP SWAP1 POP POP PUSH1 0x3 PUSH0 PUSH0 CALLER PUSH20 0xFFFFFFFFFFFFFFFFFFFFFFFFFFFFFFFFFFFFFFFF AND PUSH20 0xFFFFFFFFFFFFFFFFFFFFFFFFFFFFFFFFFFFFFFFF AND DUP2 MSTORE PUSH1 0x20 ADD SWAP1 DUP2 MSTORE PUSH1 0x20 ADD PUSH0 KECCAK256 PUSH0 PUSH2 0x100 EXP DUP2 SLOAD DUP2 PUSH1 0xFF MUL NOT AND SWAP1 DUP4 PUSH1 0x3 DUP2 GT ISZERO PUSH2 0xCEF JUMPI PUSH2 0xCEE PUSH2 0x1576 JUMP JUMPDEST JUMPDEST MUL OR SWAP1 SSTORE POP PUSH32 0xA48418FA780C651BEF841CA082131ED20BC20C620DD0459BBA9AB78550F5D623 CALLER DUP11 PUSH1 0x40 MLOAD PUSH2 0xD25 SWAP3 SWAP2 SWAP1 PUSH2 0x20D4 JUMP JUMPDEST PUSH1 0x40 MLOAD DUP1 SWAP2 SUB SWAP1 LOG1 POP POP POP POP POP POP POP POP POP JUMP JUMPDEST PUSH2 0xD40 PUSH2 0x143F JUMP JUMPDEST PUSH1 0x2 PUSH1 0x3 DUP2 GT ISZERO PUSH2 0xD54 JUMPI PUSH2 0xD53 PUSH2 0x1576 JUMP JUMPDEST JUMPDEST PUSH0 PUSH0 DUP5 PUSH20 0xFFFFFFFFFFFFFFFFFFFFFFFFFFFFFFFFFFFFFFFF AND PUSH20 0xFFFFFFFFFFFFFFFFFFFFFFFFFFFFFFFFFFFFFFFF AND DUP2 MSTORE PUSH1 0x20 ADD SWAP1 DUP2 MSTORE PUSH1 0x20 ADD PUSH0 KECCAK256 PUSH0 SWAP1 SLOAD SWAP1 PUSH2 0x100 EXP SWAP1 DIV PUSH1 0xFF AND PUSH1 0x3 DUP2 GT ISZERO PUSH2 0xDAF JUMPI PUSH2 0xDAE PUSH2 0x1576 JUMP JUMPDEST JUMPDEST EQ PUSH2 0xDEF JUMPI PUSH1 0x40 MLOAD PUSH32 0x8C379A000000000000000000000000000000000000000000000000000000000 DUP2 MSTORE PUSH1 0x4 ADD PUSH2 0xDE6 SWAP1 PUSH2 0x2145 JUMP JUMPDEST PUSH1 0x40 MLOAD DUP1 SWAP2 SUB SWAP1 REVERT JUMPDEST PUSH2 0xDF7 PUSH2 0x143F JUMP JUMPDEST PUSH0 PUSH1 0x1 SWAP1 POP JUMPDEST PUSH1 0x6 DUP2 PUSH1 0xFF AND GT PUSH2 0xEE8 JUMPI PUSH1 0x3 PUSH0 DUP6 PUSH20 0xFFFFFFFFFFFFFFFFFFFFFFFFFFFFFFFFFFFFFFFF AND PUSH20 0xFFFFFFFFFFFFFFFFFFFFFFFFFFFFFFFFFFFFFFFF AND DUP2 MSTORE PUSH1 0x20 ADD SWAP1 DUP2 MSTORE PUSH1 0x20 ADD PUSH0 KECCAK256 PUSH0 ADD PUSH0 DUP3 PUSH1 0xFF AND PUSH1 0xFF AND DUP2 MSTORE PUSH1 0x20 ADD SWAP1 DUP2 MSTORE PUSH1 0x20 ADD PUSH0 KECCAK256 PUSH0 SWAP1 SLOAD SWAP1 PUSH2 0x100 EXP SWAP1 DIV PUSH20 0xFFFFFFFFFFFFFFFFFFFFFFFFFFFFFFFFFFFFFFFF AND DUP3 PUSH1 0x1 DUP4 PUSH2 0xE8A SWAP2 SWAP1 PUSH2 0x2190 JUMP JUMPDEST PUSH1 0xFF AND PUSH1 0x6 DUP2 LT PUSH2 0xE9E JUMPI PUSH2 0xE9D PUSH2 0x21C4 JUMP JUMPDEST JUMPDEST PUSH1 0x20 MUL ADD SWAP1 PUSH20 0xFFFFFFFFFFFFFFFFFFFFFFFFFFFFFFFFFFFFFFFF AND SWAP1 DUP2 PUSH20 0xFFFFFFFFFFFFFFFFFFFFFFFFFFFFFFFFFFFFFFFF AND DUP2 MSTORE POP POP DUP1 DUP1 PUSH2 0xEE0 SWAP1 PUSH2 0x21F1 JUMP JUMPDEST SWAP2 POP POP PUSH2 0xDFD JUMP JUMPDEST POP DUP1 SWAP2 POP POP SWAP2 SWAP1 POP JUMP JUMPDEST PUSH0 PUSH1 0x3 DUP2 GT ISZERO PUSH2 0xF05 JUMPI PUSH2 0xF04 PUSH2 0x1576 JUMP JUMPDEST JUMPDEST PUSH0 PUSH0 CALLER PUSH20 0xFFFFFFFFFFFFFFFFFFFFFFFFFFFFFFFFFFFFFFFF AND PUSH20 0xFFFFFFFFFFFFFFFFFFFFFFFFFFFFFFFFFFFFFFFF AND DUP2 MSTORE PUSH1 0x20 ADD SWAP1 DUP2 MSTORE PUSH1 0x20 ADD PUSH0 KECCAK256 PUSH0 SWAP1 SLOAD SWAP1 PUSH2 0x100 EXP SWAP1 DIV PUSH1 0xFF AND PUSH1 0x3 DUP2 GT ISZERO PUSH2 0xF60 JUMPI PUSH2 0xF5F PUSH2 0x1576 JUMP JUMPDEST JUMPDEST EQ PUSH2 0xFA0 JUMPI PUSH1 0x40 MLOAD PUSH32 0x8C379A000000000000000000000000000000000000000000000000000000000 DUP2 MSTORE PUSH1 0x4 ADD PUSH2 0xF97 SWAP1 PUSH2 0x1B26 JUMP JUMPDEST PUSH1 0x40 MLOAD DUP1 SWAP2 SUB SWAP1 REVERT JUMPDEST PUSH1 0x2 PUSH0 PUSH0 CALLER PUSH20 0xFFFFFFFFFFFFFFFFFFFFFFFFFFFFFFFFFFFFFFFF AND PUSH20 0xFFFFFFFFFFFFFFFFFFFFFFFFFFFFFFFFFFFFFFFF AND DUP2 MSTORE PUSH1 0x20 ADD SWAP1 DUP2 MSTORE PUSH1 0x20 ADD PUSH0 KECCAK256 PUSH0 PUSH2 0x100 EXP DUP2 SLOAD DUP2 PUSH1 0xFF MUL NOT AND SWAP1 DUP4 PUSH1 0x3 DUP2 GT ISZERO PUSH2 0xFFF JUMPI PUSH2 0xFFE PUSH2 0x1576 JUMP JUMPDEST JUMPDEST MUL OR SWAP1 SSTORE POP PUSH32 0x672ED10DB1686D24F0498D7222EE16112F36C3DF1825007916800893CA842A12 CALLER PUSH1 0x40 MLOAD PUSH2 0x1033 SWAP2 SWAP1 PUSH2 0x16F8 JUMP JUMPDEST PUSH1 0x40 MLOAD DUP1 SWAP2 SUB SWAP1 LOG1 JUMP JUMPDEST PUSH1 0x3 DUP1 DUP2 GT ISZERO PUSH2 0x1050 JUMPI PUSH2 0x104F PUSH2 0x1576 JUMP JUMPDEST JUMPDEST PUSH0 PUSH0 CALLER PUSH20 0xFFFFFFFFFFFFFFFFFFFFFFFFFFFFFFFFFFFFFFFF AND PUSH20 0xFFFFFFFFFFFFFFFFFFFFFFFFFFFFFFFFFFFFFFFF AND DUP2 MSTORE PUSH1 0x20 ADD SWAP1 DUP2 MSTORE PUSH1 0x20 ADD PUSH0 KECCAK256 PUSH0 SWAP1 SLOAD SWAP1 PUSH2 0x100 EXP SWAP1 DIV PUSH1 0xFF AND PUSH1 0x3 DUP2 GT ISZERO PUSH2 0x10AB JUMPI PUSH2 0x10AA PUSH2 0x1576 JUMP JUMPDEST JUMPDEST EQ PUSH2 0x10EB JUMPI PUSH1 0x40 MLOAD PUSH32 0x8C379A000000000000000000000000000000000000000000000000000000000 DUP2 MSTORE PUSH1 0x4 ADD PUSH2 0x10E2 SWAP1 PUSH2 0x2263 JUMP JUMPDEST PUSH1 0x40 MLOAD DUP1 SWAP2 SUB SWAP1 REVERT JUMPDEST PUSH1 0x2 PUSH1 0x3 DUP2 GT ISZERO PUSH2 0x10FF JUMPI PUSH2 0x10FE PUSH2 0x1576 JUMP JUMPDEST JUMPDEST PUSH0 PUSH0 DUP5 PUSH20 0xFFFFFFFFFFFFFFFFFFFFFFFFFFFFFFFFFFFFFFFF AND PUSH20 0xFFFFFFFFFFFFFFFFFFFFFFFFFFFFFFFFFFFFFFFF AND DUP2 MSTORE PUSH1 0x20 ADD SWAP1 DUP2 MSTORE PUSH1 0x20 ADD PUSH0 KECCAK256 PUSH0 SWAP1 SLOAD SWAP1 PUSH2 0x100 EXP SWAP1 DIV PUSH1 0xFF AND PUSH1 0x3 DUP2 GT ISZERO PUSH2 0x115A JUMPI PUSH2 0x1159 PUSH2 0x1576 JUMP JUMPDEST JUMPDEST EQ PUSH2 0x119A JUMPI PUSH1 0x40 MLOAD PUSH32 0x8C379A000000000000000000000000000000000000000000000000000000000 DUP2 MSTORE PUSH1 0x4 ADD PUSH2 0x1191 SWAP1 PUSH2 0x22CB JUMP JUMPDEST PUSH1 0x40 MLOAD DUP1 SWAP2 SUB SWAP1 REVERT JUMPDEST PUSH1 0x1 DUP2 PUSH1 0xFF AND LT ISZERO DUP1 ISZERO PUSH2 0x11B2 JUMPI POP PUSH1 0x6 DUP2 PUSH1 0xFF AND GT ISZERO JUMPDEST PUSH2 0x11F1 JUMPI PUSH1 0x40 MLOAD PUSH32 0x8C379A000000000000000000000000000000000000000000000000000000000 DUP2 MSTORE PUSH1 0x4 ADD PUSH2 0x11E8 SWAP1 PUSH2 0x2333 JUMP JUMPDEST PUSH1 0x40 MLOAD DUP1 SWAP2 SUB SWAP1 REVERT JUMPDEST PUSH7 0x58D15E17628000 CALLVALUE EQ PUSH2 0x123A JUMPI PUSH1 0x40 MLOAD PUSH32 0x8C379A000000000000000000000000000000000000000000000000000000000 DUP2 MSTORE PUSH1 0x4 ADD PUSH2 0x1231 SWAP1 PUSH2 0x239B JUMP JUMPDEST PUSH1 0x40 MLOAD DUP1 SWAP2 SUB SWAP1 REVERT JUMPDEST PUSH0 PUSH1 0x3 PUSH0 DUP5 PUSH20 0xFFFFFFFFFFFFFFFFFFFFFFFFFFFFFFFFFFFFFFFF AND PUSH20 0xFFFFFFFFFFFFFFFFFFFFFFFFFFFFFFFFFFFFFFFF AND DUP2 MSTORE PUSH1 0x20 ADD SWAP1 DUP2 MSTORE PUSH1 0x20 ADD PUSH0 KECCAK256 SWAP1 POP PUSH0 PUSH20 0xFFFFFFFFFFFFFFFFFFFFFFFFFFFFFFFFFFFFFFFF AND DUP2 PUSH0 ADD PUSH0 DUP5 PUSH1 0xFF AND PUSH1 0xFF AND DUP2 MSTORE PUSH1 0x20 ADD SWAP1 DUP2 MSTORE PUSH1 0x20 ADD PUSH0 KECCAK256 PUSH0 SWAP1 SLOAD SWAP1 PUSH2 0x100 EXP SWAP1 DIV PUSH20 0xFFFFFFFFFFFFFFFFFFFFFFFFFFFFFFFFFFFFFFFF AND PUSH20 0xFFFFFFFFFFFFFFFFFFFFFFFFFFFFFFFFFFFFFFFF AND EQ PUSH2 0x131F JUMPI PUSH1 0x40 MLOAD PUSH32 0x8C379A000000000000000000000000000000000000000000000000000000000 DUP2 MSTORE PUSH1 0x4 ADD PUSH2 0x1316 SWAP1 PUSH2 0x2403 JUMP JUMPDEST PUSH1 0x40 MLOAD DUP1 SWAP2 SUB SWAP1 REVERT JUMPDEST CALLER DUP2 PUSH0 ADD PUSH0 DUP5 PUSH1 0xFF AND PUSH1 0xFF AND DUP2 MSTORE PUSH1 0x20 ADD SWAP1 DUP2 MSTORE PUSH1 0x20 ADD PUSH0 KECCAK256 PUSH0 PUSH2 0x100 EXP DUP2 SLOAD DUP2 PUSH20 0xFFFFFFFFFFFFFFFFFFFFFFFFFFFFFFFFFFFFFFFF MUL NOT AND SWAP1 DUP4 PUSH20 0xFFFFFFFFFFFFFFFFFFFFFFFFFFFFFFFFFFFFFFFF AND MUL OR SWAP1 SSTORE POP PUSH1 0x1 PUSH0 DUP2 SLOAD DUP2 LT PUSH2 0x1389 JUMPI PUSH2 0x1388 PUSH2 0x21C4 JUMP JUMPDEST JUMPDEST SWAP1 PUSH0 MSTORE PUSH1 0x20 PUSH0 KECCAK256 ADD PUSH0 SWAP1 SLOAD SWAP1 PUSH2 0x100 EXP SWAP1 DIV PUSH20 0xFFFFFFFFFFFFFFFFFFFFFFFFFFFFFFFFFFFFFFFF AND PUSH20 0xFFFFFFFFFFFFFFFFFFFFFFFFFFFFFFFFFFFFFFFF AND PUSH2 0x8FC CALLVALUE SWAP1 DUP2 ISZERO MUL SWAP1 PUSH1 0x40 MLOAD PUSH0 PUSH1 0x40 MLOAD DUP1 DUP4 SUB DUP2 DUP6 DUP9 DUP9 CALL SWAP4 POP POP POP POP ISZERO DUP1 ISZERO PUSH2 0x13F3 JUMPI RETURNDATASIZE PUSH0 PUSH0 RETURNDATACOPY RETURNDATASIZE PUSH0 REVERT JUMPDEST POP PUSH32 0xE487069C0CB20CAA4BB3232E0889F0368A1E4F6EF2640E563C06C1236CED95AC CALLER DUP5 DUP5 PUSH1 0x40 MLOAD PUSH2 0x1427 SWAP4 SWAP3 SWAP2 SWAP1 PUSH2 0x2430 JUMP JUMPDEST PUSH1 0x40 MLOAD DUP1 SWAP2 SUB SWAP1 LOG1 POP POP POP JUMP JUMPDEST PUSH7 0x58D15E17628000 DUP2 JUMP JUMPDEST PUSH1 0x40 MLOAD DUP1 PUSH1 0xC0 ADD PUSH1 0x40 MSTORE DUP1 PUSH1 0x6 SWAP1 PUSH1 0x20 DUP3 MUL DUP1 CALLDATASIZE DUP4 CALLDATACOPY DUP1 DUP3 ADD SWAP2 POP POP SWAP1 POP POP SWAP1 JUMP JUMPDEST PUSH0 PUSH0 REVERT JUMPDEST PUSH0 PUSH0 REVERT JUMPDEST PUSH0 PUSH20 0xFFFFFFFFFFFFFFFFFFFFFFFFFFFFFFFFFFFFFFFF DUP3 AND SWAP1 POP SWAP2 SWAP1 POP JUMP JUMPDEST PUSH0 PUSH2 0x1492 DUP3 PUSH2 0x1469 JUMP JUMPDEST SWAP1 POP SWAP2 SWAP1 POP JUMP JUMPDEST PUSH2 0x14A2 DUP2 PUSH2 0x1488 JUMP JUMPDEST DUP2 EQ PUSH2 0x14AC JUMPI PUSH0 PUSH0 REVERT JUMPDEST POP JUMP JUMPDEST PUSH0 DUP2 CALLDATALOAD SWAP1 POP PUSH2 0x14BD DUP2 PUSH2 0x1499 JUMP JUMPDEST SWAP3 SWAP2 POP POP JUMP JUMPDEST PUSH0 PUSH1 0x20 DUP3 DUP5 SUB SLT ISZERO PUSH2 0x14D8 JUMPI PUSH2 0x14D7 PUSH2 0x1461 JUMP JUMPDEST JUMPDEST PUSH0 PUSH2 0x14E5 DUP5 DUP3 DUP6 ADD PUSH2 0x14AF JUMP JUMPDEST SWAP2 POP POP SWAP3 SWAP2 POP POP JUMP JUMPDEST PUSH0 DUP2 SWAP1 POP SWAP2 SWAP1 POP JUMP JUMPDEST PUSH2 0x1500 DUP2 PUSH2 0x14EE JUMP JUMPDEST DUP3 MSTORE POP POP JUMP JUMPDEST PUSH0 DUP2 MLOAD SWAP1 POP SWAP2 SWAP1 POP JUMP JUMPDEST PUSH0 DUP3 DUP3 MSTORE PUSH1 0x20 DUP3 ADD SWAP1 POP SWAP3 SWAP2 POP POP JUMP JUMPDEST DUP3 DUP2 DUP4 MCOPY PUSH0 DUP4 DUP4 ADD MSTORE POP POP POP JUMP JUMPDEST PUSH0 PUSH1 0x1F NOT PUSH1 0x1F DUP4 ADD AND SWAP1 POP SWAP2 SWAP1 POP JUMP JUMPDEST PUSH0 PUSH2 0x1548 DUP3 PUSH2 0x1506 JUMP JUMPDEST PUSH2 0x1552 DUP2 DUP6 PUSH2 0x1510 JUMP JUMPDEST SWAP4 POP PUSH2 0x1562 DUP2 DUP6 PUSH1 0x20 DUP7 ADD PUSH2 0x1520 JUMP JUMPDEST PUSH2 0x156B DUP2 PUSH2 0x152E JUMP JUMPDEST DUP5 ADD SWAP2 POP POP SWAP3 SWAP2 POP POP JUMP JUMPDEST PUSH32 0x4E487B7100000000000000000000000000000000000000000000000000000000 PUSH0 MSTORE PUSH1 0x21 PUSH1 0x4 MSTORE PUSH1 0x24 PUSH0 REVERT JUMPDEST PUSH1 0x4 DUP2 LT PUSH2 0x15B4 JUMPI PUSH2 0x15B3 PUSH2 0x1576 JUMP JUMPDEST JUMPDEST POP JUMP JUMPDEST PUSH0 DUP2 SWAP1 POP PUSH2 0x15C4 DUP3 PUSH2 0x15A3 JUMP JUMPDEST SWAP2 SWAP1 POP JUMP JUMPDEST PUSH0 PUSH2 0x15D3 DUP3 PUSH2 0x15B7 JUMP JUMPDEST SWAP1 POP SWAP2 SWAP1 POP JUMP JUMPDEST PUSH2 0x15E3 DUP2 PUSH2 0x15C9 JUMP JUMPDEST DUP3 MSTORE POP POP JUMP JUMPDEST PUSH0 DUP2 ISZERO ISZERO SWAP1 POP SWAP2 SWAP1 POP JUMP JUMPDEST PUSH2 0x15FD DUP2 PUSH2 0x15E9 JUMP JUMPDEST DUP3 MSTORE POP POP JUMP JUMPDEST PUSH2 0x160C DUP2 PUSH2 0x1488 JUMP JUMPDEST DUP3 MSTORE POP POP JUMP JUMPDEST PUSH0 PUSH2 0x100 DUP3 ADD SWAP1 POP PUSH2 0x1626 PUSH0 DUP4 ADD DUP12 PUSH2 0x14F7 JUMP JUMPDEST DUP2 DUP2 SUB PUSH1 0x20 DUP4 ADD MSTORE PUSH2 0x1638 DUP2 DUP11 PUSH2 0x153E JUMP JUMPDEST SWAP1 POP PUSH2 0x1647 PUSH1 0x40 DUP4 ADD DUP10 PUSH2 0x14F7 JUMP JUMPDEST DUP2 DUP2 SUB PUSH1 0x60 DUP4 ADD MSTORE PUSH2 0x1659 DUP2 DUP9 PUSH2 0x153E JUMP JUMPDEST SWAP1 POP DUP2 DUP2 SUB PUSH1 0x80 DUP4 ADD MSTORE PUSH2 0x166D DUP2 DUP8 PUSH2 0x153E JUMP JUMPDEST SWAP1 POP PUSH2 0x167C PUSH1 0xA0 DUP4 ADD DUP7 PUSH2 0x15DA JUMP JUMPDEST PUSH2 0x1689 PUSH1 0xC0 DUP4 ADD DUP6 PUSH2 0x15F4 JUMP JUMPDEST PUSH2 0x1696 PUSH1 0xE0 DUP4 ADD DUP5 PUSH2 0x1603 JUMP JUMPDEST SWAP10 SWAP9 POP POP POP POP POP POP POP POP POP JUMP JUMPDEST PUSH2 0x16AC DUP2 PUSH2 0x14EE JUMP JUMPDEST DUP2 EQ PUSH2 0x16B6 JUMPI PUSH0 PUSH0 REVERT JUMPDEST POP JUMP JUMPDEST PUSH0 DUP2 CALLDATALOAD SWAP1 POP PUSH2 0x16C7 DUP2 PUSH2 0x16A3 JUMP JUMPDEST SWAP3 SWAP2 POP POP JUMP JUMPDEST PUSH0 PUSH1 0x20 DUP3 DUP5 SUB SLT ISZERO PUSH2 0x16E2 JUMPI PUSH2 0x16E1 PUSH2 0x1461 JUMP JUMPDEST JUMPDEST PUSH0 PUSH2 0x16EF DUP5 DUP3 DUP6 ADD PUSH2 0x16B9 JUMP JUMPDEST SWAP2 POP POP SWAP3 SWAP2 POP POP JUMP JUMPDEST PUSH0 PUSH1 0x20 DUP3 ADD SWAP1 POP PUSH2 0x170B PUSH0 DUP4 ADD DUP5 PUSH2 0x1603 JUMP JUMPDEST SWAP3 SWAP2 POP POP JUMP JUMPDEST PUSH0 PUSH1 0xFF DUP3 AND SWAP1 POP SWAP2 SWAP1 POP JUMP JUMPDEST PUSH2 0x1726 DUP2 PUSH2 0x1711 JUMP JUMPDEST DUP2 EQ PUSH2 0x1730 JUMPI PUSH0 PUSH0 REVERT JUMPDEST POP JUMP JUMPDEST PUSH0 DUP2 CALLDATALOAD SWAP1 POP PUSH2 0x1741 DUP2 PUSH2 0x171D JUMP JUMPDEST SWAP3 SWAP2 POP POP JUMP JUMPDEST PUSH2 0x1750 DUP2 PUSH2 0x15E9 JUMP JUMPDEST DUP2 EQ PUSH2 0x175A JUMPI PUSH0 PUSH0 REVERT JUMPDEST POP JUMP JUMPDEST PUSH0 DUP2 CALLDATALOAD SWAP1 POP PUSH2 0x176B DUP2 PUSH2 0x1747 JUMP JUMPDEST SWAP3 SWAP2 POP POP JUMP JUMPDEST PUSH0 PUSH0 PUSH0 PUSH1 0x60 DUP5 DUP7 SUB SLT ISZERO PUSH2 0x1788 JUMPI PUSH2 0x1787 PUSH2 0x1461 JUMP JUMPDEST JUMPDEST PUSH0 PUSH2 0x1795 DUP7 DUP3 DUP8 ADD PUSH2 0x14AF JUMP JUMPDEST SWAP4 POP POP PUSH1 0x20 PUSH2 0x17A6 DUP7 DUP3 DUP8 ADD PUSH2 0x1733 JUMP JUMPDEST SWAP3 POP POP PUSH1 0x40 PUSH2 0x17B7 DUP7 DUP3 DUP8 ADD PUSH2 0x175D JUMP JUMPDEST SWAP2 POP POP SWAP3 POP SWAP3 POP SWAP3 JUMP JUMPDEST PUSH1 0x4 DUP2 LT PUSH2 0x17D2 JUMPI PUSH2 0x17D1 PUSH2 0x1576 JUMP JUMPDEST JUMPDEST POP JUMP JUMPDEST PUSH0 DUP2 SWAP1 POP PUSH2 0x17E2 DUP3 PUSH2 0x17C1 JUMP JUMPDEST SWAP2 SWAP1 POP JUMP JUMPDEST PUSH0 PUSH2 0x17F1 DUP3 PUSH2 0x17D5 JUMP JUMPDEST SWAP1 POP SWAP2 SWAP1 POP JUMP JUMPDEST PUSH2 0x1801 DUP2 PUSH2 0x17E7 JUMP JUMPDEST DUP3 MSTORE POP POP JUMP JUMPDEST PUSH0 PUSH1 0x20 DUP3 ADD SWAP1 POP PUSH2 0x181A PUSH0 DUP4 ADD DUP5 PUSH2 0x17F8 JUMP JUMPDEST SWAP3 SWAP2 POP POP JUMP JUMPDEST PUSH0 PUSH0 REVERT JUMPDEST PUSH0 PUSH0 REVERT JUMPDEST PUSH0 PUSH0 REVERT JUMPDEST PUSH0 PUSH0 DUP4 PUSH1 0x1F DUP5 ADD SLT PUSH2 0x1841 JUMPI PUSH2 0x1840 PUSH2 0x1820 JUMP JUMPDEST JUMPDEST DUP3 CALLDATALOAD SWAP1 POP PUSH8 0xFFFFFFFFFFFFFFFF DUP2 GT ISZERO PUSH2 0x185E JUMPI PUSH2 0x185D PUSH2 0x1824 JUMP JUMPDEST JUMPDEST PUSH1 0x20 DUP4 ADD SWAP2 POP DUP4 PUSH1 0x1 DUP3 MUL DUP4 ADD GT ISZERO PUSH2 0x187A JUMPI PUSH2 0x1879 PUSH2 0x1828 JUMP JUMPDEST JUMPDEST SWAP3 POP SWAP3 SWAP1 POP JUMP JUMPDEST PUSH0 PUSH0 PUSH0 PUSH0 PUSH0 PUSH0 PUSH0 PUSH0 PUSH0 PUSH1 0xC0 DUP11 DUP13 SUB SLT ISZERO PUSH2 0x189E JUMPI PUSH2 0x189D PUSH2 0x1461 JUMP JUMPDEST JUMPDEST PUSH0 PUSH2 0x18AB DUP13 DUP3 DUP14 ADD PUSH2 0x16B9 JUMP JUMPDEST SWAP10 POP POP PUSH1 0x20 DUP11 ADD CALLDATALOAD PUSH8 0xFFFFFFFFFFFFFFFF DUP2 GT ISZERO PUSH2 0x18CC JUMPI PUSH2 0x18CB PUSH2 0x1465 JUMP JUMPDEST JUMPDEST PUSH2 0x18D8 DUP13 DUP3 DUP14 ADD PUSH2 0x182C JUMP JUMPDEST SWAP9 POP SWAP9 POP POP PUSH1 0x40 PUSH2 0x18EB DUP13 DUP3 DUP14 ADD PUSH2 0x16B9 JUMP JUMPDEST SWAP7 POP POP PUSH1 0x60 DUP11 ADD CALLDATALOAD PUSH8 0xFFFFFFFFFFFFFFFF DUP2 GT ISZERO PUSH2 0x190C JUMPI PUSH2 0x190B PUSH2 0x1465 JUMP JUMPDEST JUMPDEST PUSH2 0x1918 DUP13 DUP3 DUP14 ADD PUSH2 0x182C JUMP JUMPDEST SWAP6 POP SWAP6 POP POP PUSH1 0x80 DUP11 ADD CALLDATALOAD PUSH8 0xFFFFFFFFFFFFFFFF DUP2 GT ISZERO PUSH2 0x193B JUMPI PUSH2 0x193A PUSH2 0x1465 JUMP JUMPDEST JUMPDEST PUSH2 0x1947 DUP13 DUP3 DUP14 ADD PUSH2 0x182C JUMP JUMPDEST SWAP4 POP SWAP4 POP POP PUSH1 0xA0 PUSH2 0x195A DUP13 DUP3 DUP14 ADD PUSH2 0x1733 JUMP JUMPDEST SWAP2 POP POP SWAP3 SWAP6 SWAP9 POP SWAP3 SWAP6 SWAP9 POP SWAP3 SWAP6 SWAP9 JUMP JUMPDEST PUSH0 PUSH1 0x6 SWAP1 POP SWAP2 SWAP1 POP JUMP JUMPDEST PUSH0 DUP2 SWAP1 POP SWAP3 SWAP2 POP POP JUMP JUMPDEST PUSH0 DUP2 SWAP1 POP SWAP2 SWAP1 POP JUMP JUMPDEST PUSH2 0x1990 DUP2 PUSH2 0x1488 JUMP JUMPDEST DUP3 MSTORE POP POP JUMP JUMPDEST PUSH0 PUSH2 0x19A1 DUP4 DUP4 PUSH2 0x1987 JUMP JUMPDEST PUSH1 0x20 DUP4 ADD SWAP1 POP SWAP3 SWAP2 POP POP JUMP JUMPDEST PUSH0 PUSH1 0x20 DUP3 ADD SWAP1 POP SWAP2 SWAP1 POP JUMP JUMPDEST PUSH2 0x19C2 DUP2 PUSH2 0x196A JUMP JUMPDEST PUSH2 0x19CC DUP2 DUP5 PUSH2 0x1974 JUMP JUMPDEST SWAP3 POP PUSH2 0x19D7 DUP3 PUSH2 0x197E JUMP JUMPDEST DUP1 PUSH0 JUMPDEST DUP4 DUP2 LT ISZERO PUSH2 0x1A07 JUMPI DUP2 MLOAD PUSH2 0x19EE DUP8 DUP3 PUSH2 0x1996 JUMP JUMPDEST SWAP7 POP PUSH2 0x19F9 DUP4 PUSH2 0x19AD JUMP JUMPDEST SWAP3 POP POP PUSH1 0x1 DUP2 ADD SWAP1 POP PUSH2 0x19DA JUMP JUMPDEST POP POP POP POP POP POP JUMP JUMPDEST PUSH0 PUSH1 0xC0 DUP3 ADD SWAP1 POP PUSH2 0x1A22 PUSH0 DUP4 ADD DUP5 PUSH2 0x19B9 JUMP JUMPDEST SWAP3 SWAP2 POP POP JUMP JUMPDEST PUSH0 PUSH0 PUSH1 0x40 DUP4 DUP6 SUB SLT ISZERO PUSH2 0x1A3E JUMPI PUSH2 0x1A3D PUSH2 0x1461 JUMP JUMPDEST JUMPDEST PUSH0 PUSH2 0x1A4B DUP6 DUP3 DUP7 ADD PUSH2 0x14AF JUMP JUMPDEST SWAP3 POP POP PUSH1 0x20 PUSH2 0x1A5C DUP6 DUP3 DUP7 ADD PUSH2 0x1733 JUMP JUMPDEST SWAP2 POP POP SWAP3 POP SWAP3 SWAP1 POP JUMP JUMPDEST PUSH0 PUSH1 0x20 DUP3 ADD SWAP1 POP PUSH2 0x1A79 PUSH0 DUP4 ADD DUP5 PUSH2 0x14F7 JUMP JUMPDEST SWAP3 SWAP2 POP POP JUMP JUMPDEST PUSH32 0x4E487B7100000000000000000000000000000000000000000000000000000000 PUSH0 MSTORE PUSH1 0x22 PUSH1 0x4 MSTORE PUSH1 0x24 PUSH0 REVERT JUMPDEST PUSH0 PUSH1 0x2 DUP3 DIV SWAP1 POP PUSH1 0x1 DUP3 AND DUP1 PUSH2 0x1AC3 JUMPI PUSH1 0x7F DUP3 AND SWAP2 POP JUMPDEST PUSH1 0x20 DUP3 LT DUP2 SUB PUSH2 0x1AD6 JUMPI PUSH2 0x1AD5 PUSH2 0x1A7F JUMP JUMPDEST JUMPDEST POP SWAP2 SWAP1 POP JUMP JUMPDEST PUSH32 0x416C726561647920726567697374657265640000000000000000000000000000 PUSH0 DUP3 ADD MSTORE POP JUMP JUMPDEST PUSH0 PUSH2 0x1B10 PUSH1 0x12 DUP4 PUSH2 0x1510 JUMP JUMPDEST SWAP2 POP PUSH2 0x1B1B DUP3 PUSH2 0x1ADC JUMP JUMPDEST PUSH1 0x20 DUP3 ADD SWAP1 POP SWAP2 SWAP1 POP JUMP JUMPDEST PUSH0 PUSH1 0x20 DUP3 ADD SWAP1 POP DUP2 DUP2 SUB PUSH0 DUP4 ADD MSTORE PUSH2 0x1B3D DUP2 PUSH2 0x1B04 JUMP JUMPDEST SWAP1 POP SWAP2 SWAP1 POP JUMP JUMPDEST PUSH32 0x4F6E6C792041646D696E20616C6C6F7765640000000000000000000000000000 PUSH0 DUP3 ADD MSTORE POP JUMP JUMPDEST PUSH0 PUSH2 0x1B78 PUSH1 0x12 DUP4 PUSH2 0x1510 JUMP JUMPDEST SWAP2 POP PUSH2 0x1B83 DUP3 PUSH2 0x1B44 JUMP JUMPDEST PUSH1 0x20 DUP3 ADD SWAP1 POP SWAP2 SWAP1 POP JUMP JUMPDEST PUSH0 PUSH1 0x20 DUP3 ADD SWAP1 POP DUP2 DUP2 SUB PUSH0 DUP4 ADD MSTORE PUSH2 0x1BA5 DUP2 PUSH2 0x1B6C JUMP JUMPDEST SWAP1 POP SWAP2 SWAP1 POP JUMP JUMPDEST PUSH32 0x496E76616C696420747261696E696E6720696E74657265737400000000000000 PUSH0 DUP3 ADD MSTORE POP JUMP JUMPDEST PUSH0 PUSH2 0x1BE0 PUSH1 0x19 DUP4 PUSH2 0x1510 JUMP JUMPDEST SWAP2 POP PUSH2 0x1BEB DUP3 PUSH2 0x1BAC JUMP JUMPDEST PUSH1 0x20 DUP3 ADD SWAP1 POP SWAP2 SWAP1 POP JUMP JUMPDEST PUSH0 PUSH1 0x20 DUP3 ADD SWAP1 POP DUP2 DUP2 SUB PUSH0 DUP4 ADD MSTORE PUSH2 0x1C0D DUP2 PUSH2 0x1BD4 JUMP JUMPDEST SWAP1 POP SWAP2 SWAP1 POP JUMP JUMPDEST PUSH32 0x696E746572657374000000000000000000000000000000000000000000000000 PUSH0 DUP3 ADD MSTORE POP JUMP JUMPDEST PUSH0 PUSH2 0x1C48 PUSH1 0x8 DUP4 PUSH2 0x1510 JUMP JUMPDEST SWAP2 POP PUSH2 0x1C53 DUP3 PUSH2 0x1C14 JUMP JUMPDEST PUSH1 0x20 DUP3 ADD SWAP1 POP SWAP2 SWAP1 POP JUMP JUMPDEST PUSH0 PUSH1 0x40 DUP3 ADD SWAP1 POP PUSH2 0x1C71 PUSH0 DUP4 ADD DUP5 PUSH2 0x1603 JUMP JUMPDEST DUP2 DUP2 SUB PUSH1 0x20 DUP4 ADD MSTORE PUSH2 0x1C82 DUP2 PUSH2 0x1C3C JUMP JUMPDEST SWAP1 POP SWAP3 SWAP2 POP POP JUMP JUMPDEST PUSH32 0x416C726561647920636F6D706C65746564000000000000000000000000000000 PUSH0 DUP3 ADD MSTORE POP JUMP JUMPDEST PUSH0 PUSH2 0x1CBE PUSH1 0x11 DUP4 PUSH2 0x1510 JUMP JUMPDEST SWAP2 POP PUSH2 0x1CC9 DUP3 PUSH2 0x1C8A JUMP JUMPDEST PUSH1 0x20 DUP3 ADD SWAP1 POP SWAP2 SWAP1 POP JUMP JUMPDEST PUSH0 PUSH1 0x20 DUP3 ADD SWAP1 POP DUP2 DUP2 SUB PUSH0 DUP4 ADD MSTORE PUSH2 0x1CEB DUP2 PUSH2 0x1CB2 JUMP JUMPDEST SWAP1 POP SWAP2 SWAP1 POP JUMP JUMPDEST PUSH32 0x686173436F6D706C65746564547261696E696E67000000000000000000000000 PUSH0 DUP3 ADD MSTORE POP JUMP JUMPDEST PUSH0 PUSH2 0x1D26 PUSH1 0x14 DUP4 PUSH2 0x1510 JUMP JUMPDEST SWAP2 POP PUSH2 0x1D31 DUP3 PUSH2 0x1CF2 JUMP JUMPDEST PUSH1 0x20 DUP3 ADD SWAP1 POP SWAP2 SWAP1 POP JUMP JUMPDEST PUSH0 PUSH1 0x40 DUP3 ADD SWAP1 POP PUSH2 0x1D4F PUSH0 DUP4 ADD DUP5 PUSH2 0x1603 JUMP JUMPDEST DUP2 DUP2 SUB PUSH1 0x20 DUP4 ADD MSTORE PUSH2 0x1D60 DUP2 PUSH2 0x1D1A JUMP JUMPDEST SWAP1 POP SWAP3 SWAP2 POP POP JUMP JUMPDEST PUSH32 0x436F6D706C6574696F6E2063616E6E6F74206265207265766572746564000000 PUSH0 DUP3 ADD MSTORE POP JUMP JUMPDEST PUSH0 PUSH2 0x1D9C PUSH1 0x1D DUP4 PUSH2 0x1510 JUMP JUMPDEST SWAP2 POP PUSH2 0x1DA7 DUP3 PUSH2 0x1D68 JUMP JUMPDEST PUSH1 0x20 DUP3 ADD SWAP1 POP SWAP2 SWAP1 POP JUMP JUMPDEST PUSH0 PUSH1 0x20 DUP3 ADD SWAP1 POP DUP2 DUP2 SUB PUSH0 DUP4 ADD MSTORE PUSH2 0x1DC9 DUP2 PUSH2 0x1D90 JUMP JUMPDEST SWAP1 POP SWAP2 SWAP1 POP JUMP JUMPDEST PUSH32 0x496E76616C696420696E7465726573742073656C656374656400000000000000 PUSH0 DUP3 ADD MSTORE POP JUMP JUMPDEST PUSH0 PUSH2 0x1E04 PUSH1 0x19 DUP4 PUSH2 0x1510 JUMP JUMPDEST SWAP2 POP PUSH2 0x1E0F DUP3 PUSH2 0x1DD0 JUMP JUMPDEST PUSH1 0x20 DUP3 ADD SWAP1 POP SWAP2 SWAP1 POP JUMP JUMPDEST PUSH0 PUSH1 0x20 DUP3 ADD SWAP1 POP DUP2 DUP2 SUB PUSH0 DUP4 ADD MSTORE PUSH2 0x1E31 DUP2 PUSH2 0x1DF8 JUMP JUMPDEST SWAP1 POP SWAP2 SWAP1 POP JUMP JUMPDEST PUSH32 0x4E487B7100000000000000000000000000000000000000000000000000000000 PUSH0 MSTORE PUSH1 0x41 PUSH1 0x4 MSTORE PUSH1 0x24 PUSH0 REVERT JUMPDEST PUSH0 DUP2 SWAP1 POP DUP2 PUSH0 MSTORE PUSH1 0x20 PUSH0 KECCAK256 SWAP1 POP SWAP2 SWAP1 POP JUMP JUMPDEST PUSH0 PUSH1 0x20 PUSH1 0x1F DUP4 ADD DIV SWAP1 POP SWAP2 SWAP1 POP JUMP JUMPDEST PUSH0 DUP3 DUP3 SHL SWAP1 POP SWAP3 SWAP2 POP POP JUMP JUMPDEST PUSH0 PUSH1 0x8 DUP4 MUL PUSH2 0x1EC1 PUSH32 0xFFFFFFFFFFFFFFFFFFFFFFFFFFFFFFFFFFFFFFFFFFFFFFFFFFFFFFFFFFFFFFFF DUP3 PUSH2 0x1E86 JUMP JUMPDEST PUSH2 0x1ECB DUP7 DUP4 PUSH2 0x1E86 JUMP JUMPDEST SWAP6 POP DUP1 NOT DUP5 AND SWAP4 POP DUP1 DUP7 AND DUP5 OR SWAP3 POP POP POP SWAP4 SWAP3 POP POP POP JUMP JUMPDEST PUSH0 DUP2 SWAP1 POP SWAP2 SWAP1 POP JUMP JUMPDEST PUSH0 PUSH2 0x1F06 PUSH2 0x1F01 PUSH2 0x1EFC DUP5 PUSH2 0x14EE JUMP JUMPDEST PUSH2 0x1EE3 JUMP JUMPDEST PUSH2 0x14EE JUMP JUMPDEST SWAP1 POP SWAP2 SWAP1 POP JUMP JUMPDEST PUSH0 DUP2 SWAP1 POP SWAP2 SWAP1 POP JUMP JUMPDEST PUSH2 0x1F1F DUP4 PUSH2 0x1EEC JUMP JUMPDEST PUSH2 0x1F33 PUSH2 0x1F2B DUP3 PUSH2 0x1F0D JUMP JUMPDEST DUP5 DUP5 SLOAD PUSH2 0x1E92 JUMP JUMPDEST DUP3 SSTORE POP POP POP POP JUMP JUMPDEST PUSH0 PUSH0 SWAP1 POP SWAP1 JUMP JUMPDEST PUSH2 0x1F4A PUSH2 0x1F3B JUMP JUMPDEST PUSH2 0x1F55 DUP2 DUP5 DUP5 PUSH2 0x1F16 JUMP JUMPDEST POP POP POP JUMP JUMPDEST JUMPDEST DUP2 DUP2 LT ISZERO PUSH2 0x1F78 JUMPI PUSH2 0x1F6D PUSH0 DUP3 PUSH2 0x1F42 JUMP JUMPDEST PUSH1 0x1 DUP2 ADD SWAP1 POP PUSH2 0x1F5B JUMP JUMPDEST POP POP JUMP JUMPDEST PUSH1 0x1F DUP3 GT ISZERO PUSH2 0x1FBD JUMPI PUSH2 0x1F8E DUP2 PUSH2 0x1E65 JUMP JUMPDEST PUSH2 0x1F97 DUP5 PUSH2 0x1E77 JUMP JUMPDEST DUP2 ADD PUSH1 0x20 DUP6 LT ISZERO PUSH2 0x1FA6 JUMPI DUP2 SWAP1 POP JUMPDEST PUSH2 0x1FBA PUSH2 0x1FB2 DUP6 PUSH2 0x1E77 JUMP JUMPDEST DUP4 ADD DUP3 PUSH2 0x1F5A JUMP JUMPDEST POP POP JUMPDEST POP POP POP JUMP JUMPDEST PUSH0 DUP3 DUP3 SHR SWAP1 POP SWAP3 SWAP2 POP POP JUMP JUMPDEST PUSH0 PUSH2 0x1FDD PUSH0 NOT DUP5 PUSH1 0x8 MUL PUSH2 0x1FC2 JUMP JUMPDEST NOT DUP1 DUP4 AND SWAP2 POP POP SWAP3 SWAP2 POP POP JUMP JUMPDEST PUSH0 PUSH2 0x1FF5 DUP4 DUP4 PUSH2 0x1FCE JUMP JUMPDEST SWAP2 POP DUP3 PUSH1 0x2 MUL DUP3 OR SWAP1 POP SWAP3 SWAP2 POP POP JUMP JUMPDEST PUSH2 0x200E DUP3 PUSH2 0x1506 JUMP JUMPDEST PUSH8 0xFFFFFFFFFFFFFFFF DUP2 GT ISZERO PUSH2 0x2027 JUMPI PUSH2 0x2026 PUSH2 0x1E38 JUMP JUMPDEST JUMPDEST PUSH2 0x2031 DUP3 SLOAD PUSH2 0x1AAC JUMP JUMPDEST PUSH2 0x203C DUP3 DUP3 DUP6 PUSH2 0x1F7C JUMP JUMPDEST PUSH0 PUSH1 0x20 SWAP1 POP PUSH1 0x1F DUP4 GT PUSH1 0x1 DUP2 EQ PUSH2 0x206D JUMPI PUSH0 DUP5 ISZERO PUSH2 0x205B JUMPI DUP3 DUP8 ADD MLOAD SWAP1 POP JUMPDEST PUSH2 0x2065 DUP6 DUP3 PUSH2 0x1FEA JUMP JUMPDEST DUP7 SSTORE POP PUSH2 0x20CC JUMP JUMPDEST PUSH1 0x1F NOT DUP5 AND PUSH2 0x207B DUP7 PUSH2 0x1E65 JUMP JUMPDEST PUSH0 JUMPDEST DUP3 DUP2 LT ISZERO PUSH2 0x20A2 JUMPI DUP5 DUP10 ADD MLOAD DUP3 SSTORE PUSH1 0x1 DUP3 ADD SWAP2 POP PUSH1 0x20 DUP6 ADD SWAP5 POP PUSH1 0x20 DUP2 ADD SWAP1 POP PUSH2 0x207D JUMP JUMPDEST DUP7 DUP4 LT ISZERO PUSH2 0x20BF JUMPI DUP5 DUP10 ADD MLOAD PUSH2 0x20BB PUSH1 0x1F DUP10 AND DUP3 PUSH2 0x1FCE JUMP JUMPDEST DUP4 SSTORE POP JUMPDEST PUSH1 0x1 PUSH1 0x2 DUP9 MUL ADD DUP9 SSTORE POP POP POP JUMPDEST POP POP POP POP POP POP JUMP JUMPDEST PUSH0 PUSH1 0x40 DUP3 ADD SWAP1 POP PUSH2 0x20E7 PUSH0 DUP4 ADD DUP6 PUSH2 0x1603 JUMP JUMPDEST PUSH2 0x20F4 PUSH1 0x20 DUP4 ADD DUP5 PUSH2 0x14F7 JUMP JUMPDEST SWAP4 SWAP3 POP POP POP JUMP JUMPDEST PUSH32 0x4E6F74206120747261696E657200000000000000000000000000000000000000 PUSH0 DUP3 ADD MSTORE POP JUMP JUMPDEST PUSH0 PUSH2 0x212F PUSH1 0xD DUP4 PUSH2 0x1510 JUMP JUMPDEST SWAP2 POP PUSH2 0x213A DUP3 PUSH2 0x20FB JUMP JUMPDEST PUSH1 0x20 DUP3 ADD SWAP1 POP SWAP2 SWAP1 POP JUMP JUMPDEST PUSH0 PUSH1 0x20 DUP3 ADD SWAP1 POP DUP2 DUP2 SUB PUSH0 DUP4 ADD MSTORE PUSH2 0x215C DUP2 PUSH2 0x2123 JUMP JUMPDEST SWAP1 POP SWAP2 SWAP1 POP JUMP JUMPDEST PUSH32 0x4E487B7100000000000000000000000000000000000000000000000000000000 PUSH0 MSTORE PUSH1 0x11 PUSH1 0x4 MSTORE PUSH1 0x24 PUSH0 REVERT JUMPDEST PUSH0 PUSH2 0x219A DUP3 PUSH2 0x1711 JUMP JUMPDEST SWAP2 POP PUSH2 0x21A5 DUP4 PUSH2 0x1711 JUMP JUMPDEST SWAP3 POP DUP3 DUP3 SUB SWAP1 POP PUSH1 0xFF DUP2 GT ISZERO PUSH2 0x21BE JUMPI PUSH2 0x21BD PUSH2 0x2163 JUMP JUMPDEST JUMPDEST SWAP3 SWAP2 POP POP JUMP JUMPDEST PUSH32 0x4E487B7100000000000000000000000000000000000000000000000000000000 PUSH0 MSTORE PUSH1 0x32 PUSH1 0x4 MSTORE PUSH1 0x24 PUSH0 REVERT JUMPDEST PUSH0 PUSH2 0x21FB DUP3 PUSH2 0x1711 JUMP JUMPDEST SWAP2 POP PUSH1 0xFF DUP3 SUB PUSH2 0x220E JUMPI PUSH2 0x220D PUSH2 0x2163 JUMP JUMPDEST JUMPDEST PUSH1 0x1 DUP3 ADD SWAP1 POP SWAP2 SWAP1 POP JUMP JUMPDEST PUSH32 0x4F6E6C79205061727469636970616E7420616C6C6F7765640000000000000000 PUSH0 DUP3 ADD MSTORE POP JUMP JUMPDEST PUSH0 PUSH2 0x224D PUSH1 0x18 DUP4 PUSH2 0x1510 JUMP JUMPDEST SWAP2 POP PUSH2 0x2258 DUP3 PUSH2 0x2219 JUMP JUMPDEST PUSH1 0x20 DUP3 ADD SWAP1 POP SWAP2 SWAP1 POP JUMP JUMPDEST PUSH0 PUSH1 0x20 DUP3 ADD SWAP1 POP DUP2 DUP2 SUB PUSH0 DUP4 ADD MSTORE PUSH2 0x227A DUP2 PUSH2 0x2241 JUMP JUMPDEST SWAP1 POP SWAP2 SWAP1 POP JUMP JUMPDEST PUSH32 0x4E6F7420612076616C696420747261696E657200000000000000000000000000 PUSH0 DUP3 ADD MSTORE POP JUMP JUMPDEST PUSH0 PUSH2 0x22B5 PUSH1 0x13 DUP4 PUSH2 0x1510 JUMP JUMPDEST SWAP2 POP PUSH2 0x22C0 DUP3 PUSH2 0x2281 JUMP JUMPDEST PUSH1 0x20 DUP3 ADD SWAP1 POP SWAP2 SWAP1 POP JUMP JUMPDEST PUSH0 PUSH1 0x20 DUP3 ADD SWAP1 POP DUP2 DUP2 SUB PUSH0 DUP4 ADD MSTORE PUSH2 0x22E2 DUP2 PUSH2 0x22A9 JUMP JUMPDEST SWAP1 POP SWAP2 SWAP1 POP JUMP JUMPDEST PUSH32 0x496E76616C696420736C6F740000000000000000000000000000000000000000 PUSH0 DUP3 ADD MSTORE POP JUMP JUMPDEST PUSH0 PUSH2 0x231D PUSH1 0xC DUP4 PUSH2 0x1510 JUMP JUMPDEST SWAP2 POP PUSH2 0x2328 DUP3 PUSH2 0x22E9 JUMP JUMPDEST PUSH1 0x20 DUP3 ADD SWAP1 POP SWAP2 SWAP1 POP JUMP JUMPDEST PUSH0 PUSH1 0x20 DUP3 ADD SWAP1 POP DUP2 DUP2 SUB PUSH0 DUP4 ADD MSTORE PUSH2 0x234A DUP2 PUSH2 0x2311 JUMP JUMPDEST SWAP1 POP SWAP2 SWAP1 POP JUMP JUMPDEST PUSH32 0x496E636F72726563742066656500000000000000000000000000000000000000 PUSH0 DUP3 ADD MSTORE POP JUMP JUMPDEST PUSH0 PUSH2 0x2385 PUSH1 0xD DUP4 PUSH2 0x1510 JUMP JUMPDEST SWAP2 POP PUSH2 0x2390 DUP3 PUSH2 0x2351 JUMP JUMPDEST PUSH1 0x20 DUP3 ADD SWAP1 POP SWAP2 SWAP1 POP JUMP JUMPDEST PUSH0 PUSH1 0x20 DUP3 ADD SWAP1 POP DUP2 DUP2 SUB PUSH0 DUP4 ADD MSTORE PUSH2 0x23B2 DUP2 PUSH2 0x2379 JUMP JUMPDEST SWAP1 POP SWAP2 SWAP1 POP JUMP JUMPDEST PUSH32 0x547261696E657220616C726561647920626F6F6B656400000000000000000000 PUSH0 DUP3 ADD MSTORE POP JUMP JUMPDEST PUSH0 PUSH2 0x23ED PUSH1 0x16 DUP4 PUSH2 0x1510 JUMP JUMPDEST SWAP2 POP PUSH2 0x23F8 DUP3 PUSH2 0x23B9 JUMP JUMPDEST PUSH1 0x20 DUP3 ADD SWAP1 POP SWAP2 SWAP1 POP JUMP JUMPDEST PUSH0 PUSH1 0x20 DUP3 ADD SWAP1 POP DUP2 DUP2 SUB PUSH0 DUP4 ADD MSTORE PUSH2 0x241A DUP2 PUSH2 0x23E1 JUMP JUMPDEST SWAP1 POP SWAP2 SWAP1 POP JUMP JUMPDEST PUSH2 0x242A DUP2 PUSH2 0x1711 JUMP JUMPDEST DUP3 MSTORE POP POP JUMP JUMPDEST PUSH0 PUSH1 0x60 DUP3 ADD SWAP1 POP PUSH2 0x2443 PUSH0 DUP4 ADD DUP7 PUSH2 0x1603 JUMP JUMPDEST PUSH2 0x2450 PUSH1 0x20 DUP4 ADD DUP6 PUSH2 0x1603 JUMP JUMPDEST PUSH2 0x245D PUSH1 0x40 DUP4 ADD DUP5 PUSH2 0x2421 JUMP JUMPDEST SWAP5 SWAP4 POP POP POP POP JUMP INVALID LOG2 PUSH5 0x6970667358 0x22 SLT KECCAK256 SHL REVERT SMOD 0xDB PUSH13 0x80EB01DD4EE2E54161E448DCE7 TSTORE SELFDESTRUCT 0xDE CALLDATALOAD 0x27 OR 0xD3 0xCD 0xBF SWAP7 DUP4 PUSH1 0xEC 0xF7 PUSH5 0x736F6C6343 STOP ADDMOD 0x1E STOP CALLER "
				},
				"gasEstimates": {
					"creation": {
						"codeDepositCost": "1874200",
						"executionCost": "1974",
						"totalCost": "1876174"
					},
					"external": {
						"BOOKING_FEE()": "413",
						"admins(uint256)": "4967",
						"bookTrainingSlot(address,uint8)": "infinite",
						"participants(address)": "infinite",
						"registerAsAdmin()": "76665",
						"registerAsParticipant(uint256,string,uint256,string,string,uint8)": "infinite",
						"registerAsTrainer()": "28089",
						"updateParticipant(address,uint8,bool)": "infinite",
						"userRoles(address)": "3009",
						"viewTrainerSchedule(address)": "infinite"
					}
				},
				"methodIdentifiers": {
					"BOOKING_FEE()": "e00ef936",
					"admins(uint256)": "14bfd6d0",
					"bookTrainingSlot(address,uint8)": "dc0dc24e",
					"participants(address)": "09e69ede",
					"registerAsAdmin()": "498d55b8",
					"registerAsParticipant(uint256,string,uint256,string,string,uint8)": "8bbbae60",
					"registerAsTrainer()": "d3b9ad6b",
					"updateParticipant(address,uint8,bool)": "5a14a814",
					"userRoles(address)": "74d5e100",
					"viewTrainerSchedule(address)": "8ccd9032"
				}
			},
			"storageLayout": {
				"storage": [
					{
						"astId": 42,
						"contract": "contracts/DisasterTraining.sol:DisasterTraining",
						"label": "userRoles",
						"offset": 0,
						"slot": "0",
						"type": "t_mapping(t_address,t_enum(UserRole)6)"
					},
					{
						"astId": 45,
						"contract": "contracts/DisasterTraining.sol:DisasterTraining",
						"label": "admins",
						"offset": 0,
						"slot": "1",
						"type": "t_array(t_address)dyn_storage"
					},
					{
						"astId": 50,
						"contract": "contracts/DisasterTraining.sol:DisasterTraining",
						"label": "participants",
						"offset": 0,
						"slot": "2",
						"type": "t_mapping(t_address,t_struct(Participant)32_storage)"
					},
					{
						"astId": 55,
						"contract": "contracts/DisasterTraining.sol:DisasterTraining",
						"label": "trainerSchedules",
						"offset": 0,
						"slot": "3",
						"type": "t_mapping(t_address,t_struct(TrainerSchedule)37_storage)"
					}
				],
				"types": {
					"t_address": {
						"encoding": "inplace",
						"label": "address",
						"numberOfBytes": "20"
					},
					"t_array(t_address)dyn_storage": {
						"base": "t_address",
						"encoding": "dynamic_array",
						"label": "address[]",
						"numberOfBytes": "32"
					},
					"t_bool": {
						"encoding": "inplace",
						"label": "bool",
						"numberOfBytes": "1"
					},
					"t_enum(TrainingInterest)11": {
						"encoding": "inplace",
						"label": "enum DisasterTraining.TrainingInterest",
						"numberOfBytes": "1"
					},
					"t_enum(UserRole)6": {
						"encoding": "inplace",
						"label": "enum DisasterTraining.UserRole",
						"numberOfBytes": "1"
					},
					"t_mapping(t_address,t_enum(UserRole)6)": {
						"encoding": "mapping",
						"key": "t_address",
						"label": "mapping(address => enum DisasterTraining.UserRole)",
						"numberOfBytes": "32",
						"value": "t_enum(UserRole)6"
					},
					"t_mapping(t_address,t_struct(Participant)32_storage)": {
						"encoding": "mapping",
						"key": "t_address",
						"label": "mapping(address => struct DisasterTraining.Participant)",
						"numberOfBytes": "32",
						"value": "t_struct(Participant)32_storage"
					},
					"t_mapping(t_address,t_struct(TrainerSchedule)37_storage)": {
						"encoding": "mapping",
						"key": "t_address",
						"label": "mapping(address => struct DisasterTraining.TrainerSchedule)",
						"numberOfBytes": "32",
						"value": "t_struct(TrainerSchedule)37_storage"
					},
					"t_mapping(t_uint8,t_address)": {
						"encoding": "mapping",
						"key": "t_uint8",
						"label": "mapping(uint8 => address)",
						"numberOfBytes": "32",
						"value": "t_address"
					},
					"t_string_storage": {
						"encoding": "bytes",
						"label": "string",
						"numberOfBytes": "32"
					},
					"t_struct(Participant)32_storage": {
						"encoding": "inplace",
						"label": "struct DisasterTraining.Participant",
						"members": [
							{
								"astId": 16,
								"contract": "contracts/DisasterTraining.sol:DisasterTraining",
								"label": "id",
								"offset": 0,
								"slot": "0",
								"type": "t_uint256"
							},
							{
								"astId": 18,
								"contract": "contracts/DisasterTraining.sol:DisasterTraining",
								"label": "name",
								"offset": 0,
								"slot": "1",
								"type": "t_string_storage"
							},
							{
								"astId": 20,
								"contract": "contracts/DisasterTraining.sol:DisasterTraining",
								"label": "age",
								"offset": 0,
								"slot": "2",
								"type": "t_uint256"
							},
							{
								"astId": 22,
								"contract": "contracts/DisasterTraining.sol:DisasterTraining",
								"label": "gender",
								"offset": 0,
								"slot": "3",
								"type": "t_string_storage"
							},
							{
								"astId": 24,
								"contract": "contracts/DisasterTraining.sol:DisasterTraining",
								"label": "district",
								"offset": 0,
								"slot": "4",
								"type": "t_string_storage"
							},
							{
								"astId": 27,
								"contract": "contracts/DisasterTraining.sol:DisasterTraining",
								"label": "training_interest",
								"offset": 0,
								"slot": "5",
								"type": "t_enum(TrainingInterest)11"
							},
							{
								"astId": 29,
								"contract": "contracts/DisasterTraining.sol:DisasterTraining",
								"label": "has_completed_training",
								"offset": 1,
								"slot": "5",
								"type": "t_bool"
							},
							{
								"astId": 31,
								"contract": "contracts/DisasterTraining.sol:DisasterTraining",
								"label": "wallet",
								"offset": 2,
								"slot": "5",
								"type": "t_address"
							}
						],
						"numberOfBytes": "192"
					},
					"t_struct(TrainerSchedule)37_storage": {
						"encoding": "inplace",
						"label": "struct DisasterTraining.TrainerSchedule",
						"members": [
							{
								"astId": 36,
								"contract": "contracts/DisasterTraining.sol:DisasterTraining",
								"label": "slotToParticipant",
								"offset": 0,
								"slot": "0",
								"type": "t_mapping(t_uint8,t_address)"
							}
						],
						"numberOfBytes": "32"
					},
					"t_uint256": {
						"encoding": "inplace",
						"label": "uint256",
						"numberOfBytes": "32"
					},
					"t_uint8": {
						"encoding": "inplace",
						"label": "uint8",
						"numberOfBytes": "1"
					}
				}
			},
			"userdoc": {
				"kind": "user",
				"methods": {},
				"version": 1
			}
		}
	}
}